:020000040800F2
:1000000000000220C14D0008A5490008AD490008C4
:10001000B5490008BD490008C549000800000000B6
:10002000000000000000000000000000CD490008B2
:10003000DB49000800000000E9490008F749000812
:10004000114E0008114E0008114E0008114E000814
:10005000114E0008114E0008114E0008114E000804
:10006000114E0008114E0008114E0008114E0008F4
:10007000114E0008114E0008114E0008414A0008B8
:10008000114E0008114E0008114E0008114E0008D4
:10009000114E0008114E0008114E0008114E0008C4
:1000A000114E0008054A0008114E0008194A0008C0
:1000B000114E00082D4A0008114E0008114E00088C
:1000C000114E0008114E0008114E0008114E000894
:1000D000114E0008114E0008114E0008114E000884
:1000E000114E0008114E0008114E0008114E000874
:1000F000114E0008114E0008114E0008114E000864
:10010000114E0008114E0008114E0008114E000853
:10011000114E0008114E0008114E0008114E000843
:10012000114E0008114E0008114E0008114E000833
:10013000114E0008114E0008114E0008114E000823
:10014000114E0008114E0008114E0008114E000813
:10015000114E0008114E0008114E0008114E000803
:10016000114E0008114E0008114E0008114E0008F3
:10017000114E0008114E0008114E0008000000004A
:08018000114E0008114E0008A9
:1001900010B5054C237833B9044B13B10448AFF3C1
:1001A00000800123237010BD6C00002000000000BF
:1001B0005CB2000808B5034B1BB103490348AFF319
:1001C000008008BD00000000700000205CB2000844
:1001D00070B54FF0FF0C4CF4E06C1CEA11541DBFDD
:1001E0001CEA135594EA0C0F95EA0C0F00F0DEF8A8
:1001F0002C4481EA030621EA4C5123EA4C5350EA8D
:10020000013518BF52EA033541F4801143F48013DD
:1002100038D0A0FB02CE4FF00005E1FB02E506F06E
:100220000042E0FB03E54FF00006E1FB03569CF0C3
:10023000000F18BF4EF0010EA4F1FF04B6F5007FC9
:1002400064F5407404D25FEA4E0E6D4146EB06063B
:1002500042EAC62141EA55514FEAC52040EA5E50C4
:100260004FEACE2EB4F1FD0C88BFBCF5E06F1ED86E
:10027000BEF1004F08BF5FEA500E50F1000041EBA5
:10028000045170BD06F0004646EA010140EA020052
:1002900081EA0301B4EB5C04C2BFD4EB0C0541EA74
:1002A000045170BD41F480114FF0000E013C00F389
:1002B000AB8014F1360FDEBF002001F0004170BDAD
:1002C000C4F10004203C35DA0C341BDC04F11404C6
:1002D000C4F1200500FA05F320FA04F001FA05F252
:1002E00040EA020001F0004221F0004110EBD3701F
:1002F00021FA04F642EB06015EEA430E08BF20EA4B
:10030000D37070BDC4F10C04C4F1200500FA04F3ED
:1003100020FA05F001FA04F240EA020001F000417F
:1003200010EBD37041F100015EEA430E08BF20EAF2
:10033000D37070BDC4F1200500FA05F24EEA020E3A
:1003400020FA04F301FA05F243EA020321FA04F069
:1003500001F0004121FA04F220EA020000EBD37020
:100360005EEA430E08BF20EAD37070BD94F0000F20
:100370000FD101F00046400041EB010111F4801F54
:1003800008BF013CF7D041EA060195F0000F18BF05
:10039000704703F00046520043EB030313F4801F41
:1003A00008BF013DF7D043EA0603704794EA0C0FFB
:1003B0000CEA135518BF95EA0C0F0CD050EA410611
:1003C00018BF52EA4306D1D181EA030101F000418E
:1003D0004FF0000070BD50EA410606BF10461946B6
:1003E00052EA430619D094EA0C0F02D150EA0136C2
:1003F00013D195EA0C0F05D152EA03361CBF104603
:1004000019460AD181EA030101F0004141F0FE41A1
:1004100041F470014FF0000070BD41F0FE4141F425
:10042000780170BD81F0004102E000BF83F000431D
:1004300030B54FEA41044FEA430594EA050F08BF7F
:1004400090EA020F1FBF54EA000C55EA020C7FEA43
:10045000645C7FEA655C00F0E2804FEA5454D4EBC0
:100460005555B8BF6D420CDD2C4480EA020281EA8A
:10047000030382EA000083EA010180EA020281EAC2
:100480000303362D88BF30BD11F0004F4FEA013114
:100490004FF4801C4CEA113102D0404261EB410123
:1004A00013F0004F4FEA03334CEA133302D05242A9
:1004B00063EB430394EA050F00F0A780A4F1010465
:1004C000D5F1200E0DDB02FA0EFC22FA05F280189F
:1004D00041F1000103FA0EF2801843FA05F3594185
:1004E0000EE0A5F120050EF1200E012A03FA0EFC04
:1004F00028BF4CF0020C43FA05F3C01851EBE3712E
:1005000001F0004507D54FF0000EDCF1000C7EEB4A
:1005100000006EEB0101B1F5801F1BD3B1F5001F88
:100520000CD349085FEA30004FEA3C0C04F10104A7
:100530004FEA445212F5800F80F09A80BCF1004FD0
:1005400008BF5FEA500C50F1000041EB045141EA52
:10055000050130BD5FEA4C0C404141EB0101013C1B
:1005600028BFB1F5801FE9D291F0000F04BF01460A
:100570000020B1FA81F308BF2033A3F10B03B3F1DC
:1005800020020CDA0C3208DD02F1140CC2F10C026C
:1005900001FA0CF021FA02F10CE002F11402D8BFCA
:1005A000C2F1200C01FA02F120FA0CFCDCBF41EA96
:1005B0000C019040E41AA2BF01EB0451294330BD65
:1005C0006FEA04041F3C1CDA0C340EDC04F1140442
:1005D000C4F1200220FA04F001FA02F340EA030019
:1005E00021FA04F345EA030130BDC4F10C04C4F15F
:1005F000200220FA02F001FA04F340EA030029463F
:1006000030BD21FA04F0294630BD94F0000F83F488
:10061000801306BF81F480110134013D4EE77FEA6B
:10062000645C18BF7FEA655C29D094EA050F08BFB7
:1006300090EA020F05D054EA000C04BF1946104698
:1006400030BD91EA030F1EBF0021002030BD5FEADC
:10065000545C05D14000494128BF41F0004130BD04
:1006600014F580043CBF01F5801130BD01F0004558
:1006700045F0FE4141F470014FF0000030BD7FEACB
:10068000645C1ABF194610467FEA655C1CBF0B46C6
:10069000024650EA013406BF52EA033591EA030FDD
:1006A00041F4002130BD00BF90F0000F04BF0021D5
:1006B000704730B54FF4806404F132044FF0000508
:1006C0004FF0000150E700BF90F0000F04BF002181
:1006D000704730B54FF4806404F1320410F00045E7
:1006E00048BF40424FF000013EE700BF42004FEAE2
:1006F000E2014FEA31014FEA02701FBF12F07F435F
:1007000093F07F4F81F06051704732F07F4208BF15
:10071000704793F07F4F04BF41F40021704730B51C
:100720004FF4607401F0004521F000411CE700BF68
:1007300050EA010208BF704730B54FF000050AE0EB
:1007400050EA010208BF704730B511F0004502D5EC
:10075000404261EB41014FF4806404F132045FEAEE
:10076000915C3FF4D8AE4FF003025FEADC0C18BF97
:1007700003325FEADC0C18BF033202EBDC02C2F189
:10078000200300FA03FC20FA02F001FA03FE40EA1B
:100790000E0021FA02F11444BDE600BF4A0011D256
:1007A00012F5001211D20DD56FF47873B3EB6252CB
:1007B0000ED44FEAC12343F0004343EA505323FAD7
:1007C00002F070474FF00000704750EA013002D14C
:1007D0004FF0FF3070474FF00000704753B94AB9EF
:1007E000002908BF00281CBF4FF0FF314FF0FF3039
:1007F00000F088B9ADF1080C6DE904CE00F006F800
:10080000DDF804E0DDE9022304B070472DE9F0478C
:10081000089D0F4604468C46002B48D18A42164656
:1008200061D9B2FA82F34BB1C3F1200201FA03FCA1
:1008300020FA02F29E4042EA0C0C9C404FEA164E0F
:10084000B7B2BCFBFEF1220C0EFB11CC42EA0C420B
:1008500001FB07F0904209D9B21801F1FF3C80F08A
:10086000EE80904240F2EB8002393244121AA4B278
:10087000B2FBFEF00EFB102244EA024400FB07F735
:10088000A74209D9341900F1FF3280F0DA80A7427B
:1008900040F2D7803444023840EA0140E41B002192
:1008A0001DB1DC400023C5E90043BDE8F0878B4261
:1008B00006D90DB1C5E9000100210846BDE8F08761
:1008C000B3FA83F1002948D1BB4202D3824200F23D
:1008D0000781841A67EB030201209446002DE4D0BF
:1008E000C5E9004CE1E7002A00F09280B2FA82F3F9
:1008F000002B40F0A8808A1A4FEA164E1FFA86FC99
:100900000121200CB2FBFEF70EFB172240EA024247
:100910000CFB07F0904207D9B21807F1FF3802D25A
:10092000904200F2E2804746121AA4B2B2FBFEF0F7
:100930000EFB102244EA02440CFB00FCA44507D93C
:10094000341900F1FF3202D2A44500F2CB801046E8
:10095000A4EB0C0440EA0740A2E7C1F120068B405B
:1009600022FA06FC4CEA030C07FA01F420FA06F31B
:10097000F7404FEA1C49234300FA01F81FFA8CFEA6
:10098000B7FBF9F01C0C09FB107744EA074400FBA5
:100990000EF7A74202FA01F20AD91CEB040400F197
:1009A000FF3A80F09B80A74240F29880023864446E
:1009B000E41B9FB2B4FBF9F309FB134447EA044478
:1009C00003FB0EFEA64509D91CEB040403F1FF3717
:1009D00080F08280A6457FD9023B644443EA004010
:1009E000A4EB0E04A0FB02E7BC427346B94663D3F6
:1009F00060D05DB1B8EB030264EB090404FA06F6BB
:100A000022FA01F31E43CC40C5E9006400214CE703
:100A10006208480842EAC1710B0C43EA00438AB2FB
:100A200042EA0342B3FBF6F1E407B4463746B64662
:100A30001F23B0FBF6F0D21B41EA004161E761469B
:100A400014E7104628E7C3F1200120FA01F29E4086
:100A500027FA01F19F403A434FEA164E1FFA86FCEF
:100A6000B1FBFEF70EFB1710110C41EA004107FB2A
:100A70000CF8884504FA03F43AD9711807F1FF30ED
:100A800001D288451FD8A1EB0801B1FBFEF808FB95
:100A90000CF70EFB181192B242EA0142BA422FD271
:100AA000B21808F1FF31C6D2BA42C4D2A8F102018D
:100AB0003244C0E7F0459CD2BEEB020367EB0C0763
:100AC0000138B94695E7A6EB08084144B81EB1FBCA
:100AD000FEF808FB0CF7DCE73B467FE7504667E78C
:100AE0000846FBE63444023832E7023F32441BE753
:100AF000A1EB08013846B1FBFEF808FB0CF7C8E78C
:100B0000414698E7704700BF000000000000000069
:100B100001F0FF01102A2BDB10F0070F08D010F8AE
:100B2000013B013A8B422DD010F0070F42B3F6D1B2
:100B3000F0B441EA012141EA014122F007047FF0CB
:100B400000070023F0E80256083C85EA010586EA22
:100B5000010685FA47F5A3FA87F586FA47F6A5FA5E
:100B600087F68EB9EED1F0BC01F0FF0102F007026A
:100B700032B110F8013B013A83EA010313B1F8D115
:100B80000020704701387047002D06BF35460338F6
:100B9000073815F0010F07D1013015F4807F02BF2F
:100BA000013015F4C03F0130F0BC0138704700BF80
:100BB00080B400AF064BD3F88830054A43F4700385
:100BC000C2F8883000BFBD465DF8047B704700BFA7
:100BD00000ED00E080B487B000AF786039603B681A
:100BE0001A687B6853F822303A68126823F00101D2
:100BF0007B6843F822103B689B68082B02D1402396
:100C00007B6101E000237B613B685A687B691A4382
:100C10003B689B681A433B68DB681A433B681B6967
:100C20001A433B685B691A433B68DB691A433B68BC
:100C30001B6A1A433B685B6A1A433B689B6A1A4308
:100C40003B68DB6A1A433B681B6B13433B613B68A1
:100C50009B693A6913433B613B68DB6B3A69134319
:100C60003B61104BFB60FB6843F48063FB60FB68F7
:100C700043F4E023FB603B681A687B6853F822204A
:100C8000FB68DB4302EA03013B681A683B691943CE
:100C90007B6843F82210002318461C37BD465DF8D8
:100CA000047B70477FFB080080B485B000AFF8601C
:100CB000B9607A60BB681A68BB685B681B011A433D
:100CC000BB689B681B021A43BB68DB681B041A43A2
:100CD000BB681B69013B1B051A43BB685B69023B90
:100CE0001B0642EA0301BB689B697A68013219431B
:100CF000FB6843F82210002318461437BD465DF800
:100D0000047B704780B485B000AFF860B9607A604A
:100D10003B603B68B3F5804F1DD1FB687A6853F8A0
:100D20002220134B1340BA681168BA685268120146
:100D30001143BA68926812021143BA68926911436A
:100D4000BA68D26812040A4343EA0201FB687A686F
:100D500043F8221005E0FB687A686FF0704143F8B1
:100D60002210002318461437BD465DF8047B7047F7
:100D70000000F0CF80B584B000AFF860B9607A6051
:100D8000FB68002B01D1012338E0FB6893F8493060
:100D9000DBB2002B06D1FB68002283F84820F868FC
:100DA00003F0BEFCFB681A68FB680833194610465E
:100DB000FFF710FFFB681868FB689B681A46B96864
:100DC000FFF772FFFB685868FB689A68FB681B6B4B
:100DD0007968FFF797FFFB681B68FA68926853F819
:100DE0002210FB681B68FA68926841F0010143F821
:100DF0002210FB68012283F849200023184610378F
:100E0000BD4680BD80B586B000AF78607B68002BA2
:100E100001D1012367E27B681B6803F00103002B0B
:100E200075D0884B9B6803F00C03042B0CD0854BCA
:100E30009B6803F00C03082B12D1824B5B6803F410
:100E40008003B3F5800F0BD17E4B1B6803F4003396
:100E5000002B5BD07B685B68002B57D1012342E2FB
:100E60007B685B68B3F5803F06D1764B1B68754A9B
:100E700043F4803313601DE07B685B68B3F5A02FFB
:100E80000CD1704B1B686F4A43F4802313606D4B89
:100E90001B686C4A43F4803313600BE0694B1B689A
:100EA000684A23F480331360664B1B68654A23F459
:100EB000802313607B685B68002B13D001F01AFC61
:100EC000386108E001F016FC02463B69D31A642B36
:100ED00001D9032307E25B4B1B6803F40033002BAB
:100EE000F0D014E001F006FC386108E001F002FCEB
:100EF00002463B69D31A642B01D90323F3E1514B1A
:100F00001B6803F40033002BF0D100E000BF7B68C6
:100F10001B6803F00203002B63D04A4B9B6803F06D
:100F20000C03002B0BD0474B9B6803F00C03082BE2
:100F30001CD1444B5B6803F48003002B16D1414B5A
:100F40001B6803F00203002B05D07B68DB68012BD4
:100F500001D00123C7E13B4B1B6823F0F8027B68FB
:100F60001B69DB00374913430B603AE07B68DB68A1
:100F7000002B20D0344B01221A6001F0BBFB3861FA
:100F800008E001F0B7FB02463B69D31A022B01D9F6
:100F90000323A8E12B4B1B6803F00203002BF0D0C6
:100FA000284B1B6823F0F8027B681B69DB0025498E
:100FB00013430B6015E0244B00221A6001F09AFBEA
:100FC000386108E001F096FB02463B69D31A022B18
:100FD00001D9032387E11B4B1B6803F00203002B9D
:100FE000F0D17B681B6803F00803002B36D07B68C8
:100FF0005B69002B16D0154B01221A6001F07AFBB9
:10100000386108E001F076FB02463B69D31A022BF7
:1010100001D9032367E10B4B5B6F03F00203002B45
:10102000F0D01BE0094B00221A6001F063FB38612D
:101030000EE001F05FFB02463B69D31A022B07D991
:10104000032350E10038024000004742800E47422F
:10105000884B5B6F03F00203002BEAD17B681B68AF
:1010600003F00403002B00F097800023FB75814BF5
:101070001B6C03F08053002B0FD10023BB607D4B12
:101080001B6C7C4A43F0805313647A4B1B6C03F057
:101090008053BB60BB680123FB75774B1B6803F46F
:1010A0008073002B18D1744B1B68734A43F4807310
:1010B000136001F01FFB386108E001F01BFB0246E2
:1010C0003B69D31A022B01D903230CE16A4B1B683D
:1010D00003F48073002BF0D07B689B68012B06D152
:1010E000644B1B6F634A43F0010313671CE07B688A
:1010F0009B68052B0CD15F4B1B6F5E4A43F00403CA
:1011000013675C4B1B6F5B4A43F0010313670BE0F3
:10111000584B1B6F574A23F001031367554B1B6F46
:10112000544A23F0040313677B689B68002B15D097
:1011300001F0E0FA38610AE001F0DCFA02463B69AE
:10114000D31A41F28832934201D90323CBE0494BB1
:101150001B6F03F00203002BEED014E001F0CAFA7B
:1011600038610AE001F0C6FA02463B69D31A41F23F
:101170008832934201D90323B5E03E4B1B6F03F045
:101180000203002BEED1FB7D012B05D1394B1B6CEB
:10119000384A23F0805313647B689B69002B00F06E
:1011A000A180344B9B6803F00C03082B5CD07B6858
:1011B0009B69022B41D1314B00221A6001F09AFA4F
:1011C000386108E001F096FA02463B69D31A022B17
:1011D00001D9032387E0274B1B6803F00073002B22
:1011E000F0D17B68DA697B681B6A1A437B685B6AAB
:1011F0009B011A437B689B6A5B08013B1B041A43F3
:101200007B68DB6A1B061B4913434B601B4B0122A7
:101210001A6001F06FFA386108E001F06BFA0246DB
:101220003B69D31A022B01D903235CE0114B1B68E5
:1012300003F00073002BF0D054E0104B00221A6032
:1012400001F058FA386108E001F054FA02463B69AF
:10125000D31A022B01D9032345E0064B1B6803F088
:101260000073002BF0D13DE07B689B69012B07D117
:10127000012338E00038024000700040600047421F
:101280001B4B5B68FB607B689B69012B28D0FB686C
:1012900003F480027B68DB699A4221D1FB6803F08A
:1012A0003F027B681B6A9A421AD1FA6847F6C073FC
:1012B00013407A68526A9201934211D1FB6803F499
:1012C00040327B689B6A5B08013B1B049A4207D152
:1012D000FB6803F070627B68DB6A1B069A4201D0F0
:1012E000012300E0002318461837BD4680BD00BF2B
:1012F0000038024080B584B000AF786039607B6808
:10130000002B01D10123CCE0684B1B6803F00703DD
:101310003A689A420CD9654B3A68D2B21A70634B5C
:101320001B6803F007033A689A4201D00123B8E032
:101330007B681B6803F00203002B20D07B681B68CE
:1013400003F00403002B05D0594B9B68584A43F423
:10135000E05393607B681B6803F00803002B05D003
:10136000534B9B68524A43F460439360504B9B68D5
:1013700023F0F0027B689B684D4913438B607B68C8
:101380001B6803F00103002B44D07B685B68012BD2
:1013900007D1474B1B6803F40033002B19D10123FD
:1013A0007FE07B685B68022B03D07B685B68032B64
:1013B00007D13F4B1B6803F00073002B09D10123B9
:1013C0006FE03B4B1B6803F00203002B01D10123AC
:1013D00067E0374B9B6823F003027B685B68344906
:1013E00013438B6001F086F9F8600AE001F082F99E
:1013F0000246FB68D31A41F28832934201D9032393
:101400004FE02B4B9B6803F00C027B685B689B00F2
:101410009A42EBD1254B1B6803F007033A689A42C6
:101420000CD2224B3A68D2B21A70204B1B6803F0E0
:1014300007033A689A4201D0012332E07B681B68B7
:1014400003F00403002B08D0194B9B6823F4E052EF
:101450007B68DB68164913438B607B681B6803F06D
:101460000803002B09D0124B9B6823F460427B6871
:101470001B69DB000E4913438B6000F021F8024624
:101480000B4B9B681B0903F00F030A49CB5C22FA44
:1014900003F3094A1360094B1B68184601F0E6F88C
:1014A000002318461037BD4680BD00BF003C0240F7
:1014B0000038024020B30008000000200400002093
:1014C0002DE9B04F90B000AF00237B630023FB6396
:1014D00000233B630023BB63584B9B6803F00C0362
:1014E000082B0DD0082B00F2A080002B02D0042B7B
:1014F00003D09AE0524BBB639AE0524BBB6397E038
:101500004E4B5B6803F03F037B634C4B5B6803F41B
:101510008003002B27D0494B5B689B0900223B626C
:101520007A623B6AC3F308000021464B03FB01F2D9
:10153000002300FB03F31344424AA0FB0221F9629B
:10154000BA62FA6A1344FB627B6B0022BB61FA61E8
:10155000D7E90623D7E90A01FFF740F902460B460F
:101560001346FB6353E0354B5B689B0900223B61EC
:101570007A613B69C3F3080A4FF0000B52465B46A1
:101580004FF000004FF00001590141EAD2615001D3
:1015900002460B46B2EB0A0863EB0B094FF0000260
:1015A0004FF000034FEA891343EA98634FEA881229
:1015B000B2EB080463EB09054FF000024FF00003A3
:1015C000EB0043EA5473E20014461D4614EB0A0391
:1015D0003B6045EB0B037B604FF000024FF00003D4
:1015E000D7E9004529468B02214643EA915321461B
:1015F0008A02104619467B6B0022BB60FA60D7E96D
:101600000223FFF7EBF802460B461346FB630B4B36
:101610005B681B0C03F0030301335B003B63FA6B55
:101620003B6BB2FBF3F3BB6302E0054BBB6300BF54
:10163000BB6B18464037BD46BDE8B08F003802404E
:101640000024F40040787D0180B586B000AF78605A
:1016500000237B6100233B617B681B6803F001036F
:10166000002B05D17B681B6803F00403002B35D0E9
:10167000624B00221A6001F03DF8786108E001F049
:1016800039F802467B69D31A022B01D90323B0E053
:101690005B4B1B6803F00063002BF0D17B685B6839
:1016A0009A017B689B681B0755491343C1F8843036
:1016B000524B01221A6001F01DF8786108E001F038
:1016C00019F802467B69D31A022B01D9032390E053
:1016D0004B4B1B6803F00063002BF0D07B681B684A
:1016E00003F00203002B00F083800023FB60444BD7
:1016F0001B6C434A43F080531364414B1B6C03F053
:101700008053FB60FB683F4B1B683E4A43F4807389
:10171000136000F0EFFF786108E000F0EBFF024695
:101720007B69D31A022B01D9032362E0354B1B6876
:1017300003F48073002BF0D0314B1B6F03F4407324
:101740003B613B69002B2FD07B68DB6803F440735F
:101750003A699A4228D02A4B1B6F23F440733B61AD
:10176000294B01221A60284B00221A60244A3B6947
:101770001367234B1B6F03F00103012B14D100F0FF
:10178000B9FF78610AE000F0B5FF02467B69D31A21
:1017900041F28832934201D903232AE0184B1B6F90
:1017A00003F00203002BEED07B68DB6803F4407388
:1017B000B3F5407F0DD1124B9B6823F4F8127B6880
:1017C000DB6823F0704323F440730D4913438B60AF
:1017D00005E00B4B9B680A4A23F4F8139360084B0F
:1017E0001A6F7B68DB68C3F30B03054913430B6770
:1017F000002318461837BD4680BD00BF6800474229
:101800000038024000700040400E474280B487B06C
:1018100000AF786000237B6100233B610023FB6005
:101820000023BB607B68012B3FD1244B9B6803F4F2
:101830000003FB60FB68002B06D0FB68B3F5000FCC
:101840002FD11F4B7B612FE01C4B5B6803F480039F
:10185000B3F5800F08D1194B5B6803F03F03194AB9
:10186000B2FBF3F33B6107E0144B5B6803F03F030B
:10187000154AB2FBF3F33B61104BD3F884309B095C
:10188000C3F308023B6902FB03F3BB600B4BD3F8C5
:1018900084301B0F03F00703BA68B2FBF3F37B61DC
:1018A00002E000237B6100BF00E000BF7B691846B7
:1018B0001C37BD465DF8047B704700BF003802400E
:1018C0000080BB0040787D010024F40080B489B022
:1018D00000AF7860396000237B6100233B61002307
:1018E000BB610023FB616BE10122FB6902FA03F398
:1018F0007B613B681B687A6913403B613A697B698D
:101900009A4240F05A813B685B6803F00303012B65
:1019100005D03B685B6803F00303022B30D17B6882
:101920009B68BB61FB695B00032202FA03F3DB43A4
:10193000BA691340BB613B68DA68FB695B0002FA75
:1019400003F3BA691343BB617B68BA699A607B6829
:101950005B68BB610122FB6902FA03F3DB43BA69EE
:101960001340BB613B685B681B0903F00102FB6924
:1019700002FA03F3BA691343BB617B68BA695A6020
:101980003B685B6803F00303032B17D07B68DB68BD
:10199000BB61FB695B00032202FA03F3DB43BA6914
:1019A0001340BB613B689A68FB695B0002FA03F372
:1019B000BA691343BB617B68BA69DA603B685B68EC
:1019C00003F00303022B23D1FB69DA087B6808329A
:1019D00053F82230BB61FB6903F007039B000F2221
:1019E00002FA03F3DB43BA691340BB613B681A692F
:1019F000FB6903F007039B0002FA03F3BA69134380
:101A0000BB61FB69DA087B680832B96943F82210C8
:101A10007B681B68BB61FB695B00032202FA03F36E
:101A2000DB43BA691340BB613B685B6803F00302A8
:101A3000FB695B0002FA03F3BA691343BB617B687D
:101A4000BA691A603B685B6803F44033002B00F00E
:101A5000B4800023FB60604B5B6C5F4A43F48043BF
:101A600053645D4B5B6C03F48043FB60FB685B4A33
:101A7000FB699B08023352F82330BB61FB6903F01A
:101A800003039B000F2202FA03F3DB43BA691340FE
:101A9000BB617B68524A93422BD07B68514A934288
:101AA00025D07B68504A93421FD07B684F4A9342AF
:101AB00019D07B684E4A934213D07B684D4A9342BB
:101AC0000DD07B684C4A934207D07B684B4A9342C7
:101AD00001D107230EE008230CE006230AE00523CA
:101AE00008E0042306E0032304E0022302E00123CC
:101AF00000E00023FA6902F0030292009340BA6901
:101B00001343BB613549FB699B080233BA6941F84D
:101B100023203B4B9B68BB613B69DB43BA691340A5
:101B2000BB613B685B6803F48013002B03D0BA6988
:101B30003B691343BB61324ABB699360304BDB683E
:101B4000BB613B69DB43BA691340BB613B685B68BF
:101B500003F40013002B03D0BA693B691343BB6144
:101B6000274ABB69D360264B5B68BB613B69DB439B
:101B7000BA691340BB613B685B6803F40033002B18
:101B800003D0BA693B691343BB611D4ABB6953600B
:101B90001B4B1B68BB613B69DB43BA691340BB61EC
:101BA0003B685B6803F48033002B03D0BA693B6960
:101BB0001343BB61124ABB691360FB690133FB61CC
:101BC000FB690F2B7FF690AE00BF00BF2437BD46E8
:101BD0005DF8047B704700BF0038024000380140C8
:101BE000000002400004024000080240000C0240D5
:101BF000001002400014024000180240001C024085
:101C0000003C014080B485B000AF78600B467B801B
:101C10007B681A697B881340002B02D00123FB7379
:101C200001E00023FB73FB7B18461437BD465DF8CB
:101C3000047B704780B483B000AF78600B467B8034
:101C400013467B707B78002B03D07A887B689A617F
:101C500003E07B881A047B689A6100BF0C37BD469D
:101C60005DF8047B7047000080B586B000AF7860F7
:101C700000237B6100F03EFD38617B68002B01D1C1
:101C8000012399E07B68022283F835207B680022DB
:101C900083F834207B681B681A687B681B6822F015
:101CA00001021A600FE000F025FD02463B69D31ADD
:101CB000052B08D97B6820225A657B68032283F8AC
:101CC0003520032378E07B681B681B6803F0010361
:101CD000002BE8D17B681B681B687B617A69384BF5
:101CE00013407B617B685A687B689B681A437B68FA
:101CF000DB681A437B681B691A437B685B691A437C
:101D00007B689B691A437B68DB691A437B681B6AA3
:101D100013437A6913437B617B685B6A042B07D1A9
:101D20007B68DA6A7B681B6B13437A6913437B61B8
:101D30007B681B687A691A607B681B685B697B61DA
:101D40007B6923F007037B617B685B6A7A691343D5
:101D50007B617B685B6A042B17D17B689B6A7A691D
:101D600013437B617B68DB6A002B0ED0786800F040
:101D7000CDFA0346002B08D07B6840225A657B6869
:101D8000012283F83520012316E07B681B687A69FD
:101D90005A61786800F084FA0346FB607B68DB6D6B
:101DA0003F229A40FB689A607B6800225A657B68F4
:101DB000012283F83520002318461837BD4680BD20
:101DC0003F8010F080B584B000AF78607B68002B56
:101DD00001D1012350E07B6893F83530DBB2022B50
:101DE00001D1022348E07B681B681A687B681B6886
:101DF00022F001021A607B681B6800221A607B686F
:101E00001B6800225A607B681B6800229A607B680E
:101E10001B680022DA607B681B6800221A617B68FD
:101E20001B6821225A61786800F03AFA0346FB6089
:101E30007B680022DA637B6800221A647B680022D8
:101E40005A647B6800229A647B680022DA647B68AB
:101E500000221A657B68DB6D3F229A40FB689A601E
:101E60007B6800225A657B68002283F835207B68F6
:101E7000002283F83420002318461037BD4680BD69
:101E800080B586B000AFF860B9607A603B6000232F
:101E9000FB75FB689B6D3B61FB6893F83430012B4D
:101EA00001D1022340E0FB68012283F83420FB6863
:101EB00093F83530DBB2012B2FD1FB68022283F877
:101EC0003520FB6800225A653B687A68B968F86873
:101ED00000F0B8F9FB68DB6D3F229A403B699A60DD
:101EE000FB681B681A68FB681B6842F016021A60E0
:101EF000FB681B6C002B07D0FB681B681A68FB682B
:101F00001B6842F008021A60FB681B681A68FB68CD
:101F10001B6842F001021A6005E0FB68002283F8AA
:101F200034200223FB75FB7D18461837BD4680BD63
:101F300080B586B000AF78600023BB608E4B1B6815
:101F40008E4AA2FB03239B0A7B617B689B6D3B61EE
:101F50003B691B68FB607B68DB6D08229A40FB686D
:101F60001340002B1AD07B681B681B6803F0040326
:101F7000002B13D07B681B681A687B681B6822F0F3
:101F800004021A607B68DB6D08229A403B699A6004
:101F90007B685B6D43F001027B685A657B68DB6D93
:101FA00001229A40FB681340002B12D07B681B680B
:101FB0005B6903F08003002B0BD07B68DB6D012293
:101FC0009A403B699A607B685B6D43F002027B68D4
:101FD0005A657B68DB6D04229A40FB681340002B36
:101FE00012D07B681B681B6803F00203002B0BD028
:101FF0007B68DB6D04229A403B699A607B685B6D6D
:1020000043F004027B685A657B68DB6D10229A40BE
:10201000FB681340002B43D07B681B681B6803F0F0
:102020000803002B3CD07B68DB6D10229A403B6993
:102030009A607B681B681B6803F48023002B18D010
:102040007B681B681B6803F40023002B08D17B68A6
:102050001B6C002B24D07B681B6C786898471FE0B2
:102060007B689B6C002B1BD07B689B6C78689847C7
:1020700016E07B681B681B6803F48073002B07D194
:102080007B681B681A687B681B6822F008021A606C
:102090007B681B6C002B03D07B681B6C78689847AF
:1020A0007B68DB6D20229A40FB681340002B00F018
:1020B0008F807B681B681B6803F01003002B00F007
:1020C00087807B68DB6D20229A403B699A607B6841
:1020D00093F83530DBB2052B36D17B681B681A6864
:1020E0007B681B6822F016021A607B681B685A69BD
:1020F0007B681B6822F080025A617B681B6C002B96
:1021000003D17B689B6C002B07D07B681B681A6827
:102110007B681B6822F008021A607B68DB6D3F2237
:102120009A403B699A607B68012283F835207B687E
:10213000002283F834207B681B6D002B7ED07B68E7
:102140001B6D7868984779E07B681B681B6803F40F
:102150008023002B1DD07B681B681B6803F40023C1
:10216000002B0DD17B685B6C002B31D07B685B6CE6
:10217000786898472CE000BF00000020B5814E1B16
:102180007B68DB6B002B23D07B68DB6B7868984720
:102190001EE07B681B681B6803F48073002B0FD163
:1021A0007B681B681A687B681B6822F010021A6043
:1021B0007B68012283F835207B68002283F8342075
:1021C0007B68DB6B002B03D07B68DB6B7868984700
:1021D0007B685B6D002B32D07B685B6D03F0010385
:1021E000002B22D07B68052283F835207B681B6892
:1021F0001A687B681B6822F001021A60BB68013311
:10220000BB607A699A4207D37B681B681B6803F03E
:102210000103002BF2D100E000BF7B68012283F8AC
:1022200035207B68002283F834207B68DB6C002B30
:1022300005D07B68DB6C7868984700E000BF1837F2
:10224000BD4680BD80B485B000AFF860B9607A60EB
:102250003B60FB681B681A68FB681B6822F48022DD
:102260001A60FB681B683A685A60FB689B68402BE1
:1022700008D1FB681B687A689A60FB681B68BA68BB
:10228000DA6007E0FB681B68BA689A60FB681B6845
:102290007A68DA6000BF1437BD465DF8047B70478A
:1022A00080B485B000AF78607B681B68DBB2103B00
:1022B000144AA2FB03231B09FB60134AFB68134467
:1022C0001B781A467B68DA65FB68032B09D97B68A3
:1022D0001B6823F47F7323F003031A1D7B689A6540
:1022E00007E07B681B6823F47F7323F003037A689D
:1022F00093657B689B6D18461437BD465DF8047B7B
:10230000704700BFABAAAAAA30B3000880B485B05A
:1023100000AF78600023FB737B689B6ABB607B68BF
:102320009B69002B1FD1BB68032B56D801A252F822
:1023300023F000BF45230008572300084523000869
:10234000DB2300087B68DB6A03F08073002B46D038
:102350000123FB7343E07B68DB6AB3F1C07F40D1AC
:102360000123FB733DE07B689B69B3F5005F21D1DE
:10237000BB68032B37D801A252F823F08D23000845
:10238000932300088D230008A52300080123FB7375
:1023900030E07B68DB6A03F08073002B25D00123DB
:1023A000FB7322E07B68DB6AB3F1C07F1FD101239E
:1023B000FB731CE0BB68022B03D9BB68032B03D063
:1023C00018E00123FB7315E07B68DB6A03F0807380
:1023D000002B0ED00123FB730BE000BF0AE000BF0F
:1023E00008E000BF06E000BF04E000BF02E000BF5D
:1023F00000E000BFFB7B18461437BD465DF8047B48
:10240000704700BF80B485B000AF78607B6803F090
:102410000703FB600C4BDB68BB60BA684FF6FF0339
:102420001340BB60FB681A02BB68134343F0BF63F1
:1024300043F40033BB60044ABB68D36000BF143769
:10244000BD465DF8047B704700ED00E080B400AF4E
:10245000044BDB681B0A03F007031846BD465DF812
:10246000047B704700ED00E080B483B000AF03460A
:10247000FB7197F90730002B0BDBFB7903F01F0290
:10248000074997F907305B09012000FA02F241F889
:10249000232000BF0C37BD465DF8047B704700BFAA
:1024A00000E100E080B483B000AF03463960FB7107
:1024B00097F90730002B0ADB3B68DAB20C4997F931
:1024C00007301201D2B20B4483F800230AE03B68C4
:1024D000DAB20849FB7903F00F03043B1201D2B2D0
:1024E0000B441A7600BF0C37BD465DF8047B70477D
:1024F00000E100E000ED00E080B489B000AFF860DA
:10250000B9607A60FB6803F00703FB61FB69C3F104
:102510000703042B28BF0423BB61FB690433062B8C
:1025200002D9FB69033B00E000237B614FF0FF32DF
:10253000BB6902FA03F3DA43BB681A407B699A402D
:102540004FF0FF317B6901FA03F3D9437B680B40FD
:10255000134318462437BD465DF8047B70470000DE
:1025600080B582B000AF78607B68013BB3F1807FBB
:1025700001D301230FE00A4A7B68013B53600F211E
:102580004FF0FF30FFF78EFF054B00229A60044B9F
:1025900007221A60002318460837BD4680BD00BFD9
:1025A00010E000E080B582B000AF78607868FFF797
:1025B00029FF00BF0837BD4680BD80B586B000AF9B
:1025C0000346B9607A60FB7300237B61FFF73EFF2F
:1025D00078617A68B9687869FFF78EFF024697F9E3
:1025E0000F3011461846FFF75DFF00BF1837BD4694
:1025F00080BD80B582B000AF0346FB7197F907300C
:102600001846FFF731FF00BF0837BD4680BD80B5D3
:1026100082B000AF78607868FFF7A2FF03461846E3
:102620000837BD4680BD000080B500AF0E4B1B686B
:102630000D4A43F4007313600B4B1B680A4A43F4C2
:1026400080631360084B1B68074A43F48073136070
:102650000320FFF7A7FF0F2000F008F802F0C2FAEE
:102660000023184680BD00BF003C024080B582B008
:1026700000AF7860124B1A68124B1B7819464FF462
:102680007A73B3FBF1F3B2FBF3F31846FFF7BFFF26
:102690000346002B01D001230EE07B680F2B0AD8E4
:1026A000002279684FF0FF30FFF787FF064A7B680A
:1026B0001360002300E0012318460837BD4680BDA3
:1026C00000000020080000200400002080B400AFBB
:1026D000064B1B781A46064B1B681344044A1360CA
:1026E00000BFBD465DF8047B704700BF08000020B6
:1026F0008800002080B400AF034B1B681846BD461D
:102700005DF8047B704700BF8800002080B584B06E
:1027100000AF7860FFF7EEFFB8607B68FB60FB6896
:10272000B3F1FF3F05D00A4B1B781A46FB681344F0
:10273000FB6000BFFFF7DEFF0246BB68D31AFA68F2
:102740009A42F7D800BF00BF1037BD4680BD00BF1A
:102750000800002080B582B000AF78607B68002B55
:1027600001D1012341E07B6893F83D30DBB2002BBF
:1027700006D17B68002283F83C20786802F09CF840
:102780007B68022283F83D207B681A687B680433EB
:102790001946104600F0CEFC7B68012283F84620E3
:1027A0007B68012283F83E207B68012283F83F206A
:1027B0007B68012283F840207B68012283F8412056
:1027C0007B68012283F842207B68012283F8432042
:1027D0007B68012283F844207B68012283F845202E
:1027E0007B68012283F83D20002318460837BD4648
:1027F00080BD000080B485B000AF78607B6893F83E
:102800003D30DBB2012B01D0012346E07B68022280
:1028100083F83D207B681B68234A934222D07B6863
:102820001B68B3F1804F1DD07B681B681F4A934221
:1028300018D07B681B681E4A934213D07B681B68C4
:102840001C4A93420ED07B681B681B4A934209D0F6
:102850007B681B68194A934204D07B681B68184A3E
:10286000934211D17B681B689B6803F00703FB60F0
:10287000FB68062B10D07B681B681A687B681B6896
:1028800042F001021A6007E07B681B681A687B68E7
:102890001B6842F001021A60002318461437BD4637
:1028A0005DF8047B704700BF000001400004004059
:1028B00000080040000C00400004014000400140BE
:1028C0000018004080B582B000AF78607B68002BB4
:1028D00001D1012341E07B6893F83D30DBB2002B4E
:1028E00006D17B68002283F83C20786800F039F834
:1028F0007B68022283F83D207B681A687B6804337A
:102900001946104600F016FC7B68012283F8462029
:102910007B68012283F83E207B68012283F83F20F8
:102920007B68012283F840207B68012283F84120E4
:102930007B68012283F842207B68012283F84320D0
:102940007B68012283F844207B68012283F84520BC
:102950007B68012283F83D20002318460837BD46D6
:1029600080BD80B483B000AF786000BF0C37BD4637
:102970005DF8047B7047000080B584B000AF7860DC
:1029800039600023FB733B68002B04D17B6893F80C
:102990003E30DBB213E03B68042B04D17B6893F834
:1029A0003F30DBB20BE03B68082B04D17B6893F827
:1029B0004030DBB203E07B6893F84130DBB2BB739D
:1029C0003B68002B04D17B6893F84230DBB213E004
:1029D0003B68042B04D17B6893F84330DBB20BE0F7
:1029E0003B68082B04D17B6893F84430DBB203E0EA
:1029F0007B6893F84530DBB27B73BB7B012B02D144
:102A00007B7B012B01D00123CCE03B68002B04D160
:102A10007B68022283F83E2013E03B68042B04D13C
:102A20007B68022283F83F200BE03B68082B04D12F
:102A30007B68022283F8402003E07B68022283F84F
:102A400041203B68002B04D17B68022283F842209E
:102A500013E03B68042B04D17B68022283F84320F7
:102A60000BE03B68082B04D17B68022283F84420EA
:102A700003E07B68022283F845203B680C2B41D899
:102A800001A252F823F000BFBD2A0008052B000860
:102A9000052B0008052B0008CF2A0008052B00088D
:102AA000052B0008052B0008E12A0008052B00086B
:102AB000052B0008052B0008F32A00087B681B681B
:102AC000DA687B681B6842F00202DA601DE07B680E
:102AD0001B68DA687B681B6842F00402DA6014E065
:102AE0007B681B68DA687B681B6842F00802DA6062
:102AF0000BE07B681B68DA687B681B6842F0100299
:102B0000DA6002E00123FB7300BFFB7B002B48D19E
:102B10007B681B6801223968184600F075FD7B68E8
:102B20001B68224A934222D07B681B68B3F1804F16
:102B30001DD07B681B681E4A934218D07B681B68B7
:102B40001C4A934213D07B681B681B4A93420ED0E9
:102B50007B681B68194A934209D07B681B68184A36
:102B6000934204D07B681B68164A934211D17B685C
:102B70001B689B6803F00703BB60BB68062B10D083
:102B80007B681B681A687B681B6842F001021A6048
:102B900007E07B681B681A687B681B6842F00102CB
:102BA0001A60FB7B18461037BD4680BD000001400F
:102BB0000004004000080040000C004000040140F8
:102BC000004001400018004080B584B000AF78603C
:102BD0007B681B68DB68FB607B681B681B69BB60EC
:102BE000BB6803F00203002B20D0FB6803F0020354
:102BF000002B1BD07B681B686FF002021A617B6898
:102C000001221A777B681B689B6903F00303002B82
:102C100003D0786801F01AFF05E0786800F06CFADC
:102C2000786800F073FA7B6800221A77BB6803F0BB
:102C30000403002B20D0FB6803F00403002B1BD0FF
:102C40007B681B686FF004021A617B6802221A77A6
:102C50007B681B689B6903F44073002B03D0786882
:102C600001F0F4FE05E0786800F046FA786800F0BC
:102C70004DFA7B6800221A77BB6803F00803002B2B
:102C800020D0FB6803F00803002B1BD07B681B6877
:102C90006FF008021A617B6804221A777B681B6850
:102CA000DB6903F00303002B03D0786801F0CEFE4C
:102CB00005E0786800F020FA786800F027FA7B6871
:102CC00000221A77BB6803F01003002B20D0FB68AA
:102CD00003F01003002B1BD07B681B686FF0100201
:102CE0001A617B6808221A777B681B68DB6903F42A
:102CF0004073002B03D0786801F0A8FE05E07868E7
:102D000000F0FAF9786800F001FA7B6800221A777F
:102D1000BB6803F00103002B0CD0FB6803F0010338
:102D2000002B07D07B681B686FF001021A6178687E
:102D300001F034FFBB6803F08003002B0CD0FB686C
:102D400003F08003002B07D07B681B686FF08002C4
:102D50001A61786800F004FDBB6803F04003002BA3
:102D60000CD0FB6803F04003002B07D07B681B6886
:102D70006FF040021A61786800F0D2F9BB6803F086
:102D80002003002B0CD0FB6803F02003002B07D09E
:102D90007B681B686FF020021A61786800F0D6FC2F
:102DA00000BF1037BD4680BD80B586B000AFF8606B
:102DB000B9607A600023FB75FB6893F83C30012B07
:102DC00001D1022388E0FB68012283F83C207B6864
:102DD000002B1BD1FB681868BB681968BB685A6870
:102DE000BB68DB6800F04CFAFB681B689A69FB68FB
:102DF0001B6822F00C029A61FB681B689969BB682A
:102E00009A68FB681B680A439A6160E07B68042B40
:102E10001CD1FB681868BB681968BB685A68BB6836
:102E2000DB6800F0D0FAFB681B689A69FB681B68D6
:102E300022F440629A61FB681B689969BB689B68D1
:102E40001A02FB681B680A439A6140E07B68082B02
:102E50001BD1FB681868BB681968BB685A68BB68F7
:102E6000DB6800F01DFBFB681B68DA69FB681B6808
:102E700022F00C02DA61FB681B68D969BB689A68AA
:102E8000FB681B680A43DA6121E07B680C2B1CD1CC
:102E9000FB681868BB681968BB685A68BB68DB6860
:102EA00000F03AFBFB681B68DA69FB681B6822F4D8
:102EB0004062DA61FB681B68D969BB689B681A02CB
:102EC000FB681B680A43DA6101E00123FB75FB68BC
:102ED000002283F83C20FB7D18461837BD4680BD94
:102EE00080B584B000AF786039600023FB737B68E5
:102EF00093F83C30012B01D10223B4E07B6801221E
:102F000083F83C207B68022283F83D207B681B68A5
:102F10009B68BB60BB6823F07703BB60BB6823F48E
:102F20007F43BB607B681B68BA689A603B681B681C
:102F3000B3F5005F3ED0B3F5005F00F28780B3F5D4
:102F4000805F00F08680B3F5805F7FD8702B1AD049
:102F5000702B7BD8602B50D0602B77D8502B3CD077
:102F6000502B73D8402B58D0402B6FD8302B64D0C7
:102F7000302B6BD8202B60D0202B67D8002B5CD057
:102F8000102B5AD062E07B6818683B6899683B68F0
:102F90005A683B68DB6800F017FB7B681B689B681E
:102FA000BB60BB6843F07703BB607B681B68BA6893
:102FB0009A604FE07B6818683B6899683B685A687C
:102FC0003B68DB6800F000FB7B681B689A687B68E5
:102FD0001B6842F480429A603CE07B6818683B685A
:102FE00059683B68DB681A4600F0BEF97B681B68CD
:102FF0005021184600F0CDFA2CE07B6818683B6839
:1030000059683B68DB681A4600F01AFA7B681B684F
:103010006021184600F0BDFA1CE07B6818683B6828
:1030200059683B68DB681A4600F09EF97B681B68AC
:103030004021184600F0ADFA0CE07B681A683B6846
:103040001B681946104600F0A4FA03E00123FB7345
:1030500000E000BF7B68012283F83D207B680022EE
:1030600083F83C20FB7B18461037BD4680BD00002E
:1030700080B485B000AF786039600023FB603B68A6
:103080000C2B31D801A252F823F000BFC130000848
:10309000E9300008E9300008E9300008CB300008CA
:1030A000E9300008E9300008E9300008D5300008B0
:1030B000E9300008E9300008E9300008DF30000896
:1030C0007B681B685B6BFB600FE07B681B689B6B1E
:1030D000FB600AE07B681B68DB6BFB6005E07B68DC
:1030E0001B681B6CFB6000E000BFFB6818461437D0
:1030F000BD465DF8047B704780B483B000AF786054
:1031000000BF0C37BD465DF8047B704780B483B0C8
:1031100000AF786000BF0C37BD465DF8047B704798
:1031200080B483B000AF786000BF0C37BD465DF857
:10313000047B704780B485B000AF786039607B68ED
:103140001B68FB607B68434A934213D07B68B3F1F2
:10315000804F0FD07B68404A93420BD07B683F4A38
:10316000934207D07B683E4A934203D07B683D4A36
:10317000934208D1FB6823F07003FB603B685B68F7
:10318000FA681343FB607B68324A93422BD07B681A
:10319000B3F1804F27D07B682F4A934223D07B68BE
:1031A0002E4A93421FD07B682D4A93421BD07B68E6
:1031B0002C4A934217D07B682B4A934213D07B68EA
:1031C0002A4A93420FD07B68294A93420BD07B68EE
:1031D000284A934207D07B68274A934203D07B68F2
:1031E000264A934208D1FB6823F44073FB603B6896
:1031F000DB68FA681343FB60FB6823F080023B68DE
:103200005B691343FB603B689A687B68DA623B68E2
:103210001A687B689A627B680E4A934203D07B6887
:10322000104A934203D13B681A697B681A637B6832
:103230001B6843F004027B681A607B6801225A61B4
:103240007B68FA681A6000BF1437BD465DF8047BDE
:10325000704700BF0000014000040040000800402B
:10326000000C0040000401400040014000440140C7
:103270000048014000180040001C004000200040B1
:1032800080B487B000AFF860B9607A603B60FB68DB
:103290001B6A3B61FB681B6A23F00102FB681A6230
:1032A000FB689B697B61FB68284A93421BD0FB68E3
:1032B000B3F1804F17D0FB68254A934213D0FB68C7
:1032C000244A93420FD0FB68234A93420BD0FB68F9
:1032D000224A934207D0FB68214A934203D0FB68FD
:1032E000204A934201D1012300E00023002B08D0A3
:1032F0007B6923F003037B617A697B6813437B61FD
:1033000003E07B6943F001037B617B6923F0F003F9
:103310007B613B681B01DBB27A6913437B613B69CC
:1033200023F00A033B61BB6803F00A033A691343C5
:103330003B61FB687A699A61FB683A691A6200BF6F
:103340001C37BD465DF8047B704700BF000001409C
:103350000004004000080040000C00400004014050
:10336000004001400018004080B487B000AFF86012
:10337000B9607A60FB681B6A7B61FB681B6A23F09B
:103380000102FB681A62FB689B693B613B6923F0A1
:10339000F0033B617B681B013A6913433B617B6926
:1033A00023F00A037B617A69BB6813437B61FB6886
:1033B0003A699A61FB687A691A6200BF1C37BD4698
:1033C0005DF8047B704780B487B000AFF860B960E7
:1033D0007A603B60FB681B6A7B61FB681B6A23F0B9
:1033E0001002FB681A62FB689B693B613B6923F42E
:1033F00040733B617B681B023A6913433B613B6945
:1034000023F470433B613B681B039BB23A6913434F
:103410003B617B6923F0A0037B61BB681B0103F068
:10342000A0037A6913437B61FB683A699A61FB6880
:103430007A691A6200BF1C37BD465DF8047B70478D
:1034400080B487B000AFF860B9607A60FB681B6A2F
:103450007B61FB681B6A23F01002FB681A62FB6841
:103460009B693B613B6923F470433B617B681B03B1
:103470003A6913433B617B6923F0A0037B61BB681E
:103480001B017A6913437B61FB683A699A61FB68A7
:103490007A691A6200BF1C37BD465DF8047B70472D
:1034A00080B487B000AFF860B9607A603B60FB68B9
:1034B0001B6A7B61FB681B6A23F48072FB681A62DB
:1034C000FB68DB693B613B6923F003033B613A69BD
:1034D0007B6813433B613B6923F0F0033B613B682E
:1034E0001B01DBB23A6913433B617B6923F4206320
:1034F0007B61BB681B0203F420637A6913437B6121
:10350000FB683A69DA61FB687A691A6200BF1C37A6
:10351000BD465DF8047B704780B487B000AFF860AB
:10352000B9607A603B60FB681B6A7B61FB681B6A61
:1035300023F48052FB681A62FB68DB693B613B69DC
:1035400023F440733B617B681B023A6913433B6180
:103550003B6923F470433B613B681B039BB23A69B0
:1035600013433B617B6923F420437B61BB681B03EE
:1035700003F420437A6913437B61FB683A69DA619B
:10358000FB687A691A6200BF1C37BD465DF8047B90
:10359000704780B485B000AF786039607B689B6805
:1035A000FB60FB6823F07003FB603A68FB68134321
:1035B00043F00703FB607B68FA689A6000BF14372A
:1035C000BD465DF8047B704780B487B000AFF860FB
:1035D000B9607A603B60FB689B687B617B6923F420
:1035E0007F437B613B681A027B681A43BB681343C5
:1035F0007A6913437B61FB687A699A6000BF1C3764
:10360000BD465DF8047B704780B487B000AFF860BA
:10361000B9607A60BB6803F01F03012202FA03F36A
:103620007B61FB681A6A7B69DB431A40FB681A629C
:10363000FB681A6ABB6803F01F03796801FA03F399
:103640001A43FB681A6200BF1C37BD465DF8047B55
:103650007047000080B485B000AF786039607B6847
:1036600093F83C30012B01D102235AE07B68012200
:1036700083F83C207B68022283F83D207B681B682E
:103680005B68FB607B681B689B68BB60FB6823F022
:103690007003FB603B681B68FA681343FB607B6840
:1036A0001B68FA685A607B681B68214A934222D0E3
:1036B0007B681B68B3F1804F1DD07B681B681D4A77
:1036C000934218D07B681B681B4A934213D07B68D7
:1036D0001B681A4A93420ED07B681B68184A9342B3
:1036E00009D07B681B68174A934204D07B681B682B
:1036F000154A93420CD1BB6823F08003BB603B6842
:103700005B68BA681343BB607B681B68BA689A60E1
:103710007B68012283F83D207B68002283F83C20EF
:10372000002318461437BD465DF8047B704700BF80
:10373000000001400004004000080040000C004070
:1037400000040140004001400018004080B483B0F4
:1037500000AF786000BF0C37BD465DF8047B704752
:1037600080B483B000AF786000BF0C37BD465DF811
:10377000047B704780B588B000AF78607B68002B11
:1037800001D1012328E17B6893F84130DBB2002BA3
:1037900009D17B68002283F840207B68904A5A63F5
:1037A000786801F025FE7B68022283F841207B685F
:1037B0001B68DB697A68126823F47B6323F00F03CC
:1037C000D3617B681B6802221A627B685B69022BEB
:1037D00060D07B68DB68002B02D110237B6101E0A5
:1037E00020237B617B689B68202B02D87B695B0070
:1037F0007B610120FEF70AF8F8607B681B69B3F56E
:10380000007F25D17B68DB68002B10D07B699B0093
:10381000FA68B2FBF3F213469B0013445B001A46AE
:103820007B685B69B2FBF3F305333B611FE07B69A7
:10383000DB00FA68B2FBF3F213469B0013445B0013
:103840001A467B685B69B2FBF3F305333B610EE01C
:10385000FA687B69B2FBF3F213469B0013445B00EA
:103860001A467B685B69B2FBF3F305333B613B6946
:103870005C4AA2FB0323DB083B613B6903F00103C5
:10388000BB613A69BB69D31A5B08FB61BB691B0268
:10389000BB6103E00223FB610023BB61FB69012BD9
:1038A00002D9FB69FF2B07D97B685B6C43F01002E0
:1038B0007B685A6401238FE07B681A69BB6942EA1E
:1038C00003017B681B68FA690A431A627B681B68FC
:1038D000DB6923F47B6323F00F037A6851687A680D
:1038E000926811437A68D26811437A6892690A43F0
:1038F0001A437B681B6842F40062DA617B681B6ACA
:10390000012B61D17B68384A5A637B681B68374A50
:10391000934201D1364B01E04FF04023DB697A68D6
:10392000126832498A4201D1314A01E04FF0402207
:1039300023F47B6323F00F03D3617B681B682B4A5E
:10394000934201D12A4B01E04FF0402302221A6238
:103950007B681B68254A934201D1254B01E04FF05B
:103960004023DB697B817B685B68B3F5007F03D014
:103970007B685B68002B03D14FF480733B6101E0EF
:1039800000233B613B699AB27B689B689BB21343FF
:103990009AB27B68DB689BB213439AB27B689B69DF
:1039A0009BB213439AB27B8913439BB243F40063E7
:1039B0007B817B681B680D4A934201D10C4B01E06F
:1039C0004FF040237A89DA617B6800225A647B6871
:1039D000012283F84120002318462037BD4680BDD0
:1039E000D13C0008CDCCCCCCE53D000800380040EF
:1039F0000034004080B586B000AFF860B96013466F
:103A0000FB80BB68002B02D0FB88002B01D1012377
:103A10008EE0FB6893F84030DBB2012B01D102232A
:103A200086E0FB68012283F84020FB6893F8413070
:103A3000DBB2012B05D0FB68002283F84020022373
:103A400076E0FB68032283F84120FB6800225A6479
:103A5000FB68BA685A62FB681B68DB6903F00703FE
:103A60007B617B69032B02D07B69052B0AD1FB8824
:103A70005B009AB2FB681A85FB885B009AB2FB6810
:103A80005A8505E0FB68FA881A85FB68FA885A852A
:103A9000FB689B6B284A1A64FB689B6B274ADA63B6
:103AA000FB689B6B264ADA64FB68986BFB685B6A71
:103AB0001946FB681B680C331A46FB681B8D9BB2CA
:103AC000FEF7DEF90346002B0FD0FB685B6C43F07A
:103AD0000802FB685A64FB68012283F84120FB68F6
:103AE000002283F84020012322E0FB681B68DB6989
:103AF00003F48063002B07D1FB681B68DA69FB685D
:103B00001B6842F48062DA61FB681B685B6803F043
:103B10000203002B07D1FB681B685A68FB681B680F
:103B200042F002025A60FB68002283F84020002322
:103B300018461837BD4680BDAF3B00086D3B0008F6
:103B4000CB3B000880B483B000AF786000BF0C3777
:103B5000BD465DF8047B704780B483B000AF7860E9
:103B600000BF0C37BD465DF8047B704780B584B05C
:103B700000AF78607B689B6BFB607B68DB69002B28
:103B80000ED1FB681B685A68FB681B6822F00202B2
:103B90005A60FB6800225A85FB68012283F84120A5
:103BA000F86801F0EBFC00BF1037BD4680BD80B562
:103BB00084B000AF78607B689B6BFB60F86801F0B5
:103BC000C7FC00BF1037BD4680BD80B584B000AFD4
:103BD00078607B689B6BFB60FB681B685A68FB68BE
:103BE0001B6822F003025A60FB6800225A85FB68BA
:103BF00000225A86FB68012283F84120FB685B6C37
:103C000043F00802FB685A64F868FFF7A5FF00BF9D
:103C10001037BD4680BD80B582B000AF78607B684C
:103C20005B6A1A887B681B68DA607B685B6A9A1C2F
:103C30007B685A627B685B8D9BB2013B9AB27B6862
:103C40005A857B685B8D9BB2002B0ED17B681B680D
:103C50005A687B681B6822F0A0025A607B680122C8
:103C600083F84120786801F089FC00BF0837BD4621
:103C700080BD80B582B000AF78607B681B68DA6871
:103C80007B68DB6A92B21A807B68DB6A9A1C7B686D
:103C9000DA627B685B8E9BB2013B9AB27B685A8684
:103CA0007B685B8E9BB2002B0ED17B681B685A68C9
:103CB0007B681B6822F060025A607B68012283F8EF
:103CC00041207868FFF73EFF00BF0837BD4680BD42
:103CD00080B586B000AF78607B681B689B687B61AD
:103CE0007B6893F84130DBB2042B3AD17B6903F057
:103CF0000103012B09D17B681B685B6803F040035B
:103D0000402B02D17868FFF7B4FF7B6903F04003D2
:103D1000402B26D17B681B685B6803F02003202BB7
:103D20001FD17B681B685A687B681B6822F06002A1
:103D30005A6000233B617B681B68DB683B617B68E2
:103D40001B689B683B613B697B68012283F84120CB
:103D50007B685B6C43F002027B685A647868FFF70B
:103D6000FBFE7B6893F84130DBB2032B36D17B69D5
:103D700003F00203022B09D17B681B685B6803F028
:103D80008003802B02D17868FFF745FF7B6903F041
:103D90000803082B22D17B681B685B6803F02003B3
:103DA000202B1BD17B681B685A687B681B6822F03C
:103DB000A0025A600023FB607B681B689B68FB6065
:103DC000FB687B68012283F841207B685B6C43F0D1
:103DD00004027B685A647868FFF7BEFE00BF18379C
:103DE000BD4680BD80B588B000AF78607B681B6839
:103DF0009B68FB617B681B68924A934201D1924B9E
:103E000001E04FF040239B68BB617B681B685B68E7
:103E10007B617B681B688B4A934201D18A4B01E02E
:103E20004FF040235B683B617B685B68B3F5007FC4
:103E300004D07B685B68002B40F09980FB6903F03D
:103E40000203022B07D17B6903F08003002B02D011
:103E5000786800F025F9BB6903F00103012B07D155
:103E60003B6903F04003002B02D0786800F0C8F9EA
:103E7000BB6903F04003402B3AD13B6903F02003B8
:103E8000002B35D07B681B686E4A934201D16E4B84
:103E900001E04FF040235A687B681B6869498B42F8
:103EA00001D1694B01E04FF0402322F060025A60DB
:103EB0007B681B685A687B681B6822F0A0025A6006
:103EC0000023FB607B681B68DB68FB607B681B680A
:103ED0009B68FB60FB687B68012283F841207B685C
:103EE0005B6C43F002027B685A647868FFF734FE2B
:103EF000FB6903F00803082B40F0C3807B6903F0E3
:103F00002003002B00F0BD807B681B685A687B682B
:103F10001B6822F0A0025A607B681B68494A9342E2
:103F200001D1494B01E04FF040235A687B681B6880
:103F300044498B4201D1444B01E04FF0402322F031
:103F400060025A600023BB607B681B689B68BB6093
:103F5000BB687B68012283F841207B685B6C43F07F
:103F600004027B685A647868FFF7F6FD89E0BB6954
:103F700003F00203022B07D13B6903F08003002BFF
:103F800002D0786800F0BEF8FB6903F00103012B52
:103F900007D17B6903F04003002B02D0786800F062
:103FA000FDF8FB6903F04003402B2FD17B6903F040
:103FB0002003002B2AD07B681B685A687B681B682B
:103FC00022F060025A607B681B681E4A934201D14E
:103FD0001D4B01E04FF040235A687B681B6819496C
:103FE0008B4201D1184B01E04FF0402322F0A00298
:103FF0005A607B68012283F841207B685B6C43F048
:1040000002027B685A647868FFF7A6FDBB6903F07B
:104010000803082B36D13B6903F02003002B31D075
:104020007B681B68074A934201D1074B01E04FF0C0
:1040300040235A687B681B6802498B4206D1024BB9
:1040400006E000BF00380040003400404FF040233D
:1040500022F0A0025A607B681B685A687B681B6864
:1040600022F060025A607B68012283F841207B685D
:104070005B6C43F004027B685A647868FFF76CFD60
:1040800000E000BF00BF2037BD4680BD80B483B0D4
:1040900000AF786000BF0C37BD465DF8047B704709
:1040A00080B582B000AF78607B685B6A991C7A68E3
:1040B00051621A887B681B68DA607B685B8D9BB2F3
:1040C000013B9AB27B685A857B685B8D9BB2002B63
:1040D00013D17B681B685A687B681B6822F0A002BA
:1040E0005A607B685B8E9BB2002B06D17B680122F5
:1040F00083F841207868FFF7C9FF00BF0837BD4645
:1041000080BD000080B582B000AF78607B685B6ADC
:10411000991C7A68516219887B681B681D4A934212
:1041200001D11D4B01E04FF040230A46DA607B6865
:104130005B8D9BB2013B9AB27B685A857B685B8D35
:104140009BB2002B21D17B681B68124A934201D19C
:10415000114B01E04FF040235A687B681B680D4902
:104160008B4201D10C4B01E04FF0402322F0A00222
:104170005A607B685B8E9BB2002B06D17B68012264
:1041800083F841207868FFF781FF00BF0837BD46FC
:1041900080BD00BF003800400034004080B582B0D0
:1041A00000AF78607B681B68D8687B68DB6A991C05
:1041B0007A68D16282B21A807B685B8E9BB2013BC7
:1041C0009AB27B685A867B685B8E9BB2002B13D1B8
:1041D0007B681B685A687B681B6822F060025A6023
:1041E0007B685B8D9BB2002B06D17B68012283F834
:1041F00041207868FFF74AFF00BF0837BD4680BD01
:1042000080B582B000AF78607B681B68204A93421B
:1042100001D1204B01E04FF04023D8687B68DB6A76
:10422000991C7A68D16282B21A807B685B8E9BB2DD
:10423000013B9AB27B685A867B685B8E9BB2002BEF
:1042400021D17B681B68124A934201D1114B01E0D6
:104250004FF040235A687B681B680D498B4201D19F
:104260000C4B01E04FF0402322F060025A607B6863
:104270005B8D9BB2002B06D17B68012283F8412025
:104280007868FFF703FF00BF0837BD4680BD00BF59
:10429000003800400034004080B500AFFEF7C4F99C
:1042A00000F026F800F094F800F050F900F0B6FAAB
:1042B00000F040FA0C48FEF79DFA00210B48FEF78B
:1042C0005BFB0A4B1B68DA68084B1B6842F0010273
:1042D000DA6000F0F5FF05F08DFE01F055F805F00D
:1042E000A1FE00BFF9E700BF28010020E000002088
:1042F00080B594B000AF07F12003302200211846AA
:1043000006F00AF907F10C0300221A605A609A605D
:10431000DA601A610023BB60284B1B6C274A43F00C
:1043200080531364254B1B6C03F08053BB60BB6848
:1043300000237B60224B1B68214A43F480431360B7
:104340001F4B1B6803F480437B607B6802233B6246
:104350000123FB6210233B630223BB630023FB6347
:1043600008233B64A8237B640223BB640423FB640F
:1043700007F120031846FCF745FD0346002B01D04A
:1043800000F020F80F23FB6002233B6100237B61D8
:104390004FF4A053BB614FF48053FB6107F10C0352
:1043A00005211846FCF7A6FF0346002B01D000F0BC
:1043B00009F800BF5037BD4680BD00BF003802403D
:1043C0000070004080B400AF72B600BF00BFFDE7D0
:1043D00080B58CB000AF07F11C0300221A605A6050
:1043E0009A60DA601A610023BB61534B1B6B524A1F
:1043F00043F010031363504B1B6B03F01003BB61BE
:10440000BB6900237B614C4B1B6B4B4A43F0200381
:104410001363494B1B6B03F020037B617B69002313
:104420003B61454B1B6B444A43F080031363424B93
:104430001B6B03F080033B613B690023FB603E4B39
:104440001B6B3D4A43F0010313633B4B1B6B03F0B3
:104450000103FB60FB680023BB60374B1B6B364AD4
:1044600043F040031363344B1B6B03F04003BB600A
:10447000BB6800237B60304B1B6B2F4A43F0020369
:1044800013632D4B1B6B03F002037B607B680023DF
:104490003B60294B1B6B284A43F008031363264BF0
:1044A0001B6B03F008033B603B6800224FF4E061A4
:1044B0002248FDF7BFFB01224FF400412048FDF7E1
:1044C000B9FB1C23FB6100233B6201237B6207F1E4
:1044D0001C0319461B48FDF7F9F94FF4E063FB6133
:1044E00001233B6200237B620023BB6207F11C03B4
:1044F00019461248FDF7EAF90123FB6100233B62EC
:1045000002237B6207F11C0319460F48FDF7DEF911
:104510004FF40043FB6101233B6200237B620023D5
:10452000BB6207F11C0319460548FDF7CFF900BF30
:104530003037BD4680BD00BF003802400014024045
:1045400000040240001002400000024080B58EB01E
:1045500000AF07F11C0300221A605A609A60DA600B
:104560001A615A619A613B4600221A605A609A6049
:10457000DA601A615A619A612F4B4FF020421A603B
:104580002D4B2E4A5A602C4B06229A602A4B002251
:10459000DA60294B00221A61274B10225A61264B00
:1045A00000229A61244B0022DA61234B00221A6216
:1045B000214B00225A62204B4FF480529A621E4BCC
:1045C0000022DA621C4B4FF480421A631A4B00221D
:1045D0005A63194B00229A63174B00225A640F2327
:1045E000FB610F233B623C237B620023BB621023F1
:1045F000FB6211233B6300237B6303233B600F2398
:104600007B600323BB600F23FB6010233B611123FE
:104610007B610023BB613A4607F11C03194606483B
:10462000FCF7A8FB0346002B01D0FFF7CBFE00BF31
:104630003837BD4680BD00BF8C000020040100A0BB
:1046400080B586B000AF3B1D00221A605A609A60A8
:10465000DA601A612C4B1B68002B51D12A4B0122C6
:104660001A6000233B60294B9B6B284A43F00103EF
:104670009363264B9B6B03F001033B603B684FF257
:104680003F037B600223BB600023FB6003233B618D
:104690000C237B613B1D19461D48FDF717F941F2BC
:1046A0003F037B600223BB600023FB6003233B616D
:1046B0000C237B613B1D19461648FDF707F94FF6A1
:1046C00080737B600223BB600023FB6003233B619C
:1046D0000C237B613B1D19460F48FDF7F7F84CF2A0
:1046E00033737B600223BB600023FB6003233B61C9
:1046F0000C237B613B1D19460848FDF7E7F800E0F5
:1047000000BF1837BD4680BDDC00002000380240E5
:10471000001402400018024000100240000C024049
:1047200080B582B000AF7860FFF78AFF00BF08371E
:10473000BD4680BD80B58AB000AF07F118030022E6
:104740001A605A609A60DA6007F1100300221A605A
:104750005A603B4600221A605A609A60DA602D4B1C
:104760002D4A1A602B4BA7225A602A4B00229A60CE
:10477000284B42F21072DA60264B00221A61254B58
:1047800000225A61234B00229A612248FDF7E2FF82
:104790000346002B01D0FFF715FE4FF48053BB6199
:1047A00007F1180319461B48FEF79AFB0346002B36
:1047B00001D0FFF707FE1748FEF784F80346002BE9
:1047C00001D0FFF7FFFD00233B6100237B6107F170
:1047D000100319460F48FEF73DFF0346002B01D09A
:1047E000FFF7F0FD00233B6001237B600023BB60EB
:1047F0000023FB603B46002219460648FEF7D4FA28
:104800000346002B01D0FFF7DDFD00BF2837BD4672
:1048100080BD00BFE00000200000014080B586B0F0
:1048200000AF07F1080300221A605A609A60DA604C
:104830003B4600221A605A601D4B1E4A1A601C4BF0
:1048400053225A601A4B00229A60194B4FF6FF729E
:10485000DA60174B00221A61154B00229A61144846
:10486000FDF778FF0346002B01D0FFF7ABFD4FF4B7
:104870008053BB6007F1080319460D48FEF730FB73
:104880000346002B01D0FFF79DFD00233B60002372
:104890007B603B4619460648FEF7DCFE0346002BCC
:1048A00001D0FFF78FFD00BF1837BD4680BD00BFA8
:1048B000280100200004004080B58AB000AF786075
:1048C00007F1140300221A605A609A60DA601A61D4
:1048D0007B681B682F4A93423DD100233B612E4BDE
:1048E0005B6C2D4A43F0010353642B4B5B6C03F06C
:1048F00001033B613B690023FB60274B1B6B264A8E
:1049000043F001031363244B1B6B03F00103FB60B3
:10491000FB684FF480737B610223BB610023FB6162
:1049200000233B6201237B6207F1140319461B48F5
:10493000FCF7CCFF002201211920FDF73EFE1920D3
:10494000FDF757FE002201211B20FDF736FE1B203C
:10495000FDF74FFE1AE07B681B68114A934215D1A0
:104960000023BB600C4B1B6C0B4A43F00203136427
:10497000094B1B6C03F00203BB60BB6800220021E3
:104980001D20FDF71AFE1D20FDF733FE00BF28375E
:10499000BD4680BD000001400038024000000240DA
:1049A0000004004080B400AF00BFFDE780B400AF5A
:1049B00000BFFDE780B400AF00BFFDE780B400AFEB
:1049C00000BFFDE780B400AF00BFFDE780B400AFDB
:1049D00000BFBD465DF8047B704780B400AF00BFE8
:1049E000BD465DF8047B704780B400AF00BFBD4694
:1049F0005DF8047B704780B500AFFDF767FE00BF30
:104A000080BD000080B500AF0248FEF7DDF800BFB2
:104A100080BD00BFE000002080B500AF0248FEF777
:104A2000D3F800BF80BD00BFE000002080B500AF1C
:104A30000248FEF7C9F800BF80BD00BF2801002072
:104A400080B500AF00F0CAFC00BF80BD80B582B069
:104A500000AF78607B681B68494A934240F08B80C6
:104A60007B681B7F012B40F08680464B1B78DBB2B6
:104A7000002B17D17B681B6800225A627B681B6879
:104A80001A6A7B681B6822F00A021A627B681B683C
:104A90001A6A7B681B6842F002021A62394B0122D3
:104AA0001A7068E000217868FEF7E2FA0346364A99
:104AB00013607B681B681A6A7B681B6822F00A0215
:104AC0001A627B681A687B681B68126A1A622D4B2F
:104AD00000221A702C4B1B68B3F57A6F0CD92A4B45
:104AE0001B6841F28732934206D8284B00221A6095
:104AF000274B00221A702FE0234B1B6840F2145200
:104B0000934213D9204B1B68B3F5FA6F0ED21F4B9B
:104B10001B685B0043F001031C4A13601C4B1B78AD
:104B2000DBB20133DAB21A4B1A7015E0164B1B6870
:104B3000B3F5967F10D9144B1B68B3F5487F0BD2A1
:104B4000124B1B685B00114A1360114B1B78DBB2E0
:104B50000133DAB20E4B1A700D4B1B78DBB21F2BF0
:104B600009D90A4B1B680B4A13600B4B01221A70C0
:104B7000074B00221A7000BF0837BD4680BD00BF3A
:104B80000000014070010020740100207801002025
:104B90007C010020800100207D01002080B483B0D2
:104BA00000AF78607B681B680C4A934210D10C4BB5
:104BB00000221A707B681B681A6A7B681B6822F0E7
:104BC0000A021A627B681A687B681B68126A1A629A
:104BD00000BF0C37BD465DF8047B70470000014004
:104BE0007001002080B483B000AF00237B60104BC5
:104BF0005B6C0F4A43F4804353640D4B5B6C03F4CE
:104C000080437B607B6800233B60094B1B6C084A38
:104C100043F080531364064B1B6C03F080533B60DE
:104C20003B6800BF0C37BD465DF8047B704700BF92
:104C30000038024080B586B000AF7860144A154B4A
:104C4000D31A7B617B693B61134B1B68002B02D13C
:104C5000114B124A1A60104B1A687B6813443A6968
:104C60009A4207D205F0A6FC03460C221A604FF0C8
:104C7000FF3309E0084B1B68FB60074B1A687B6831
:104C80001344054A1360FB6818461837BD4680BDBB
:104C9000000002200004000084010020900C00208D
:104CA00080B400AF01231846BD465DF8047B704711
:104CB00080B582B000AF7860396005F07BFC0346B8
:104CC00016221A604FF0FF3318460837BD4680BDE4
:104CD00080B582B000AF78604FF0FF317868FFF7A1
:104CE000E7FF00BFFDE780B586B000AFF860B960B0
:104CF0007A6000237B610AE0AFF300800146BB6865
:104D00005A1CBA60CAB21A707B6901337B617A6936
:104D10007B689A42F0DB7B6818461837BD4680BD39
:104D200080B586B000AFF860B9607A6000237B611F
:104D300009E0BB685A1CBA601B781846AFF30080C4
:104D40007B6901337B617A697B689A42F1DB7B681E
:104D500018461837BD4680BD80B483B000AF786078
:104D60004FF0FF3318460C37BD465DF8047B7047A3
:104D700080B483B000AF786039603B684FF4005274
:104D80005A60002318460C37BD465DF8047B704717
:104D900080B483B000AF7860012318460C37BD465D
:104DA0005DF8047B704780B485B000AFF860B960EF
:104DB0007A60002318461437BD465DF8047B7047BF
:104DC000DFF834D0FBF7F4FE0C480D490D4A002300
:104DD00002E0D458C4500433C4188C42F9D30A4AB0
:104DE0000A4C002301E013600432A242FBD305F019
:104DF000E7FBFFF751FA7047000002200000002097
:104E00006C00002008AE0B086C0000208C0C002009
:104E1000FEE780B483B000AF00237B6003E000BFF7
:104E20007B6801337B607B683B2BF8D900BF00BFF8
:104E30000C37BD465DF8047B7047000080B586B036
:104E400000AF3B1D00221A605A609A60DA601A6156
:104E50004FF400737B601123BB600123FB600323CD
:104E60003B613B1D19460348FCF730FD00BF183776
:104E7000BD4680BD0004024080B586B000AF3B1D3A
:104E800000221A605A609A60DA601A614FF4007367
:104E90007B600023BB600123FB6003233B613B1D60
:104EA00019460348FCF712FD00BF1837BD4680BD08
:104EB0000004024080B586B000AF3B1D00221A609E
:104EC0005A609A60DA601A6100233B60144B1B6BD6
:104ED000134A43F002031363114B1B6B03F00203ED
:104EE0003B603B684FF440737B601123BB60012340
:104EF000FB6003233B613B1D19460A48FCF7E6FCB7
:104F000001224FF480710748FCF794FE01224FF410
:104F100000710448FCF78EFE00BF1837BD4680BD07
:104F2000003802400004024080B500AFFFF786FF62
:104F300001224FF400710D48FCF77CFE01224FF472
:104F400080710A48FCF776FEFFF763FF00224FF4FA
:104F500000710648FCF76EFEFFF75BFF00224FF47E
:104F600080710248FCF766FE00BF80BD000402406D
:104F700080B500AFFFF762FF00224FF480710E484A
:104F8000FCF758FE00224FF400710B48FCF752FE6C
:104F9000FFF73FFF01224FF480710748FCF74AFEFC
:104FA000FFF737FF01224FF400710348FCF742FE80
:104FB000FFF72FFF00BF80BD0004024080B582B024
:104FC00000AFFFF759FF01224FF480710E48FCF744
:104FD00031FEFFF71EFF4FF400710B48FCF712FE85
:104FE0000346002B0CBF01230023DBB2FB71002220
:104FF0004FF480710448FCF71DFEFFF71FFFFB799B
:1050000018460837BD4680BD0004024080B584B014
:1050100000AF0346FB71FFF711FF0023FB731EE097
:10502000FB79DB09DBB21A464FF400711148FCF73B
:1050300001FEFB795B00FB71FFF7EBFE01224FF4F1
:1050400080710C48FCF7F6FDFFF7E3FE00224FF4F9
:1050500080710848FCF7EEFDFB7B0133FB73FB7BA3
:10506000072BDDD9FFF7AAFF034618461037BD46C8
:1050700080BD00BF0004024080B584B000AF03468D
:105080000A46FB711346BB71FFF74EFF2020FFF766
:10509000BDFF0346FB73FB791846FFF7B7FF0346D6
:1050A0001A46FB7B1340FB73BB791846FFF7AEFF34
:1050B00003461A46FB7B1340FB73FFF759FFFB7B4C
:1050C000002B0CBF01230023DBB218461037BD466E
:1050D00080BD80B582B000AF0346FB71FB79212B08
:1050E00001D92123FB71FB7919462E20FFF7C4FF5C
:1050F000FB7919462F20FFF7BFFFFB7919463020B7
:10510000FFF7BAFFFB7919463120FFF7B5FF00BF63
:105110000837BD4680BD80B500AFFFF7CBFE8021CC
:105120000020FFF7A9FF00210020FFF7A5FF642062
:10513000FDF7ECFA58210120FFF79EFF50210120D6
:10514000FFF79AFFF3210220FFF796FFF0210220DC
:10515000FFF792FF09210320FFF78EFF06210020B1
:10516000FFF78AFF00210420FFF786FF00210820B7
:10517000FFF782FF80212B20FFF77EFF18211720E9
:10518000FFF77AFF02211820FFF776FF00211A208F
:10519000FFF772FF00211B20FFF76EFFB8212720C9
:1051A000FFF76AFFB8212A20FFF766FF0A210220D5
:1051B000FFF762FF3C210420FFF75EFF0820FFF7A6
:1051C00088FF00BF80BD000080B483B000AF0C4BEF
:1051D0001B685A1C0A490A600A4A32F81330FB80DD
:1051E000074B1B68084A934202D9054B00221A60FC
:1051F000B7F9063018460C37BD465DF8047B70479A
:10520000340A002038B30008DB70050080B584B094
:1052100000AF786039600023FB6029E0194B1B78F0
:10522000DBB2002B03D0FFF7CFFF034600E00023E3
:105230007B81B7F90A30144A127802FB03F31A464D
:1052400013465B001344114AA2FB03239B097B8195
:10525000FB685B007A6813447A891A80FB68013323
:105260005B007A6813447A891A80FB680233FB601A
:10527000FA683B689A42D1D300BF00BF1037BD46E1
:1052800080BD00BF300A002009000020D34D62100D
:1052900080B584B000AF3B4600221A605A609A6025
:1052A000DA6001233B60C0237B600523BB603B4683
:1052B0001846FCF7C9F900BF1037BD4680BD000095
:1052C00080B500AFFFF7E4FFFFF725FF4FF48061E3
:1052D0001848FFF79BFF184B184A1A60164B4FF4FB
:1052E00000725A60144B00229A60134B0022DA605D
:1052F000114B4FF400721A610F4B4FF4FA525A617E
:105300000D4B00229A610C4B0022DA610A4B0022FD
:105310001A620948FEF72EFA0346002B08D14FF413
:10532000806204490448FEF765FB00F021F800E0C4
:1053300000BF80BD300200208801002000380040FE
:1053400080B400AF084B1B78DBB2002B06D1074BB3
:1053500000221A60044B01221A7000E000BFBD4613
:105360005DF8047B704700BF300A0020340A00203B
:1053700080B400AF034B00221A7000BFBD465DF839
:10538000047B7047300A002080B400AF00BFBD46E8
:105390005DF8047B7047000080B483B000AF034623
:1053A000FB71FB790A2B01D90A23FB71044AFB79B3
:1053B000137000BF0C37BD465DF8047B704700BF1B
:1053C0000900002080B400AF034B1B781846BD468F
:1053D0005DF8047B704700BF0900002080B500AF76
:1053E0000248FCF7A5FD00BF80BD00BFD001002032
:1053F00080B58CB000AF786007F11C0300221A6002
:105400005A609A60DA601A617B681B684A4A934264
:1054100040F08C800023BB61484B1B6C474A43F42F
:1054200080431364454B1B6C03F48043BB61BB6931
:1054300000237B61414B1B6B404A43F00203136323
:105440003E4B1B6B03F002037B617B6900233B61D6
:105450003A4B1B6B394A43F004031363374B1B6B06
:1054600003F004033B613B690023FB60334B1B6B80
:10547000324A43F400131363304B1B6B03F40013E5
:10548000FB60FB684FF44053FB6102233B62012346
:105490007B620323BB620523FB6207F11C031946F1
:1054A0002748FCF713FA4823FB6107F11C03194650
:1054B0002448FCF70BFA244B244A1A60224B0022A2
:1054C0005A60214B40229A601F4B0022DA601E4B2B
:1054D0004FF480621A611C4B4FF400625A611A4B00
:1054E0004FF400529A61184B4FF48072DA61164BF8
:1054F0004FF400321A62144B00225A621248FCF731
:1055000061FC1148FCF7B0FB0346002B10D17B680F
:105510000D4A9A630C4A7B689363002201210F2095
:10552000FDF74BF80F20FDF764F802E000BF00E044
:1055300000BF3037BD4680BD003800400038024013
:105540000004024000080240D001002070600240C8
:1055500080B582B000AF78607B681B68054A9342D3
:1055600004D14FF400710448FFF750FE00BF083724
:10557000BD4680BD003800403002002080B582B0BA
:1055800000AF78607B681B68054A934204D14FF4F2
:1055900000710448FFF73AFE00BF0837BD4680BDE2
:1055A000003800403006002080B483B000AF0346CE
:1055B000FB80FB889BB2FB80044BFA8892B21A8076
:1055C00000BF0C37BD465DF8047B70477E00006C61
:1055D00080B483B000AF0346FB80FB889BB2FB80A6
:1055E000044BFA8892B25A8000BF0C37BD465DF872
:1055F000047B70477E00006C80B483B000AF064B24
:105600005B889BB2FB80FB889BB218460C37BD467B
:105610005DF8047B704700BF7E00006C80B483B0EF
:1056200000AF03460A46FB801346BB80054AFB8851
:105630001380044ABB88538000BF0C37BD465DF819
:10564000047B70477E00006C80B400AF044B054AB9
:1056500012891A8000BFBD465DF8047B704700BF09
:105660007E00006C3C0A002080B582B000AF03468B
:105670000A46FB801346BB80654B9B8841F663124C
:10568000934267D1624B9B79002B1ED1604B1A88E5
:10569000FB88D31A9BB2013BFB805D4B5B891846AC
:1056A000FFF782FF0020FFF793FF0020FFF790FF36
:1056B000FB881B0A9BB21846FFF78AFFFB88DBB208
:1056C0009BB21846FFF784FF21E0514B5B891846D7
:1056D000FFF76AFFFB881B0A9BB21846FFF778FFAB
:1056E000FB88DBB29BB21846FFF772FF484B1B8862
:1056F000013B1B129BB21846FFF76AFF444B1B8805
:10570000013B9BB2DBB29BB21846FFF761FF404BF7
:105710009B891846FFF748FFBB881B0A9BB21846B7
:10572000FFF756FFBB88DBB29BB21846FFF750FF6E
:10573000374B5B88013B1B129BB21846FFF748FFB3
:10574000334B5B88013B9BB2DBB29BB21846FFF741
:105750003FFF58E02E4B9B8845F21052934230D1C8
:105760002B4B5B891846FFF71FFFFB881B0A9BB278
:105770001846FFF72DFF264B5B8901339BB2184675
:10578000FFF712FFFB88DBB29BB21846FFF720FF42
:105790001F4B9B891846FFF707FFBB881B0A9BB26C
:1057A0001846FFF715FF1A4B9B8901339BB2184629
:1057B000FFF7FAFEBB88DBB29BB21846FFF708FF83
:1057C00021E0134B5B891846FFF7EEFEFB881B0AAE
:1057D0009BB21846FFF7FCFEFB88DBB29BB2184673
:1057E000FFF7F6FE0A4B9B891846FFF7DDFEBB88E4
:1057F0001B0A9BB21846FFF7EBFEBB88DBB29BB2DD
:105800001846FFF7E5FE00BF0837BD4680BD00BF64
:105810003C0A002080B584B000AF0346FB71002332
:10582000FB810023BB81994B9B79012B05D1974BC1
:105830009B8841F66312934209D1944B9B79002BCC
:1058400034D1924B9B8841F6631293422ED1FB795F
:10585000072B2BD801A252F823F000BF7D58000877
:1058600083580008895800088F5800089558000888
:105870009B580008A1580008A75800080623FB7190
:1058800014E00723FB7111E00423FB710EE00523F4
:10589000FB710BE00123FB7108E00023FB7105E0C5
:1058A0000323FB7102E00223FB7100BFFB79072B8E
:1058B00035D801A252F823F01F590008D958000822
:1058C000E3580008ED580008F7580008015900088F
:1058D0000B59000815590008FB8943F08003FB8130
:1058E0001DE0FB8943F04003FB8118E0FB8943F096
:1058F000C003FB8113E0FB8943F02003FB810EE032
:10590000FB8943F06003FB8109E0FB8943F0A003BE
:10591000FB8104E0FB8943F0E003FB8100BF5B4BAC
:105920009B8845F21052934203D14FF45853BB81E8
:1059300001E03623BB81554B9B8849F241329342AB
:1059400005D0524B9B8847F28972934203D1FB8961
:1059500043F00803FB81FA89BB8911461846FFF71B
:105960005DFE4A4B9B8841F66312934225D0FB892A
:1059700003F02003002B10D0444B1A88434B5B8864
:105980009A421AD2414B1B887B81404B5A883F4B2D
:105990001A803E4A7B8953800FE03C4B1A883B4B70
:1059A0005B889A4209D9394B1B887B81374B5A88CF
:1059B000364B1A80354A7B895380344B9B8845F29D
:1059C0001052934264D1314B5B891846FFF7ECFDCE
:1059D0000020FFF7FDFD2D4B5B8901339BB218467C
:1059E000FFF7E2FD0020FFF7F3FD284B5B89023350
:1059F0009BB21846FFF7D8FD244B1B88013B1B12B6
:105A00009BB21846FFF7E4FD204B5B8903339BB242
:105A10001846FFF7C9FD1D4B1B88013B9BB2DBB24B
:105A20009BB21846FFF7D4FD184B9B891846FFF729
:105A3000BBFD0020FFF7CCFD144B9B8901339BB2CB
:105A40001846FFF7B1FD0020FFF7C2FD0F4B9B8901
:105A500002339BB21846FFF7A7FD0C4B5B88013B56
:105A60001B129BB21846FFF7B3FD084B9B8903330B
:105A70009BB21846FFF798FD044B5B88013B9BB235
:105A8000DBB29BB21846FFF7A3FD39E03C0A0020C9
:105A90001D4B5B891846FFF787FD0020FFF798FD37
:105AA0000020FFF795FD184B1B88013B1B129BB292
:105AB0001846FFF78DFD144B1B88013B9BB2DBB2F0
:105AC0009BB21846FFF784FD0F4B9B891846FFF7E2
:105AD0006BFD0020FFF77CFD0020FFF779FD0A4BEE
