:020000040800F2
:100000000000022019550008FD50000805510008A5
:100010000D510008155100081D5100080000000096
:100020000000000000000000000000002551000852
:100030003351000800000000415100084F510008F2
:100040006955000869550008695500086955000898
:100050006955000869550008695500086955000888
:100060006955000869550008695500086955000878
:10007000695500086955000869550008995100083C
:100080006955000869550008695500086955000858
:100090006955000869550008695500086955000848
:1000A000695500085D510008695500087151000844
:1000B0006955000885510008695500086955000810
:1000C0006955000869550008695500086955000818
:1000D0006955000869550008695500086955000808
:1000E00069550008695500086955000869550008F8
:1000F00069550008695500086955000869550008E8
:1001000069550008695500086955000869550008D7
:1001100069550008695500086955000869550008C7
:1001200069550008695500086955000869550008B7
:1001300069550008695500086955000869550008A7
:100140006955000869550008695500086955000897
:100150006955000869550008695500086955000887
:100160006955000869550008695500086955000877
:10017000695500086955000869550008000000002D
:080180006955000869550008EB
:1001900010B5054C237833B9044B13B10448AFF3C1
:1001A00000800123237010BD6C00002000000000BF
:1001B0000CDA000808B5034B1BB103490348AFF341
:1001C000008008BD00000000700000200CDA00086C
:1001D00070B54FF0FF0C4CF4E06C1CEA11541DBFDD
:1001E0001CEA135594EA0C0F95EA0C0F00F0DEF8A8
:1001F0002C4481EA030621EA4C5123EA4C5350EA8D
:10020000013518BF52EA033541F4801143F48013DD
:1002100038D0A0FB02CE4FF00005E1FB02E506F06E
:100220000042E0FB03E54FF00006E1FB03569CF0C3
:10023000000F18BF4EF0010EA4F1FF04B6F5007FC9
:1002400064F5407404D25FEA4E0E6D4146EB06063B
:1002500042EAC62141EA55514FEAC52040EA5E50C4
:100260004FEACE2EB4F1FD0C88BFBCF5E06F1ED86E
:10027000BEF1004F08BF5FEA500E50F1000041EBA5
:10028000045170BD06F0004646EA010140EA020052
:1002900081EA0301B4EB5C04C2BFD4EB0C0541EA74
:1002A000045170BD41F480114FF0000E013C00F389
:1002B000AB8014F1360FDEBF002001F0004170BDAD
:1002C000C4F10004203C35DA0C341BDC04F11404C6
:1002D000C4F1200500FA05F320FA04F001FA05F252
:1002E00040EA020001F0004221F0004110EBD3701F
:1002F00021FA04F642EB06015EEA430E08BF20EA4B
:10030000D37070BDC4F10C04C4F1200500FA04F3ED
:1003100020FA05F001FA04F240EA020001F000417F
:1003200010EBD37041F100015EEA430E08BF20EAF2
:10033000D37070BDC4F1200500FA05F24EEA020E3A
:1003400020FA04F301FA05F243EA020321FA04F069
:1003500001F0004121FA04F220EA020000EBD37020
:100360005EEA430E08BF20EAD37070BD94F0000F20
:100370000FD101F00046400041EB010111F4801F54
:1003800008BF013CF7D041EA060195F0000F18BF05
:10039000704703F00046520043EB030313F4801F41
:1003A00008BF013DF7D043EA0603704794EA0C0FFB
:1003B0000CEA135518BF95EA0C0F0CD050EA410611
:1003C00018BF52EA4306D1D181EA030101F000418E
:1003D0004FF0000070BD50EA410606BF10461946B6
:1003E00052EA430619D094EA0C0F02D150EA0136C2
:1003F00013D195EA0C0F05D152EA03361CBF104603
:1004000019460AD181EA030101F0004141F0FE41A1
:1004100041F470014FF0000070BD41F0FE4141F425
:10042000780170BD81F0004102E000BF83F000431D
:1004300030B54FEA41044FEA430594EA050F08BF7F
:1004400090EA020F1FBF54EA000C55EA020C7FEA43
:10045000645C7FEA655C00F0E2804FEA5454D4EBC0
:100460005555B8BF6D420CDD2C4480EA020281EA8A
:10047000030382EA000083EA010180EA020281EAC2
:100480000303362D88BF30BD11F0004F4FEA013114
:100490004FF4801C4CEA113102D0404261EB410123
:1004A00013F0004F4FEA03334CEA133302D05242A9
:1004B00063EB430394EA050F00F0A780A4F1010465
:1004C000D5F1200E0DDB02FA0EFC22FA05F280189F
:1004D00041F1000103FA0EF2801843FA05F3594185
:1004E0000EE0A5F120050EF1200E012A03FA0EFC04
:1004F00028BF4CF0020C43FA05F3C01851EBE3712E
:1005000001F0004507D54FF0000EDCF1000C7EEB4A
:1005100000006EEB0101B1F5801F1BD3B1F5001F88
:100520000CD349085FEA30004FEA3C0C04F10104A7
:100530004FEA445212F5800F80F09A80BCF1004FD0
:1005400008BF5FEA500C50F1000041EB045141EA52
:10055000050130BD5FEA4C0C404141EB0101013C1B
:1005600028BFB1F5801FE9D291F0000F04BF01460A
:100570000020B1FA81F308BF2033A3F10B03B3F1DC
:1005800020020CDA0C3208DD02F1140CC2F10C026C
:1005900001FA0CF021FA02F10CE002F11402D8BFCA
:1005A000C2F1200C01FA02F120FA0CFCDCBF41EA96
:1005B0000C019040E41AA2BF01EB0451294330BD65
:1005C0006FEA04041F3C1CDA0C340EDC04F1140442
:1005D000C4F1200220FA04F001FA02F340EA030019
:1005E00021FA04F345EA030130BDC4F10C04C4F15F
:1005F000200220FA02F001FA04F340EA030029463F
:1006000030BD21FA04F0294630BD94F0000F83F488
:10061000801306BF81F480110134013D4EE77FEA6B
:10062000645C18BF7FEA655C29D094EA050F08BFB7
:1006300090EA020F05D054EA000C04BF1946104698
:1006400030BD91EA030F1EBF0021002030BD5FEADC
:10065000545C05D14000494128BF41F0004130BD04
:1006600014F580043CBF01F5801130BD01F0004558
:1006700045F0FE4141F470014FF0000030BD7FEACB
:10068000645C1ABF194610467FEA655C1CBF0B46C6
:10069000024650EA013406BF52EA033591EA030FDD
:1006A00041F4002130BD00BF90F0000F04BF0021D5
:1006B000704730B54FF4806404F132044FF0000508
:1006C0004FF0000150E700BF90F0000F04BF002181
:1006D000704730B54FF4806404F1320410F00045E7
:1006E00048BF40424FF000013EE700BF42004FEAE2
:1006F000E2014FEA31014FEA02701FBF12F07F435F
:1007000093F07F4F81F06051704732F07F4208BF15
:10071000704793F07F4F04BF41F40021704730B51C
:100720004FF4607401F0004521F000411CE700BF68
:1007300050EA010208BF704730B54FF000050AE0EB
:1007400050EA010208BF704730B511F0004502D5EC
:10075000404261EB41014FF4806404F132045FEAEE
:10076000915C3FF4D8AE4FF003025FEADC0C18BF97
:1007700003325FEADC0C18BF033202EBDC02C2F189
:10078000200300FA03FC20FA02F001FA03FE40EA1B
:100790000E0021FA02F11444BDE600BF4A0011D256
:1007A00012F5001211D20DD56FF47873B3EB6252CB
:1007B0000ED44FEAC12343F0004343EA505323FAD7
:1007C00002F070474FF00000704750EA013002D14C
:1007D0004FF0FF3070474FF00000704753B94AB9EF
:1007E000002908BF00281CBF4FF0FF314FF0FF3039
:1007F00000F088B9ADF1080C6DE904CE00F006F800
:10080000DDF804E0DDE9022304B070472DE9F0478C
:10081000089D0F4604468C46002B48D18A42164656
:1008200061D9B2FA82F34BB1C3F1200201FA03FCA1
:1008300020FA02F29E4042EA0C0C9C404FEA164E0F
:10084000B7B2BCFBFEF1220C0EFB11CC42EA0C420B
:1008500001FB07F0904209D9B21801F1FF3C80F08A
:10086000EE80904240F2EB8002393244121AA4B278
:10087000B2FBFEF00EFB102244EA024400FB07F735
:10088000A74209D9341900F1FF3280F0DA80A7427B
:1008900040F2D7803444023840EA0140E41B002192
:1008A0001DB1DC400023C5E90043BDE8F0878B4261
:1008B00006D90DB1C5E9000100210846BDE8F08761
:1008C000B3FA83F1002948D1BB4202D3824200F23D
:1008D0000781841A67EB030201209446002DE4D0BF
:1008E000C5E9004CE1E7002A00F09280B2FA82F3F9
:1008F000002B40F0A8808A1A4FEA164E1FFA86FC99
:100900000121200CB2FBFEF70EFB172240EA024247
:100910000CFB07F0904207D9B21807F1FF3802D25A
:10092000904200F2E2804746121AA4B2B2FBFEF0F7
:100930000EFB102244EA02440CFB00FCA44507D93C
:10094000341900F1FF3202D2A44500F2CB801046E8
:10095000A4EB0C0440EA0740A2E7C1F120068B405B
:1009600022FA06FC4CEA030C07FA01F420FA06F31B
:10097000F7404FEA1C49234300FA01F81FFA8CFEA6
:10098000B7FBF9F01C0C09FB107744EA074400FBA5
:100990000EF7A74202FA01F20AD91CEB040400F197
:1009A000FF3A80F09B80A74240F29880023864446E
:1009B000E41B9FB2B4FBF9F309FB134447EA044478
:1009C00003FB0EFEA64509D91CEB040403F1FF3717
:1009D00080F08280A6457FD9023B644443EA004010
:1009E000A4EB0E04A0FB02E7BC427346B94663D3F6
:1009F00060D05DB1B8EB030264EB090404FA06F6BB
:100A000022FA01F31E43CC40C5E9006400214CE703
:100A10006208480842EAC1710B0C43EA00438AB2FB
:100A200042EA0342B3FBF6F1E407B4463746B64662
:100A30001F23B0FBF6F0D21B41EA004161E761469B
:100A400014E7104628E7C3F1200120FA01F29E4086
:100A500027FA01F19F403A434FEA164E1FFA86FCEF
:100A6000B1FBFEF70EFB1710110C41EA004107FB2A
:100A70000CF8884504FA03F43AD9711807F1FF30ED
:100A800001D288451FD8A1EB0801B1FBFEF808FB95
:100A90000CF70EFB181192B242EA0142BA422FD271
:100AA000B21808F1FF31C6D2BA42C4D2A8F102018D
:100AB0003244C0E7F0459CD2BEEB020367EB0C0763
:100AC0000138B94695E7A6EB08084144B81EB1FBCA
:100AD000FEF808FB0CF7DCE73B467FE7504667E78C
:100AE0000846FBE63444023832E7023F32441BE753
:100AF000A1EB08013846B1FBFEF808FB0CF7C8E78C
:100B0000414698E7704700BF000000000000000069
:100B100001F0FF01102A2BDB10F0070F08D010F8AE
:100B2000013B013A8B422DD010F0070F42B3F6D1B2
:100B3000F0B441EA012141EA014122F007047FF0CB
:100B400000070023F0E80256083C85EA010586EA22
:100B5000010685FA47F5A3FA87F586FA47F6A5FA5E
:100B600087F68EB9EED1F0BC01F0FF0102F007026A
:100B700032B110F8013B013A83EA010313B1F8D115
:100B80000020704701387047002D06BF35460338F6
:100B9000073815F0010F07D1013015F4807F02BF2F
:100BA000013015F4C03F0130F0BC0138704700BF80
:100BB00080B400AF064BD3F88830054A43F4700385
:100BC000C2F8883000BFBD465DF8047B704700BFA7
:100BD00000ED00E080B487B000AF786039603B681A
:100BE0001A687B6853F822303A68126823F00101D2
:100BF0007B6843F822103B689B68082B02D1402396
:100C00007B6101E000237B613B685A687B691A4382
:100C10003B689B681A433B68DB681A433B681B6967
:100C20001A433B685B691A433B68DB691A433B68BC
:100C30001B6A1A433B685B6A1A433B689B6A1A4308
:100C40003B68DB6A1A433B681B6B13433B613B68A1
:100C50009B693A6913433B613B68DB6B3A69134319
:100C60003B61104BFB60FB6843F48063FB60FB68F7
:100C700043F4E023FB603B681A687B6853F822204A
:100C8000FB68DB4302EA03013B681A683B691943CE
:100C90007B6843F82210002318461C37BD465DF8D8
:100CA000047B70477FFB080080B485B000AFF8601C
:100CB000B9607A60BB681A68BB685B681B011A433D
:100CC000BB689B681B021A43BB68DB681B041A43A2
:100CD000BB681B69013B1B051A43BB685B69023B90
:100CE0001B0642EA0301BB689B697A68013219431B
:100CF000FB6843F82210002318461437BD465DF800
:100D0000047B704780B485B000AFF860B9607A604A
:100D10003B603B68B3F5804F1DD1FB687A6853F8A0
:100D20002220134B1340BA681168BA685268120146
:100D30001143BA68926812021143BA68926911436A
:100D4000BA68D26812040A4343EA0201FB687A686F
:100D500043F8221005E0FB687A686FF0704143F8B1
:100D60002210002318461437BD465DF8047B7047F7
:100D70000000F0CF80B584B000AFF860B9607A6051
:100D8000FB68002B01D1012338E0FB6893F8493060
:100D9000DBB2002B06D1FB68002283F84820F868FC
:100DA00004F06AF8FB681A68FB68083319461046B5
:100DB000FFF710FFFB681868FB689B681A46B96864
:100DC000FFF772FFFB685868FB689A68FB681B6B4B
:100DD0007968FFF797FFFB681B68FA68926853F819
:100DE0002210FB681B68FA68926841F0010143F821
:100DF0002210FB68012283F849200023184610378F
:100E0000BD4680BD80B586B000AF78607B68002BA2
:100E100001D1012367E27B681B6803F00103002B0B
:100E200075D0884B9B6803F00C03042B0CD0854BCA
:100E30009B6803F00C03082B12D1824B5B6803F410
:100E40008003B3F5800F0BD17E4B1B6803F4003396
:100E5000002B5BD07B685B68002B57D1012342E2FB
:100E60007B685B68B3F5803F06D1764B1B68754A9B
:100E700043F4803313601DE07B685B68B3F5A02FFB
:100E80000CD1704B1B686F4A43F4802313606D4B89
:100E90001B686C4A43F4803313600BE0694B1B689A
:100EA000684A23F480331360664B1B68654A23F459
:100EB000802313607B685B68002B13D001F0B6FFC2
:100EC000386108E001F0B2FF02463B69D31A642B97
:100ED00001D9032307E25B4B1B6803F40033002BAB
:100EE000F0D014E001F0A2FF386108E001F09EFFAD
:100EF00002463B69D31A642B01D90323F3E1514B1A
:100F00001B6803F40033002BF0D100E000BF7B68C6
:100F10001B6803F00203002B63D04A4B9B6803F06D
:100F20000C03002B0BD0474B9B6803F00C03082BE2
:100F30001CD1444B5B6803F48003002B16D1414B5A
:100F40001B6803F00203002B05D07B68DB68012BD4
:100F500001D00123C7E13B4B1B6823F0F8027B68FB
:100F60001B69DB00374913430B603AE07B68DB68A1
:100F7000002B20D0344B01221A6001F057FF38615A
:100F800008E001F053FF02463B69D31A022B01D956
:100F90000323A8E12B4B1B6803F00203002BF0D0C6
:100FA000284B1B6823F0F8027B681B69DB0025498E
:100FB00013430B6015E0244B00221A6001F036FF4A
:100FC000386108E001F032FF02463B69D31A022B78
:100FD00001D9032387E11B4B1B6803F00203002B9D
:100FE000F0D17B681B6803F00803002B36D07B68C8
:100FF0005B69002B16D0154B01221A6001F016FF19
:10100000386108E001F012FF02463B69D31A022B57
:1010100001D9032367E10B4B5B6F03F00203002B45
:10102000F0D01BE0094B00221A6001F0FFFE38618E
:101030000EE001F0FBFE02463B69D31A022B07D9F2
:10104000032350E10038024000004742800E47422F
:10105000884B5B6F03F00203002BEAD17B681B68AF
:1010600003F00403002B00F097800023FB75814BF5
:101070001B6C03F08053002B0FD10023BB607D4B12
:101080001B6C7C4A43F0805313647A4B1B6C03F057
:101090008053BB60BB680123FB75774B1B6803F46F
:1010A0008073002B18D1744B1B68734A43F4807310
:1010B000136001F0BBFE386108E001F0B7FE0246A4
:1010C0003B69D31A022B01D903230CE16A4B1B683D
:1010D00003F48073002BF0D07B689B68012B06D152
:1010E000644B1B6F634A43F0010313671CE07B688A
:1010F0009B68052B0CD15F4B1B6F5E4A43F00403CA
:1011000013675C4B1B6F5B4A43F0010313670BE0F3
:10111000584B1B6F574A23F001031367554B1B6F46
:10112000544A23F0040313677B689B68002B15D097
:1011300001F07CFE38610AE001F078FE02463B696E
:10114000D31A41F28832934201D90323CBE0494BB1
:101150001B6F03F00203002BEED014E001F066FEDB
:1011600038610AE001F062FE02463B69D31A41F29F
:101170008832934201D90323B5E03E4B1B6F03F045
:101180000203002BEED1FB7D012B05D1394B1B6CEB
:10119000384A23F0805313647B689B69002B00F06E
:1011A000A180344B9B6803F00C03082B5CD07B6858
:1011B0009B69022B41D1314B00221A6001F036FEAF
:1011C000386108E001F032FE02463B69D31A022B77
:1011D00001D9032387E0274B1B6803F00073002B22
:1011E000F0D17B68DA697B681B6A1A437B685B6AAB
:1011F0009B011A437B689B6A5B08013B1B041A43F3
:101200007B68DB6A1B061B4913434B601B4B0122A7
:101210001A6001F00BFE386108E001F007FE02469B
:101220003B69D31A022B01D903235CE0114B1B68E5
:1012300003F00073002BF0D054E0104B00221A6032
:1012400001F0F4FD386108E001F0F0FD02463B6971
:10125000D31A022B01D9032345E0064B1B6803F088
:101260000073002BF0D13DE07B689B69012B07D117
:10127000012338E00038024000700040600047421F
:101280001B4B5B68FB607B689B69012B28D0FB686C
:1012900003F480027B68DB699A4221D1FB6803F08A
:1012A0003F027B681B6A9A421AD1FA6847F6C073FC
:1012B00013407A68526A9201934211D1FB6803F499
:1012C00040327B689B6A5B08013B1B049A4207D152
:1012D000FB6803F070627B68DB6A1B069A4201D0F0
:1012E000012300E0002318461837BD4680BD00BF2B
:1012F0000038024080B584B000AF786039607B6808
:10130000002B01D10123CCE0684B1B6803F00703DD
:101310003A689A420CD9654B3A68D2B21A70634B5C
:101320001B6803F007033A689A4201D00123B8E032
:101330007B681B6803F00203002B20D07B681B68CE
:1013400003F00403002B05D0594B9B68584A43F423
:10135000E05393607B681B6803F00803002B05D003
:10136000534B9B68524A43F460439360504B9B68D5
:1013700023F0F0027B689B684D4913438B607B68C8
:101380001B6803F00103002B44D07B685B68012BD2
:1013900007D1474B1B6803F40033002B19D10123FD
:1013A0007FE07B685B68022B03D07B685B68032B64
:1013B00007D13F4B1B6803F00073002B09D10123B9
:1013C0006FE03B4B1B6803F00203002B01D10123AC
:1013D00067E0374B9B6823F003027B685B68344906
:1013E00013438B6001F022FDF8600AE001F01EFD5E
:1013F0000246FB68D31A41F28832934201D9032393
:101400004FE02B4B9B6803F00C027B685B689B00F2
:101410009A42EBD1254B1B6803F007033A689A42C6
:101420000CD2224B3A68D2B21A70204B1B6803F0E0
:1014300007033A689A4201D0012332E07B681B68B7
:1014400003F00403002B08D0194B9B6823F4E052EF
:101450007B68DB68164913438B607B681B6803F06D
:101460000803002B09D0124B9B6823F460427B6871
:101470001B69DB000E4913438B6000F021F8024624
:101480000B4B9B681B0903F00F030A49CB5C22FA44
:1014900003F3094A1360094B1B68184601F082FCEC
:1014A000002318461037BD4680BD00BF003C0240F7
:1014B000003802408CDB00080000002004000020FF
:1014C0002DE9B04F90B000AF00237B630023FB6396
:1014D00000233B630023BB63584B9B6803F00C0362
:1014E000082B0DD0082B00F2A080002B02D0042B7B
:1014F00003D09AE0524BBB639AE0524BBB6397E038
:101500004E4B5B6803F03F037B634C4B5B6803F41B
:101510008003002B27D0494B5B689B0900223B626C
:101520007A623B6AC3F308000021464B03FB01F2D9
:10153000002300FB03F31344424AA0FB0221F9629B
:10154000BA62FA6A1344FB627B6B0022BB61FA61E8
:10155000D7E90623D7E90A01FFF740F902460B460F
:101560001346FB6353E0354B5B689B0900223B61EC
:101570007A613B69C3F3080A4FF0000B52465B46A1
:101580004FF000004FF00001590141EAD2615001D3
:1015900002460B46B2EB0A0863EB0B094FF0000260
:1015A0004FF000034FEA891343EA98634FEA881229
:1015B000B2EB080463EB09054FF000024FF00003A3
:1015C000EB0043EA5473E20014461D4614EB0A0391
:1015D0003B6045EB0B037B604FF000024FF00003D4
:1015E000D7E9004529468B02214643EA915321461B
:1015F0008A02104619467B6B0022BB60FA60D7E96D
:101600000223FFF7EBF802460B461346FB630B4B36
:101610005B681B0C03F0030301335B003B63FA6B55
:101620003B6BB2FBF3F3BB6302E0054BBB6300BF54
:10163000BB6B18464037BD46BDE8B08F003802404E
:101640000024F40040787D0180B586B000AF78605A
:1016500000237B6100233B617B681B6803F001036F
:10166000002B05D17B681B6803F00403002B35D0E9
:10167000624B00221A6001F0D9FB786108E001F0AA
:10168000D5FB02467B69D31A022B01D90323B0E0B4
:101690005B4B1B6803F00063002BF0D17B685B6839
:1016A0009A017B689B681B0755491343C1F8843036
:1016B000524B01221A6001F0B9FB786108E001F099
:1016C000B5FB02467B69D31A022B01D9032390E0B4
:1016D0004B4B1B6803F00063002BF0D07B681B684A
:1016E00003F00203002B00F083800023FB60444BD7
:1016F0001B6C434A43F080531364414B1B6C03F053
:101700008053FB60FB683F4B1B683E4A43F4807389
:10171000136001F08BFB786108E001F087FB024663
:101720007B69D31A022B01D9032362E0354B1B6876
:1017300003F48073002BF0D0314B1B6F03F4407324
:101740003B613B69002B2FD07B68DB6803F440735F
:101750003A699A4228D02A4B1B6F23F440733B61AD
:10176000294B01221A60284B00221A60244A3B6947
:101770001367234B1B6F03F00103012B14D101F0FE
:1017800055FB78610AE001F051FB02467B69D31AF0
:1017900041F28832934201D903232AE0184B1B6F90
:1017A00003F00203002BEED07B68DB6803F4407388
:1017B000B3F5407F0DD1124B9B6823F4F8127B6880
:1017C000DB6823F0704323F440730D4913438B60AF
:1017D00005E00B4B9B680A4A23F4F8139360084B0F
:1017E0001A6F7B68DB68C3F30B03054913430B6770
:1017F000002318461837BD4680BD00BF6800474229
:101800000038024000700040400E474280B487B06C
:1018100000AF786000237B6100233B610023FB6005
:101820000023BB607B68012B3FD1244B9B6803F4F2
:101830000003FB60FB68002B06D0FB68B3F5000FCC
:101840002FD11F4B7B612FE01C4B5B6803F480039F
:10185000B3F5800F08D1194B5B6803F03F03194AB9
:10186000B2FBF3F33B6107E0144B5B6803F03F030B
:10187000154AB2FBF3F33B61104BD3F884309B095C
:10188000C3F308023B6902FB03F3BB600B4BD3F8C5
:1018900084301B0F03F00703BA68B2FBF3F37B61DC
:1018A00002E000237B6100BF00E000BF7B691846B7
:1018B0001C37BD465DF8047B704700BF003802400E
:1018C0000080BB0040787D010024F40080B489B022
:1018D00000AF7860396000237B6100233B61002307
:1018E000BB610023FB616BE10122FB6902FA03F398
:1018F0007B613B681B687A6913403B613A697B698D
:101900009A4240F05A813B685B6803F00303012B65
:1019100005D03B685B6803F00303022B30D17B6882
:101920009B68BB61FB695B00032202FA03F3DB43A4
:10193000BA691340BB613B68DA68FB695B0002FA75
:1019400003F3BA691343BB617B68BA699A607B6829
:101950005B68BB610122FB6902FA03F3DB43BA69EE
:101960001340BB613B685B681B0903F00102FB6924
:1019700002FA03F3BA691343BB617B68BA695A6020
:101980003B685B6803F00303032B17D07B68DB68BD
:10199000BB61FB695B00032202FA03F3DB43BA6914
:1019A0001340BB613B689A68FB695B0002FA03F372
:1019B000BA691343BB617B68BA69DA603B685B68EC
:1019C00003F00303022B23D1FB69DA087B6808329A
:1019D00053F82230BB61FB6903F007039B000F2221
:1019E00002FA03F3DB43BA691340BB613B681A692F
:1019F000FB6903F007039B0002FA03F3BA69134380
:101A0000BB61FB69DA087B680832B96943F82210C8
:101A10007B681B68BB61FB695B00032202FA03F36E
:101A2000DB43BA691340BB613B685B6803F00302A8
:101A3000FB695B0002FA03F3BA691343BB617B687D
:101A4000BA691A603B685B6803F44033002B00F00E
:101A5000B4800023FB60604B5B6C5F4A43F48043BF
:101A600053645D4B5B6C03F48043FB60FB685B4A33
:101A7000FB699B08023352F82330BB61FB6903F01A
:101A800003039B000F2202FA03F3DB43BA691340FE
:101A9000BB617B68524A93422BD07B68514A934288
:101AA00025D07B68504A93421FD07B684F4A9342AF
:101AB00019D07B684E4A934213D07B684D4A9342BB
:101AC0000DD07B684C4A934207D07B684B4A9342C7
:101AD00001D107230EE008230CE006230AE00523CA
:101AE00008E0042306E0032304E0022302E00123CC
:101AF00000E00023FA6902F0030292009340BA6901
:101B00001343BB613549FB699B080233BA6941F84D
:101B100023203B4B9B68BB613B69DB43BA691340A5
:101B2000BB613B685B6803F48013002B03D0BA6988
:101B30003B691343BB61324ABB699360304BDB683E
:101B4000BB613B69DB43BA691340BB613B685B68BF
:101B500003F40013002B03D0BA693B691343BB6144
:101B6000274ABB69D360264B5B68BB613B69DB439B
:101B7000BA691340BB613B685B6803F40033002B18
:101B800003D0BA693B691343BB611D4ABB6953600B
:101B90001B4B1B68BB613B69DB43BA691340BB61EC
:101BA0003B685B6803F48033002B03D0BA693B6960
:101BB0001343BB61124ABB691360FB690133FB61CC
:101BC000FB690F2B7FF690AE00BF00BF2437BD46E8
:101BD0005DF8047B704700BF0038024000380140C8
:101BE000000002400004024000080240000C0240D5
:101BF000001002400014024000180240001C024085
:101C0000003C014080B485B000AF78600B467B801B
:101C10007B681A697B881340002B02D00123FB7379
:101C200001E00023FB73FB7B18461437BD465DF8CB
:101C3000047B704780B483B000AF78600B467B8034
:101C400013467B707B78002B03D07A887B689A617F
:101C500003E07B881A047B689A6100BF0C37BD469D
:101C60005DF8047B704780B485B000AF78600B46A8
:101C70007B807B685B69FB607A88FB6813401A0491
:101C8000FB68D9437B880B401A437B689A6100BF8D
:101C90001437BD465DF8047B7047000080B586B000
:101CA00000AF786000237B6101F0C0F838617B6889
:101CB000002B01D1012399E07B68022283F83520B3
:101CC0007B68002283F834207B681B681A687B6875
:101CD0001B6822F001021A600FE001F0A7F802462B
:101CE0003B69D31A052B08D97B6820225A657B688B
:101CF000032283F83520032378E07B681B681B6888
:101D000003F00103002BE8D17B681B681B687B6133
:101D10007A69384B13407B617B685A687B689B68A3
:101D20001A437B68DB681A437B681B691A437B682C
:101D30005B691A437B689B691A437B68DB691A43BA
:101D40007B681B6A13437A6913437B617B685B6A18
:101D5000042B07D17B68DA6A7B681B6B13437A69B3
:101D600013437B617B681B687A691A607B681B6818
:101D70005B697B617B6923F007037B617B685B6A3E
:101D80007A6913437B617B685B6A042B17D17B689C
:101D90009B6A7A6913437B617B68DB6A002B0ED0F8
:101DA000786800F0CDFA0346002B08D07B6840220B
:101DB0005A657B68012283F83520012316E07B6891
:101DC0001B687A695A61786800F084FA0346FB6000
:101DD0007B68DB6D3F229A40FB689A607B6800223B
:101DE0005A657B68012283F835200023184618378E
:101DF000BD4680BD3F8010F080B584B000AF7860F4
:101E00007B68002B01D1012350E07B6893F83530CB
:101E1000DBB2022B01D1022348E07B681B681A6801
:101E20007B681B6822F001021A607B681B68002235
:101E30001A607B681B6800225A607B681B6800225E
:101E40009A607B681B680022DA607B681B6800224E
:101E50001A617B681B6821225A61786800F03AFA9F
:101E60000346FB607B680022DA637B6800221A6409
:101E70007B6800225A647B6800229A647B68002297
:101E8000DA647B6800221A657B68DB6D3F229A402A
:101E9000FB689A607B6800225A657B68002283F8A1
:101EA00035207B68002283F8342000231846103741
:101EB000BD4680BD80B586B000AFF860B9607A607D
:101EC0003B600023FB75FB689B6D3B61FB6893F8EF
:101ED0003430012B01D1022340E0FB68012283F85A
:101EE0003420FB6893F83530DBB2012B2FD1FB682F
:101EF000022283F83520FB6800225A653B687A6825
:101F0000B968F86800F0B8F9FB68DB6D3F229A40C9
:101F10003B699A60FB681B681A68FB681B6842F0A3
:101F200016021A60FB681B6C002B07D0FB681B684D
:101F30001A68FB681B6842F008021A60FB681B689D
:101F40001A68FB681B6842F001021A6005E0FB6832
:101F5000002283F834200223FB75FB7D18461837D6
:101F6000BD4680BD80B586B000AF78600023BB6001
:101F70008E4B1B688E4AA2FB03239B0A7B617B6806
:101F80009B6D3B613B691B68FB607B68DB6D0822D6
:101F90009A40FB681340002B1AD07B681B681B68B3
:101FA00003F00403002B13D07B681B681A687B685E
:101FB0001B6822F004021A607B68DB6D08229A40DD
:101FC0003B699A607B685B6D43F001027B685A65F0
:101FD0007B68DB6D01229A40FB681340002B12D016
:101FE0007B681B685B6903F08003002B0BD07B6868
:101FF000DB6D01229A403B699A607B685B6D43F020
:1020000002027B685A657B68DB6D04229A40FB689C
:102010001340002B12D07B681B681B6803F002037F
:10202000002B0BD07B68DB6D04229A403B699A60E1
:102030007B685B6D43F004027B685A657B68DB6DEF
:1020400010229A40FB681340002B43D07B681B682A
:102050001B6803F00803002B3CD07B68DB6D10226B
:102060009A403B699A607B681B681B6803F4802375
:10207000002B18D07B681B681B6803F40023002B1F
:1020800008D17B681B6C002B24D07B681B6C7868A4
:1020900098471FE07B689B6C002B1BD07B689B6C78
:1020A0007868984716E07B681B681B6803F48073A8
:1020B000002B07D17B681B681A687B681B6822F0BD
:1020C00008021A607B681B6C002B03D07B681B6CBA
:1020D000786898477B68DB6D20229A40FB68134044
:1020E000002B00F08F807B681B681B6803F01003D7
:1020F000002B00F087807B68DB6D20229A403B69D3
:102100009A607B6893F83530DBB2052B36D17B685B
:102110001B681A687B681B6822F016021A607B68CD
:102120001B685A697B681B6822F080025A617B68D1
:102130001B6C002B03D17B689B6C002B07D07B684A
:102140001B681A687B681B6822F008021A607B68AB
:10215000DB6D3F229A403B699A607B68012283F8DD
:1021600035207B68002283F834207B681B6D002BB0
:102170007ED07B681B6D7868984779E07B681B6828
:102180001B6803F48023002B1DD07B681B681B6831
:1021900003F40023002B0DD17B685B6C002B31D046
:1021A0007B685B6C786898472CE000BF00000020DB
:1021B000B5814E1B7B68DB6B002B23D07B68DB6B10
:1021C000786898471EE07B681B681B6803F480737F
:1021D000002B0FD17B681B681A687B681B6822F094
:1021E00010021A607B68012283F835207B68002288
:1021F00083F834207B68DB6B002B03D07B68DB6BC0
:10220000786898477B685B6D002B32D07B685B6D8C
:1022100003F00103002B22D07B68052283F83520D0
:102220007B681B681A687B681B6822F001021A60D1
:10223000BB680133BB607A699A4207D37B681B682D
:102240001B6803F00103002BF2D100E000BF7B68A4
:10225000012283F835207B68002283F834207B68D4
:10226000DB6C002B05D07B68DB6C7868984700E05E
:1022700000BF1837BD4680BD80B485B000AFF860A0
:10228000B9607A603B60FB681B681A68FB681B6872
:1022900022F480221A60FB681B683A685A60FB6867
:1022A0009B68402B08D1FB681B687A689A60FB68C2
:1022B0001B68BA68DA6007E0FB681B68BA689A6056
:1022C000FB681B687A68DA6000BF1437BD465DF8AA
:1022D000047B704780B485B000AF78607B681B6872
:1022E000DBB2103B144AA2FB03231B09FB60134A19
:1022F000FB6813441B781A467B68DA65FB68032B7E
:1023000009D97B681B6823F47F7323F003031A1D2C
:102310007B689A6507E07B681B6823F47F7323F072
:1023200003037A6893657B689B6D18461437BD4636
:102330005DF8047B704700BFABAAAAAA9CDB00082B
:1023400080B485B000AF78600023FB737B689B6A24
:10235000BB607B689B69002B1FD1BB68032B56D8E1
:1023600001A252F823F000BF792300088B23000854
:10237000792300080F2400087B68DB6A03F0807370
:10238000002B46D00123FB7343E07B68DB6AB3F18B
:10239000C07F40D10123FB733DE07B689B69B3F5AF
:1023A000005F21D1BB68032B37D801A252F823F07C
:1023B000C1230008C7230008C1230008D92300084F
:1023C0000123FB7330E07B68DB6A03F08073002B32
:1023D00025D00123FB7322E07B68DB6AB3F1C07F69
:1023E0001FD10123FB731CE0BB68022B03D9BB6820
:1023F000032B03D018E00123FB7315E07B68DB6A35
:1024000003F08073002B0ED00123FB730BE000BFA1
:102410000AE000BF08E000BF06E000BF04E000BF24
:1024200002E000BF00E000BFFB7B18461437BD464A
:102430005DF8047B704700BF80B483B000AF064BEB
:1024400001221A60054B1B687B607B6800BF0C375C
:10245000BD465DF8047B704720000E4200700040CE
:1024600080B582B000AF78607B68002B01D101237A
:1024700083E07B685B7FDBB2002B05D17B680022A9
:102480001A77786800F07DF87B6802225A777B68BB
:102490001B68CA225A627B681B6853225A6278689A
:1024A00000F0B2FA0346002B08D07B681B68FF22BD
:1024B0005A627B6804225A7701235EE07B681B68BE
:1024C0009B687A68126823F4E00323F0400393606A
:1024D0007B681B6899687B685A687B681B691A432C
:1024E0007B685B691A437B681B680A439A607B6858
:1024F0001B687A68D2681A617B681B6819697B68F7
:102500009B681A047B681B680A431A617B681B6816
:10251000DA687B681B6822F08002DA607B681B68DF
:102520009B6803F02003002B0ED1786800F044FA7A
:102530000346002B08D07B681B68FF225A627B6829
:1025400004225A77012318E07B681B681A6C7B68A9
:102550001B6822F480221A647B681B68196C7B68F4
:102560009A697B681B680A431A647B681B68FF22B0
:102570005A627B6801225A77002318460837BD4605
:1025800080BD80B483B000AF786000BF0C37BD461B
:102590005DF8047B704790B587B000AFF860B96014
:1025A0007A6000237B61FB681B7F012B01D1022332
:1025B000AAE0FB6801221A77FB6802225A777B683F
:1025C000002B26D1FB681B689B6803F04003002B9F
:1025D00002D1BB680022DA70BB681B78184600F095
:1025E0003FFA03461C04BB685B78184600F038FAD3
:1025F00003461B021C43BB689B78184600F030FA68
:10260000034644EA0302BB68DB781B0413437B6187
:1026100018E0FB681B689B6803F04003002B02D1A5
:10262000BB680022DA70BB681B781A04BB685B7851
:102630001B021343BA6892781A43BB68DB781B0409
:1026400013437B61FB681B68CA225A62FB681B68E4
:1026500053225A62F86800F0D7F90346002B0BD0DA
:10266000FB681B68FF225A62FB6804225A77FB68EA
:1026700000221A77012347E0FB681A687B6903F0A0
:102680007F3323F0FE431360FB681B689A68FB6886
:102690001B6822F480229A60FB681B689968BB68FB
:1026A000DA68BB681B691A43FB681B680A439A60B7
:1026B000FB681B68DA68FB681B6822F08002DA603E
:1026C000FB681B689B6803F02003002B11D1F8689E
:1026D00000F072F90346002B0BD0FB681B68FF2249
:1026E0005A62FB6804225A77FB6800221A7701239A
:1026F0000AE0FB681B68FF225A62FB6801225A77D6
:10270000FB6800221A77002318461C37BD4690BD8F
:1027100080B586B000AFF860B9607A6000237B6155
:10272000FB681B689A6ABB685A60FB681B681B6978
:10273000C3F30E02BB689A60FB681B681B6803F05A
:102740007F3323F0FE437B617B691B0CDBB203F01C
:102750003F03DAB2BB681A707B691B0ADBB203F075
:102760007F03DAB2BB685A707B69DBB203F07F0388
:10277000DAB2BB689A707B691B0CDBB203F04003D2
:10278000DAB2BB68DA707B68002B1AD1BB681B78A1
:10279000184600F083F903461A46BB681A70BB68F6
:1027A0005B78184600F07AF903461A46BB685A70FF
:1027B000BB689B78184600F071F903461A46BB685F
:1027C0009A70002318461837BD4680BD90B587B073
:1027D00000AFF860B9607A6000237B61FB681B7F03
:1027E000012B01D1022394E0FB6801221A77FB68D8
:1027F00002225A777B68002B0ED1BB685B7803F00E
:102800001003002B08D0BB685B7823F01003DBB209
:102810000A33DAB2BB685A707B68002B1CD1BB68E4
:10282000DB78184600F01CF903461C04BB685B7893
:10283000184600F015F903461B021C43BB689B7841
:10284000184600F00DF9034644EA0302BB681B7802
:102850005B0313437B610EE0BB68DB781A04BB6843
:102860005B781B021343BA6892781A43BB681B78E3
:102870005B0313437B61FB681B68CA225A62FB68D7
:102880001B6853225A62F86800F0BEF80346002B1A
:102890000BD0FB681B68FF225A62FB6804225A7740
:1028A000FB6800221A77012333E0FB681A687B6912
:1028B00023F07F4323F0C0035360FB681B68DA6892
:1028C000FB681B6822F08002DA60FB681B689B686B
:1028D00003F02003002B11D1F86800F06DF80346D7
:1028E000002B0BD0FB681B68FF225A62FB68042296
:1028F0005A77FB6800221A7701230AE0FB681B68FD
:10290000FF225A62FB6801225A77FB6800221A777D
:10291000002318461C37BD4690BD80B586B000AF79
:10292000F860B9607A6000237B61FB681B685B68B4
:1029300023F07F4323F0C0037B617B691B0CDAB279
:10294000BB68DA707B691B0ADBB203F01F03DAB2E3
:10295000BB685A707B69DBB203F03F03DAB2BB6835
:102960009A707B695B0BDBB203F00703DAB2BB68DA
:102970001A707B68002B1AD1BB68DB78184600F010
:102980008DF803461A46BB68DA70BB685B78184658
:1029900000F084F803461A46BB685A70BB689B78FF
:1029A000184600F07BF803461A46BB689A7000236D
:1029B00018461837BD4680BD80B584B000AF78603A
:1029C0000023FB607B681B68DA687B681B6822F069
:1029D000A002DA6000F02AFAF86009E000F026FAB6
:1029E0000246FB68D31AB3F57A7F01D9032307E0C7
:1029F0007B681B68DB6803F02003002BEED000230C
:102A000018461037BD4680BD80B584B000AF7860F1
:102A10000023FB607B681B68DB6803F04003002B2E
:102A200019D17B681B684FF0FF32DA6000F0FEF9C5
:102A3000F86009E000F0FAF90246FB68D31AB3F532
:102A40007A7F01D9032307E07B681B68DB6803F00A
:102A50004003002BEED0002318461037BD4680BD42
:102A600080B485B000AF0346FB710023FB6005E036
:102A7000FB680133FB60FB790A3BFB71FB79092B97
:102A8000F6D8FB68DBB21B01DAB2FB791343DBB289
:102A900018461437BD465DF8047B704780B485B096
:102AA00000AF0346FB710023FB60FB791B09DBB21F
:102AB0001A4613469B0013445B00FB60FB7903F04E
:102AC0000F03DAB2FB68DBB21344DBB218461437EB
:102AD000BD465DF8047B704780B487B000AFF860F6
:102AE000B9607A6000237B61FB681B6850337B61AF
:102AF000BB689B007A6913447B617B697A681A60C2
:102B000000BF1C37BD465DF8047B704780B485B0BC
:102B100000AF786039600023FB607B681B6850332E
:102B2000FB603B689B00FA681344FB60FB681B6812
:102B300018461437BD465DF8047B704780B485B0F5
:102B400000AF78607B6803F00703FB600C4BDB6829
:102B5000BB60BA684FF6FF031340BB60FB681A0204
:102B6000BB68134343F0BF6343F40033BB60044AC4
:102B7000BB68D36000BF1437BD465DF8047B704767
:102B800000ED00E080B400AF044BDB681B0A03F0EB
:102B900007031846BD465DF8047B704700ED00E072
:102BA00080B483B000AF0346FB7197F90730002B68
:102BB0000BDBFB7903F01F02074997F907305B092C
:102BC000012000FA02F241F8232000BF0C37BD4675
:102BD0005DF8047B704700BF00E100E080B483B083
:102BE00000AF03463960FB7197F90730002B0ADB11
:102BF0003B68DAB20C4997F907301201D2B20B44A4
:102C000083F800230AE03B68DAB20849FB7903F055
:102C10000F03043B1201D2B20B441A7600BF0C37EB
:102C2000BD465DF8047B704700E100E000ED00E088
:102C300080B489B000AFF860B9607A60FB6803F0D7
:102C40000703FB61FB69C3F10703042B28BF0423BF
:102C5000BB61FB690433062B02D9FB69033B00E02F
:102C600000237B614FF0FF32BB6902FA03F3DA43C2
:102C7000BB681A407B699A404FF0FF317B6901FACB
:102C800003F3D9437B680B40134318462437BD46F2
:102C90005DF8047B7047000080B582B000AF7860BB
:102CA0007B68013BB3F1807F01D301230FE00A4A27
:102CB0007B68013B53600F214FF0FF30FFF78EFF21
:102CC000054B00229A60044B07221A600023184625
:102CD0000837BD4680BD00BF10E000E080B582B07F
:102CE00000AF78607868FFF729FF00BF0837BD465E
:102CF00080BD80B586B000AF0346B9607A60FB73D3
:102D000000237B61FFF73EFF78617A68B9687869D4
:102D1000FFF78EFF024697F90F3011461846FFF76E
:102D20005DFF00BF1837BD4680BD80B582B000AFE3
:102D30000346FB7197F907301846FFF731FF00BFD4
:102D40000837BD4680BD80B582B000AF7860786836
:102D5000FFF7A2FF034618460837BD4680BD0000B6
:102D600080B500AF0E4B1B680D4A43F4007313602F
:102D70000B4B1B680A4A43F480631360084B1B68C3
:102D8000074A43F4807313600320FFF7A7FF0F2067
:102D900000F008F802F0D2FA0023184680BD00BF08
:102DA000003C024080B582B000AF7860124B1A68D8
:102DB000124B1B7819464FF47A73B3FBF1F3B2FB55
:102DC000F3F31846FFF7BFFF0346002B01D00123A2
:102DD0000EE07B680F2B0AD8002279684FF0FF3095
:102DE000FFF787FF064A7B681360002300E001239A
:102DF00018460837BD4680BD0000002008000020AE
:102E00000400002080B400AF064B1B781A46064B26
:102E10001B681344044A136000BFBD465DF8047B81
:102E2000704700BF080000208800002080B400AF79
:102E3000034B1B681846BD465DF8047B704700BF16
:102E40008800002080B584B000AF7860FFF7EEFF07
:102E5000B8607B68FB60FB68B3F1FF3F05D00A4BAD
:102E60001B781A46FB681344FB6000BFFFF7DEFFC8
:102E70000246BB68D31AFA689A42F7D800BF00BF6F
:102E80001037BD4680BD00BF0800002080B582B06D
:102E900000AF78607B68002B01D1012341E07B68A3
:102EA00093F83D30DBB2002B06D17B68002283F81B
:102EB0003C20786802F0ACF87B68022283F83D2061
:102EC0007B681A687B6804331946104600F0CEFC14
:102ED0007B68012283F846207B68012283F83E202C
:102EE0007B68012283F83F207B68012283F8402021
:102EF0007B68012283F841207B68012283F842200D
:102F00007B68012283F843207B68012283F84420F8
:102F10007B68012283F845207B68012283F83D20ED
:102F2000002318460837BD4680BD000080B485B038
:102F300000AF78607B6893F83D30DBB2012B01D0A5
:102F4000012346E07B68022283F83D207B681B68F2
:102F5000234A934222D07B681B68B3F1804F1DD077
:102F60007B681B681F4A934218D07B681B681E4A07
:102F7000934213D07B681B681C4A93420ED07B6837
:102F80001B681B4A934209D07B681B68194A93420D
:102F900004D07B681B68184A934211D17B681B6878
:102FA0009B6803F00703FB60FB68062B10D07B686F
:102FB0001B681A687B681B6842F001021A6007E010
:102FC0007B681B681A687B681B6842F001021A6004
:102FD000002318461437BD465DF8047B704700BFD8
:102FE000000001400004004000080040000C0040C8
:102FF00000040140004001400018004080B582B04C
:1030000000AF78607B68002B01D1012341E07B6831
:1030100093F83D30DBB2002B06D17B68002283F8A9
:103020003C20786800F039F87B68022283F83D2064
:103030007B681A687B6804331946104600F016FC5A
:103040007B68012283F846207B68012283F83E20BA
:103050007B68012283F83F207B68012283F84020AF
:103060007B68012283F841207B68012283F842209B
:103070007B68012283F843207B68012283F8442087
:103080007B68012283F845207B68012283F83D207C
:10309000002318460837BD4680BD80B483B000AF1A
:1030A000786000BF0C37BD465DF8047B70470000B8
:1030B00080B584B000AF786039600023FB733B6853
:1030C000002B04D17B6893F83E30DBB213E03B6801
:1030D000042B04D17B6893F83F30DBB20BE03B68F4
:1030E000082B04D17B6893F84030DBB203E07B68A7
:1030F00093F84130DBB2BB733B68002B04D17B6893
:1031000093F84230DBB213E03B68042B04D17B68B8
:1031100093F84330DBB20BE03B68082B04D17B68AB
:1031200093F84430DBB203E07B6893F84530DBB2C0
:103130007B73BB7B012B02D17B7B012B01D0012355
:10314000CCE03B68002B04D17B68022283F83E2050
:1031500013E03B68042B04D17B68022283F83F20F4
:103160000BE03B68082B04D17B68022283F84020E7
:1031700003E07B68022283F841203B68002B04D1E6
:103180007B68022283F8422013E03B68042B04D1C1
:103190007B68022283F843200BE03B68082B04D1B4
:1031A0007B68022283F8442003E07B68022283F8D4
:1031B00045203B680C2B41D801A252F823F000BFF8
:1031C000F53100083D3200083D3200083D3200086C
:1031D000073200083D3200083D3200083D32000849
:1031E000193200083D3200083D3200083D32000827
:1031F0002B3200087B681B68DA687B681B6842F02A
:103200000202DA601DE07B681B68DA687B681B6875
:1032100042F00402DA6014E07B681B68DA687B68BD
:103220001B6842F00802DA600BE07B681B68DA6812
:103230007B681B6842F01002DA6002E00123FB7336
:1032400000BFFB7B002B48D17B681B6801223968DB
:10325000184600F075FD7B681B68224A934222D015
:103260007B681B68B3F1804F1DD07B681B681E4ACA
:10327000934218D07B681B681C4A934213D07B682A
:103280001B681B4A93420ED07B681B68194A934205
:1032900009D07B681B68184A934204D07B681B687E
:1032A000164A934211D17B681B689B6803F00703A1
:1032B000BB60BB68062B10D07B681B681A687B68F4
:1032C0001B6842F001021A6007E07B681B681A68FD
:1032D0007B681B6842F001021A60FB7B18461037BE
:1032E000BD4680BD000001400004004000080040D1
:1032F000000C004000040140004001400018004064
:1033000080B584B000AF78607B681B68DB68FB60C9
:103310007B681B681B69BB60BB6803F00203002B62
:1033200020D0FB6803F00203002B1BD07B681B68D6
:103330006FF002021A617B6801221A777B681B68B2
:103340009B6903F00303002B03D0786801F02AFF88
:1033500005E0786800F06CFA786800F073FA7B6832
:1033600000221A77BB6803F00403002B20D0FB680F
:1033700003F00403002B1BD07B681B686FF0040272
:103380001A617B6802221A777B681B689B6903F4C9
:103390004073002B03D0786801F004FF05E07868E3
:1033A00000F046FA786800F04DFA7B6800221A7740
:1033B000BB6803F00803002B20D0FB6803F0080370
:1033C000002B1BD07B681B686FF008021A617B68BA
:1033D00004221A777B681B68DB6903F00303002B68
:1033E00003D0786801F0DEFE05E0786800F020FA8E
:1033F000786800F027FA7B6800221A77BB6803F030
:103400001003002B20D0FB6803F01003002B1BD00F
:103410007B681B686FF010021A617B6808221A77BC
:103420007B681B68DB6903F44073002B03D078686A
:1034300001F0B8FE05E0786800F0FAF9786800F06D
:1034400001FA7B6800221A77BB6803F00103002BA6
:103450000CD0FB6803F00103002B07D07B681B68CE
:103460006FF001021A61786801F044FFBB6803F055
:103470008003002B0CD0FB6803F08003002B07D0E7
:103480007B681B686FF080021A61786800F004FDA9
:10349000BB6803F04003002B0CD0FB6803F0400333
:1034A000002B07D07B681B686FF040021A617868B8
:1034B00000F0D2F9BB6803F02003002B0CD0FB68AE
:1034C00003F02003002B07D07B681B686FF02002FD
:1034D0001A61786800F0D6FC00BF1037BD4680BD89
:1034E00080B586B000AFF860B9607A600023FB75E4
:1034F000FB6893F83C30012B01D1022388E0FB6884
:10350000012283F83C207B68002B1BD1FB681868E4
:10351000BB681968BB685A68BB68DB6800F04CFA86
:10352000FB681B689A69FB681B6822F00C029A61B1
:10353000FB681B689969BB689A68FB681B680A434B
:103540009A6160E07B68042B1CD1FB681868BB683B
:103550001968BB685A68BB68DB6800F0D0FAFB6882
:103560001B689A69FB681B6822F440629A61FB68D9
:103570001B689969BB689B681A02FB681B680A4351
:103580009A6140E07B68082B1BD1FB681868BB6818
:103590001968BB685A68BB68DB6800F01DFBFB68F4
:1035A0001B68DA69FB681B6822F00C02DA61FB68B1
:1035B0001B68D969BB689A68FB681B680A43DA61B3
:1035C00021E07B680C2B1CD1FB681868BB6819686C
:1035D000BB685A68BB68DB6800F03AFBFB681B6895
:1035E000DA69FB681B6822F44062DA61FB681B68D9
:1035F000D969BB689B681A02FB681B680A43DA61D9
:1036000001E00123FB75FB68002283F83C20FB7D71
:1036100018461837BD4680BD80B584B000AF7860CD
:1036200039600023FB737B6893F83C30012B01D198
:103630000223B4E07B68012283F83C207B680222ED
:1036400083F83D207B681B689B68BB60BB6823F0E8
:103650007703BB60BB6823F47F43BB607B681B6858
:10366000BA689A603B681B68B3F5005F3ED0B3F55B
:10367000005F00F28780B3F5805F00F08680B3F5CD
:10368000805F7FD8702B1AD0702B7BD8602B50D0E6
:10369000602B77D8502B3CD0502B73D8402B58D070
:1036A000402B6FD8302B64D0302B6BD8202B60D0C0
:1036B000202B67D8002B5CD0102B5AD062E07B689F
:1036C00018683B6899683B685A683B68DB6800F09B
:1036D00017FB7B681B689B68BB60BB6843F0770384
:1036E000BB607B681B68BA689A604FE07B681868AB
:1036F0003B6899683B685A683B68DB6800F000FBF0
:103700007B681B689A687B681B6842F480429A60F9
:103710003CE07B6818683B6859683B68DB681A4680
:1037200000F0BEF97B681B685021184600F0CDFA06
:103730002CE07B6818683B6859683B68DB681A4670
:1037400000F01AFA7B681B686021184600F0BDFA89
:103750001CE07B6818683B6859683B68DB681A4660
:1037600000F09EF97B681B684021184600F0ADFA16
:103770000CE07B681A683B681B681946104600F02D
:10378000A4FA03E00123FB7300E000BF7B68012281
:1037900083F83D207B68002283F83C20FB7B1846A1
:1037A0001037BD4680BD000080B485B000AF7860A2
:1037B00039600023FB603B680C2B31D801A252F822
:1037C00023F000BFF937000821380008213800082D
:1037D0002138000803380008213800082138000883
:1037E000213800080D380008213800082138000869
:1037F00021380008173800087B681B685B6BFB608A
:103800000FE07B681B689B6BFB600AE07B681B68B2
:10381000DB6BFB6005E07B681B681B6CFB6000E0FA
:1038200000BFFB6818461437BD465DF8047B70473F
:1038300080B483B000AF786000BF0C37BD465DF840
:10384000047B704780B483B000AF786000BF0C3752
:10385000BD465DF8047B704780B483B000AF7860EC
:1038600000BF0C37BD465DF8047B704780B485B05F
:1038700000AF786039607B681B68FB607B68434AF7
:10388000934213D07B68B3F1804F0FD07B68404ADE
:1038900093420BD07B683F4A934207D07B683E4AF5
:1038A000934203D07B683D4A934208D1FB6823F0E2
:1038B0007003FB603B685B68FA681343FB607B68DE
:1038C000324A93422BD07B68B3F1804F27D07B687C
:1038D0002F4A934223D07B682E4A93421FD07B68A5
:1038E0002D4A93421BD07B682C4A934217D07B68A9
:1038F0002B4A934213D07B682A4A93420FD07B68AD
:10390000294A93420BD07B68284A934207D07B68B0
:10391000274A934203D07B68264A934208D1FB682A
:1039200023F44073FB603B68DB68FA681343FB6079
:10393000FB6823F080023B685B691343FB603B68D4
:103940009A687B68DA623B681A687B689A627B686F
:103950000E4A934203D07B68104A934203D13B68DE
:103960001A697B681A637B681B6843F004027B68F2
:103970001A607B6801225A617B68FA681A6000BF8E
:103980001437BD465DF8047B704700BF000001405E
:103990000004004000080040000C0040000401400A
:1039A0000040014000440140004801400018004030
:1039B000001C00400020004080B487B000AFF860D9
:1039C000B9607A603B60FB681B6A3B61FB681B6AFD
:1039D00023F00102FB681A62FB689B697B61FB684C
:1039E000284A93421BD0FB68B3F1804F17D0FB6885
:1039F000254A934213D0FB68244A93420FD0FB68B8
:103A0000234A93420BD0FB68224A934207D0FB68BB
:103A1000214A934203D0FB68204A934201D10123FB
:103A200000E00023002B08D07B6923F003037B61B7
:103A30007A697B6813437B6103E07B6943F0010390
:103A40007B617B6923F0F0037B613B681B01DBB288
:103A50007A6913437B613B6923F00A033B61BB68CE
:103A600003F00A033A6913433B61FB687A699A6180
:103A7000FB683A691A6200BF1C37BD465DF8047BDB
:103A8000704700BF000001400004004000080040F3
:103A9000000C0040000401400040014000180040BC
:103AA00080B487B000AFF860B9607A60FB681B6AC9
:103AB0007B61FB681B6A23F00102FB681A62FB68EA
:103AC0009B693B613B6923F0F0033B617B681B0111
:103AD0003A6913433B617B6923F00A037B617A698E
:103AE000BB6813437B61FB683A699A61FB687A693A
:103AF0001A6200BF1C37BD465DF8047B704780B476
:103B000087B000AFF860B9607A603B60FB681B6A01
:103B10007B61FB681B6A23F01002FB681A62FB687A
:103B20009B693B613B6923F440733B617B681B02EB
:103B30003A6913433B613B6923F470433B613B6843
:103B40001B039BB23A6913433B617B6923F0A003DB
:103B50007B61BB681B0103F0A0037A6913437B619F
:103B6000FB683A699A61FB687A691A6200BF1C3780
:103B7000BD465DF8047B704780B487B000AFF86045
:103B8000B9607A60FB681B6A7B61FB681B6A23F083
:103B90001002FB681A62FB689B693B613B6923F476
:103BA00070433B617B681B033A6913433B617B694C
:103BB00023F0A0037B61BB681B017A6913437B611F
:103BC000FB683A699A61FB687A691A6200BF1C3720
:103BD000BD465DF8047B704780B487B000AFF860E5
:103BE000B9607A603B60FB681B6A7B61FB681B6A9B
:103BF00023F48072FB681A62FB68DB693B613B69F6
:103C000023F003033B613A697B6813433B613B69E3
:103C100023F0F0033B613B681B01DBB23A691343BD
:103C20003B617B6923F420637B61BB681B0203F467
:103C300020637A6913437B61FB683A69DA61FB6848
:103C40007A691A6200BF1C37BD465DF8047B704775
:103C500080B487B000AFF860B9607A603B60FB6801
:103C60001B6A7B61FB681B6A23F48052FB681A6243
:103C7000FB68DB693B613B6923F440733B617B6814
:103C80001B023A6913433B613B6923F470433B6178
:103C90003B681B039BB23A6913433B617B6923F486
:103CA00020437B61BB681B0303F420437A69134301
:103CB0007B61FB683A69DA61FB687A691A6200BF66
:103CC0001C37BD465DF8047B704780B485B000AFFB
:103CD000786039607B689B68FB60FB6823F0700349
:103CE000FB603A68FB68134343F00703FB607B68A3
:103CF000FA689A6000BF1437BD465DF8047B7047D0
:103D000080B487B000AFF860B9607A603B60FB6850
:103D10009B687B617B6923F47F437B613B681A026C
:103D20007B681A43BB6813437A6913437B61FB6862
:103D30007A699A6000BF1C37BD465DF8047B704706
:103D400080B487B000AFF860B9607A60BB6803F0F8
:103D50001F03012202FA03F37B61FB681A6A7B6985
:103D6000DB431A40FB681A62FB681A6ABB6803F0FF
:103D70001F03796801FA03F31A43FB681A6200BF54
:103D80001C37BD465DF8047B7047000080B485B0E9
:103D900000AF786039607B6893F83C30012B01D12B
:103DA00002235AE07B68012283F83C207B680222D0
:103DB00083F83D207B681B685B68FB607B681B6841
:103DC0009B68BB60FB6823F07003FB603B681B686B
:103DD000FA681343FB607B681B68FA685A607B686B
:103DE0001B68214A934222D07B681B68B3F1804F45
:103DF0001DD07B681B681D4A934218D07B681B68E6
:103E00001B4A934213D07B681B681A4A93420ED018
:103E10007B681B68184A934209D07B681B68174A65
:103E2000934204D07B681B68154A93420CD1BB684F
:103E300023F08003BB603B685B68BA681343BB60D8
:103E40007B681B68BA689A607B68012283F83D2012
:103E50007B68002283F83C20002318461437BD46B7
:103E60005DF8047B704700BF000001400004004083
:103E700000080040000C00400004014000400140E8
:103E80000018004080B483B000AF786000BF0C37EA
:103E9000BD465DF8047B704780B483B000AF7860A6
:103EA00000BF0C37BD465DF8047B704780B588B015
:103EB00000AF78607B68002B01D1012328E17B688B
:103EC00093F84130DBB2002B09D17B68002283F8E4
:103ED00040207B68904A5A63786802F0CBFC7B688C
:103EE000022283F841207B681B68DB697A681268CC
:103EF00023F47B6323F00F03D3617B681B680222EA
:103F00001A627B685B69022B60D07B68DB68002BE0
:103F100002D110237B6101E020237B617B689B68D9
:103F2000202B02D87B695B007B610120FDF76EFCD2
:103F3000F8607B681B69B3F5007F25D17B68DB687F
:103F4000002B10D07B699B00FA68B2FBF3F213469A
:103F50009B0013445B001A467B685B69B2FBF3F37A
:103F600005333B611FE07B69DB00FA68B2FBF3F2CB
:103F700013469B0013445B001A467B685B69B2FBE7
:103F8000F3F305333B610EE0FA687B69B2FBF3F2B1
:103F900013469B0013445B001A467B685B69B2FBC7
:103FA000F3F305333B613B695C4AA2FB0323DB0867
:103FB0003B613B6903F00103BB613A69BB69D31AFA
:103FC0005B08FB61BB691B02BB6103E00223FB6171
:103FD0000023BB61FB69012B02D9FB69FF2B07D9C9
:103FE0007B685B6C43F010027B685A6401238FE0AE
:103FF0007B681A69BB6942EA03017B681B68FA693E
:104000000A431A627B681B68DB6923F47B6323F035
:104010000F037A6851687A68926811437A68D268A7
:1040200011437A6892690A431A437B681B6842F419
:104030000062DA617B681B6A012B61D17B68384AB8
:104040005A637B681B68374A934201D1364B01E0C3
:104050004FF04023DB697A68126832498A4201D105
:10406000314A01E04FF0402223F47B6323F00F0339
:10407000D3617B681B682B4A934201D12A4B01E034
:104080004FF0402302221A627B681B68254A934244
:1040900001D1254B01E04FF04023DB697B817B6838
:1040A0005B68B3F5007F03D07B685B68002B03D1AE
:1040B0004FF480733B6101E000233B613B699AB29E
:1040C0007B689B689BB213439AB27B68DB689BB2A8
:1040D00013439AB27B689B699BB213439AB27B8964
:1040E00013439BB243F400637B817B681B680D4ADA
:1040F000934201D10C4B01E04FF040237A89DA6101
:104100007B6800225A647B68012283F841200023E7
:1041100018462037BD4680BD09440008CDCCCCCC24
:104120001D450008003800400034004080B586B0CE
:1041300000AFF860B9601346FB80BB68002B02D06B
:10414000FB88002B01D101238EE0FB6893F84030FF
:10415000DBB2012B01D1022386E0FB68012283F848
:104160004020FB6893F84130DBB2012B05D0FB689F
:10417000002283F84020022376E0FB68032283F8C4
:104180004120FB6800225A64FB68BA685A62FB68E7
:104190001B68DB6903F007037B617B69032B02D09B
:1041A0007B69052B0AD1FB885B009AB2FB681A85F4
:1041B000FB885B009AB2FB685A8505E0FB68FA88C9
:1041C0001A85FB68FA885A85FB689B6B284A1A6433
:1041D000FB689B6B274ADA63FB689B6B264ADA64B1
:1041E000FB68986BFB685B6A1946FB681B680C33BD
:1041F0001A46FB681B8D9BB2FDF75CFE0346002B45
:104200000FD0FB685B6C43F00802FB685A64FB68E4
:10421000012283F84120FB68002283F8402001231B
:1042200022E0FB681B68DB6903F48063002B07D185
:10423000FB681B68DA69FB681B6842F48062DA611C
:10424000FB681B685B6803F00203002B07D1FB6867
:104250001B685A68FB681B6842F002025A60FB68E0
:10426000002283F84020002318461837BD4680BD41
:10427000E7420008A54200080343000880B483B069
:1042800000AF786000BF0C37BD465DF8047B704717
:1042900080B483B000AF786000BF0C37BD465DF8D6
:1042A000047B704780B584B000AF78607B689B6BFF
:1042B000FB607B68DB69002B0ED1FB681B685A68CA
:1042C000FB681B6822F002025A60FB6800225A85D4
:1042D000FB68012283F84120F86802F091FB00BFDF
:1042E0001037BD4680BD80B584B000AF78607B6874
:1042F0009B6BFB60F86802F06DFB00BF1037BD469A
:1043000080BD80B584B000AF78607B689B6BFB603C
:10431000FB681B685A68FB681B6822F003025A603E
:10432000FB6800225A85FB6800225A86FB6801223E
:1043300083F84120FB685B6C43F00802FB685A6419
:10434000F868FFF7A5FF00BF1037BD4680BD80B5F8
:1043500082B000AF78607B685B6A1A887B681B68F4
:10436000DA607B685B6A9A1C7B685A627B685B8D4B
:104370009BB2013B9AB27B685A857B685B8D9BB28E
:10438000002B0ED17B681B685A687B681B6822F083
:10439000A0025A607B68012283F84120786802F00D
:1043A0002FFB00BF0837BD4680BD80B582B000AF8F
:1043B00078607B681B68DA687B68DB6A92B21A8077
:1043C0007B68DB6A9A1C7B68DA627B685B8E9BB2D7
:1043D000013B9AB27B685A867B685B8E9BB2002B4E
:1043E0000ED17B681B685A687B681B6822F06002EC
:1043F0005A607B68012283F841207868FFF73EFF0E
:1044000000BF0837BD4680BD80B586B000AF78607C
:104410007B681B689B687B617B6893F84130DBB2EB
:10442000042B3AD17B6903F00103012B09D17B688E
:104430001B685B6803F04003402B02D17868FFF7EC
:10444000B4FF7B6903F04003402B26D17B681B68D7
:104450005B6803F02003202B1FD17B681B685A6820
:104460007B681B6822F060025A6000233B617B6816
:104470001B68DB683B617B681B689B683B613B6931
:104480007B68012283F841207B685B6C43F0020269
:104490007B685A647868FFF7FBFE7B6893F84130CD
:1044A000DBB2032B36D17B6903F00203022B09D167
:1044B0007B681B685B6803F08003802B02D17868FF
:1044C000FFF745FF7B6903F00803082B22D17B68C7
:1044D0001B685B6803F02003202B1BD17B681B68E3
:1044E0005A687B681B6822F0A0025A600023FB60B8
:1044F0007B681B689B68FB60FB687B68012283F814
:1045000041207B685B6C43F004027B685A647868E6
:10451000FFF7BEFE00BF1837BD4680BD80B588B02E
:1045200000AF78607B681B689B68FB617B681B68D9
:10453000924A934201D1924B01E04FF040239B6895
:10454000BB617B681B685B687B617B681B688B4A0F
:10455000934201D18A4B01E04FF040235B683B61FD
:104560007B685B68B3F5007F04D07B685B68002BD9
:1045700040F09980FB6903F00203022B07D17B69AD
:1045800003F08003002B02D0786800F025F9BB69A6
:1045900003F00103012B07D13B6903F04003002B1B
:1045A00002D0786800F0C8F9BB6903F04003402BE3
:1045B0003AD13B6903F02003002B35D07B681B68A0
:1045C0006E4A934201D16E4B01E04FF040235A688E
:1045D0007B681B6869498B4201D1694B01E04FF050
:1045E000402322F060025A607B681B685A687B682F
:1045F0001B6822F0A0025A600023FB607B681B68E6
:10460000DB68FB607B681B689B68FB60FB687B6802
:10461000012283F841207B685B6C43F002027B68D7
:104620005A647868FFF734FEFB6903F00803082B2F
:1046300040F0C3807B6903F02003002B00F0BD80B5
:104640007B681B685A687B681B6822F0A0025A606E
:104650007B681B68494A934201D1494B01E04FF006
:1046600040235A687B681B6844498B4201D1444B04
:1046700001E04FF0402322F060025A600023BB604B
:104680007B681B689B68BB60BB687B68012283F802
:1046900041207B685B6C43F004027B685A64786855
:1046A000FFF7F6FD89E0BB6903F00203022B07D197
:1046B0003B6903F08003002B02D0786800F0BEF85D
:1046C000FB6903F00103012B07D17B6903F0400371
:1046D000002B02D0786800F0FDF8FB6903F040037E
:1046E000402B2FD17B6903F02003002B2AD07B685D
:1046F0001B685A687B681B6822F060025A607B68FE
:104700001B681E4A934201D11D4B01E04FF040232C
:104710005A687B681B6819498B4201D1184B01E02C
:104720004FF0402322F0A0025A607B68012283F8F8
:1047300041207B685B6C43F002027B685A647868B6
:10474000FFF7A6FDBB6903F00803082B36D13B69D0
:1047500003F02003002B31D07B681B68074A93428B
:1047600001D1074B01E04FF040235A687B681B687A
:1047700002498B4206D1024B06E000BF00380040E0
:10478000003400404FF0402322F0A0025A607B68C2
:104790001B685A687B681B6822F060025A607B685D
:1047A000012283F841207B685B6C43F004027B6844
:1047B0005A647868FFF76CFD00E000BF00BF203747
:1047C000BD4680BD80B483B000AF786000BF0C37B9
:1047D000BD465DF8047B704780B582B000AF78605D
:1047E0007B685B6A991C7A6851621A887B681B68CF
:1047F000DA607B685B8D9BB2013B9AB27B685A851D
:104800007B685B8D9BB2002B13D17B681B685A6859
:104810007B681B6822F0A0025A607B685B8E9BB2AB
:10482000002B06D17B68012283F841207868FFF7CE
:10483000C9FF00BF0837BD4680BD000080B582B00B
:1048400000AF78607B685B6A991C7A68516219884E
:104850007B681B681D4A934201D11D4B01E04FF05C
:1048600040230A46DA607B685B8D9BB2013B9AB2BB
:104870007B685A857B685B8D9BB2002B21D17B685E
:104880001B68124A934201D1114B01E04FF04023C3
:104890005A687B681B680D498B4201D10C4B01E0C3
:1048A0004FF0402322F0A0025A607B685B8E9BB2DF
:1048B000002B06D17B68012283F841207868FFF73E
:1048C00081FF00BF0837BD4680BD00BF00380040F3
:1048D0000034004080B582B000AF78607B681B6810
:1048E000D8687B68DB6A991C7A68D16282B21A80C8
:1048F0007B685B8E9BB2013B9AB27B685A867B6871
:104900005B8E9BB2002B13D17B681B685A687B6857
:104910001B6822F060025A607B685B8D9BB2002BA3
:1049200006D17B68012283F841207868FFF74AFFAF
:1049300000BF0837BD4680BD80B582B000AF78604B
:104940007B681B68204A934201D1204B01E04FF065
:104950004023D8687B68DB6A991C7A68D16282B28E
:104960001A807B685B8E9BB2013B9AB27B685A8649
:104970007B685B8E9BB2002B21D17B681B68124A3F
:10498000934201D1114B01E04FF040235A687B68FC
:104990001B680D498B4201D10C4B01E04FF04023C5
:1049A00022F060025A607B685B8D9BB2002B06D1BF
:1049B0007B68012283F841207868FFF703FF00BF7E
:1049C0000837BD4680BD00BF0038004000340040BD
:1049D00080B500AFFEF7C4F900F036F800F0A4F897
:1049E00000F060F900F0C6FA00F050FA1448FEF743
:1049F0009DFA00211348FEF75BFB124B1B68DA6837
:104A0000104B1B6842F00102DA6002F033F805F047
:104A100059FC01F097FE00F0C1FE01F01BFB01F014
:104A200065FB03461B7A184601F0F8FE07F0EEFD21
:104A300001F0ECFE02F06EF807F004FE00BFF7E7AD
:104A400028010020E000002080B594B000AF07F1FD
:104A5000200330220021184608F036F907F10C0334
:104A600000221A605A609A60DA601A610023BB6003
:104A7000284B1B6C274A43F080531364254B1B6C57
:104A800003F08053BB60BB6800237B60224B1B6834
:104A9000214A43F4804313601F4B1B6803F4804397
:104AA0007B607B6802233B620123FB6210233B6334
:104AB0000223BB630023FB6308233B64A8237B64BE
:104AC0000223BB640423FB6407F120031846FCF7B0
:104AD00099F90346002B01D000F020F80F23FB606A
:104AE00002233B6100237B614FF4A053BB614FF471
:104AF0008053FB6107F10C0305211846FCF7FAFB14
:104B00000346002B01D000F009F800BF5037BD4626
:104B100080BD00BF003802400070004080B400AF8C
:104B200072B600BF00BFFDE780B58CB000AF07F1E3
:104B30001C0300221A605A609A60DA601A6100232E
:104B4000BB61534B1B6B524A43F010031363504B32
:104B50001B6B03F01003BB61BB6900237B614C4BF3
:104B60001B6B4B4A43F020031363494B1B6B03F051
:104B700020037B617B6900233B61454B1B6B444AEF
:104B800043F080031363424B1B6B03F080033B61D4
:104B90003B690023FB603E4B1B6B3D4A43F0010326
:104BA00013633B4B1B6B03F00103FB60FB680023AB
:104BB000BB60374B1B6B364A43F040031363344BE7
:104BC0001B6B03F04003BB60BB6800237B60304B72
:104BD0001B6B2F4A43F0020313632D4B1B6B03F037
:104BE00002037B607B6800233B60294B1B6B284AD8
:104BF00043F008031363264B1B6B03F008033B6071
:104C00003B6800224FF4E0612248FDF713F80122CF
:104C10004FF400412048FDF70DF81C23FB610023F1
:104C20003B6201237B6207F11C0319461B48FCF71A
:104C30004DFE4FF4E063FB6101233B6200237B6286
:104C40000023BB6207F11C0319461248FCF73EFE25
:104C50000123FB6100233B6202237B6207F11C03FB
:104C600019460F48FCF732FE4FF40043FB61012365
:104C70003B6200237B620023BB6207F11C031946E1
:104C80000548FCF723FE00BF3037BD4680BD00BF9E
:104C900000380240001402400004024000100240AC
:104CA0000000024080B58EB000AF07F11C03002267
:104CB0001A605A609A60DA601A615A619A613B46DA
:104CC00000221A605A609A60DA601A615A619A6129
:104CD0002F4B4FF020421A602D4B2E4A5A602C4B1E
:104CE00006229A602A4B0022DA60294B00221A61C0
:104CF000274B10225A61264B00229A61244B002236
:104D0000DA61234B00221A62214B00225A62204BA7
:104D10004FF480529A621E4B0022DA621C4B4FF411
:104D200080421A631A4B00225A63194B00229A637D
:104D3000174B00225A640F23FB610F233B623C2375
:104D40007B620023BB621023FB6211233B630023C1
:104D50007B6303233B600F237B600323BB600F2334
:104D6000FB6010233B6111237B610023BB613A464A
:104D700007F11C0319460648FBF7FCFF0346002B0E
:104D800001D0FFF7CBFE00BF3837BD4680BD00BF66
:104D90008C000020040100A080B586B000AF3B1D50
:104DA00000221A605A609A60DA601A612C4B1B6804
:104DB000002B51D12A4B01221A6000233B60294B62
:104DC0009B6B284A43F001039363264B9B6B03F0D4
:104DD00001033B603B684FF23F037B600223BB60F3
:104DE0000023FB6003233B610C237B613B1D1946C1
:104DF0001D48FCF76BFD41F23F037B600223BB6063
:104E00000023FB6003233B610C237B613B1D1946A0
:104E10001648FCF75BFD4FF680737B600223BB6096
:104E20000023FB6003233B610C237B613B1D194680
:104E30000F48FCF74BFD4CF233737B600223BB60E1
:104E40000023FB6003233B610C237B613B1D194660
:104E50000848FCF73BFD00E000BF1837BD4680BDA9
:104E6000DC0000200038024000140240001802401C
:104E700000100240000C024080B582B000AF7860A4
:104E8000FFF78AFF00BF0837BD4680BD80B58AB0F6
:104E900000AF07F1180300221A605A609A60DA60C6
:104EA00007F1100300221A605A603B4600221A6084
:104EB0005A609A60DA602D4B2D4A1A602B4BA7225C
:104EC0005A602A4B00229A60284B42F21072DA6034
:104ED000264B00221A61254B00225A61234B0022E7
:104EE0009A612248FDF7D2FF0346002B01D0FFF75D
:104EF00015FE4FF48053BB6107F1180319461B4898
:104F0000FEF78AFB0346002B01D0FFF707FE174888
:104F1000FEF774F80346002B01D0FFF7FFFD0023D6
:104F20003B6100237B6107F1100319460F48FEF730
:104F30002DFF0346002B01D0FFF7F0FD00233B605F
:104F400001237B600023BB600023FB603B46002203
:104F500019460648FEF7C4FA0346002B01D0FFF7B6
:104F6000DDFD00BF2837BD4680BD00BFE00000204A
:104F70000000014080B586B000AF07F108030022B1
:104F80001A605A609A60DA603B4600221A605A60E2
:104F90001D4B1E4A1A601C4B53225A601A4B0022AA
:104FA0009A60194B4FF6FF72DA60174B00221A61B4
:104FB000154B00229A611448FDF768FF0346002B49
:104FC00001D0FFF7ABFD4FF48053BB6007F108033E
:104FD00019460D48FEF720FB0346002B01D0FFF7D2
:104FE0009DFD00233B6000237B603B46194606483D
:104FF000FEF7CCFE0346002B01D0FFF78FFD00BF6C
:105000001837BD4680BD00BF2801002000040040C5
:1050100080B58AB000AF786007F1140300221A60EF
:105020005A609A60DA601A617B681B682F4A934263
:105030003DD100233B612E4B5B6C2D4A43F00103B5
:1050400053642B4B5B6C03F001033B613B69002312
:10505000FB60274B1B6B264A43F001031363244B71
:105060001B6B03F00103FB60FB684FF480737B61F3
:105070000223BB610023FB6100233B6201237B62AF
:1050800007F1140319461B48FCF720FC00220121FC
:105090001920FDF72EFE1920FDF747FE0022012101
:1050A0001B20FDF726FE1B20FDF73FFE1AE07B6864
:1050B0001B68114A934215D10023BB600C4B1B6C3B
:1050C0000B4A43F002031364094B1B6C03F0020309
:1050D000BB60BB68002200211D20FDF70AFE1D20D9
:1050E000FDF723FE00BF2837BD4680BD000001400C
:1050F00000380240000002400004004080B400AFCD
:1051000000BFFDE780B400AF00BFFDE780B400AF93
:1051100000BFFDE780B400AF00BFFDE780B400AF83
:1051200000BFFDE780B400AF00BFBD465DF8047B63
:10513000704780B400AF00BFBD465DF8047B704788
:1051400080B400AF00BFBD465DF8047B704780B5FA
:1051500000AFFDF757FE00BF80BD000080B500AF77
:105160000248FEF7CDF800BF80BD00BFE000002080
:1051700080B500AF0248FEF7C3F800BF80BD00BF96
:10518000E000002080B500AF0248FEF7B9F800BF8C
:1051900080BD00BF2801002080B500AF01F060FB9A
:1051A00000BF80BD80B582B000AF78607B681B68AF
:1051B000494A934240F08B807B681B7F012B40F073
:1051C0008680464B1B78DBB2002B17D17B681B68AF
:1051D00000225A627B681B681A6A7B681B6822F08F
:1051E0000A021A627B681B681A6A7B681B6842F0B5
:1051F00002021A62394B01221A7068E000217868B5
:10520000FEF7D2FA0346364A13607B681B681A6AB7
:105210007B681B6822F00A021A627B681A687B6846
:105220001B68126A1A622D4B00221A702C4B1B68E5
:10523000B3F57A6F0CD92A4B1B6841F2873293423F
:1052400006D8284B00221A60274B00221A702FE044
:10525000234B1B6840F21452934213D9204B1B6816
:10526000B3F5FA6F0ED21F4B1B685B0043F00103CE
:105270001C4A13601C4B1B78DBB20133DAB21A4BA9
:105280001A7015E0164B1B68B3F5967F10D9144BB6
:105290001B68B3F5487F0BD2124B1B685B00114AA9
:1052A0001360114B1B78DBB20133DAB20E4B1A706C
:1052B0000D4B1B78DBB21F2B09D90A4B1B680B4A1D
:1052C00013600B4B01221A70074B00221A7000BFAB
:1052D0000837BD4680BD00BF0000014070010020BE
:1052E00074010020780100207C0100208001002052
:1052F0007D01002080B483B000AF78607B681B68BC
:105300000C4A934210D10C4B00221A707B681B6828
:105310001A6A7B681B6822F00A021A627B681A68A4
:105320007B681B68126A1A6200BF0C37BD465DF8C5
:10533000047B7047000001407001002080B483B0FE
:1053400000AF00237B60104B5B6C0F4A43F480433B
:1053500053640D4B5B6C03F480437B607B680023DC
:105360003B60094B1B6C084A43F080531364064BA7
:105370001B6C03F080533B603B6800BF0C37BD469D
:105380005DF8047B704700BF0038024080B586B0EE
:1053900000AF7860144A154BD31A7B617B693B617F
:1053A000134B1B68002B02D1114B124A1A60104B91
:1053B0001A687B6813443A699A4207D207F0D2FC14
:1053C00003460C221A604FF0FF3309E0084B1B68BC
:1053D000FB60074B1A687B681344054A1360FB683F
:1053E00018461837BD4680BD0000022000040000AA
:1053F00084010020B00D002080B400AF01231846C6
:10540000BD465DF8047B704780B582B000AF786020
:10541000396007F0A7FC034616221A604FF0FF33ED
:1054200018460837BD4680BD80B582B000AF7860B1
:105430004FF0FF317868FFF7E7FF00BFFDE780B569
:1054400086B000AFF860B9607A6000237B610AE043
:10545000AFF300800146BB685A1CBA60CAB21A702A
:105460007B6901337B617A697B689A42F0DB7B68F8
:1054700018461837BD4680BD80B586B000AFF860CD
:10548000B9607A6000237B6109E0BB685A1CBA608E
:105490001B781846AFF300807B6901337B617A6922
:1054A0007B689A42F1DB7B6818461837BD4680BDA1
:1054B00080B483B000AF78604FF0FF3318460C37EC
:1054C000BD465DF8047B704780B483B000AF786060
:1054D00039603B684FF400525A60002318460C377D
:1054E000BD465DF8047B704780B483B000AF786040
:1054F000012318460C37BD465DF8047B704780B425
:1055000085B000AFF860B9607A60002318461437A0
:10551000BD465DF8047B7047DFF834D0FBF748FBED
:105520000C480D490D4A002302E0D458C4500433FE
:10553000C4188C42F9D30A4A0A4C002301E01360D4
:105540000432A242FBD307F013FCFFF741FA704785
:1055500000000220000000206C000020C4D60B08D0
:105560006C000020AC0D0020FEE7000080B584B088
:1055700000AF78600023FB7314E0FA7B13465B00F6
:1055800013440C4A134403221946786807F08CFB35
:105590000346002B03D1FB7B0133DBB206E0FB7B30
:1055A0000133FB73FB7B0B2BE7D901231846103724
:1055B000BD4680BDA4DB000880B483B000AF786036
:1055C0007B681B78303BDBB21A46920013445B00C9
:1055D000DAB27B6801331B781344DBB2303BDBB2B9
:1055E00018460C37BD465DF8047B704780B584B023
:1055F00000AF78603E4BFB603E4BBB60FB680733FF
:105600001B78303B9BB21A465201D21A92001344C7
:10561000DB009AB2FB6808331B78303B9BB219461B
:1056200089000B4419468800194603460B449B0029
:105630009BB213449AB2FB6809331B78303B9BB290
:10564000194689000B445B009BB213449BB2FA6875
:105650000A32127813449BB2303B9AB27B681A80AC
:10566000F868FFF783FF03461A467B689A70FB6869
:1056700004331B78202B0AD0FB6804331B78303BA3
:10568000DBB21A46920013445B00DBB200E0002359
:10569000FA68053212781344DBB2303BDAB27B6829
:1056A000DA70B868FFF788FF03461A467B681A71FC
:1056B000BB6803331846FFF77FFF03461A467B6833
:1056C0005A71BB6806331846FFF776FF03461A4641
:1056D0007B689A717B681B8840F2E972934203D819
:1056E0007B6840F2EA721A8000BF1037BD4680BD69
:1056F00024DA000830DA000880B592B000AF034623
:10570000FB7107F1180330220021184607F0DCFA7C
:1057100007F1080300221A605A609A60DA60FCF709
:105720008BFEFB79002B11D00423BB6101233B626C
:1057300007F118031846FBF765FB0346002B01D061
:10574000002324E04FF480737B6110E00823BB61E9
:105750000123FB6207F118031846FBF753FB0346CE
:10576000002B01D0002312E04FF400737B61022371
:10577000BB6007F108031846FBF766FF0346002BE2
:1057800001D0002303E0044B01221A6001231846D4
:105790004837BD4680BD00BF3C0E474280B584B04F
:1057A00000AF00233B60304B1B6C2F4A43F080530B
:1057B00013642D4B1B6C03F080533B603B68FCF77C
:1057C0003BFE0120FFF798FF0346002B08D1274B33
:1057D00001221A60254B00221A600020FFF78CFF7F
:1057E000234B244A1A60224B00225A60204B7F220E
:1057F0009A601F4BFF22DA601D4B00221A611C4B7E
:1058000000225A611A4B00229A611948FCF728FEBF
:105810000346002B03D0184B00221A7020E0164BD1
:1058200001221A7000211248FDF770F903464AF26E
:105830005A5293420CBF01230023DBB2FB73FB7B64
:10584000002B0DD13B1D1846FFF7D0FE3B1D18461F
:1058500000F056F84AF25A5200210548FDF73CF98B
:105860001037BD4680BD00BF00380240400E4742A1
:105870008801002000280040A801002080B588B0E1
:1058800000AF78607B68002B31D01B4B1B78002B5E
:1058900013D007F10803002219461848FCF738FF17
:1058A0000346002B09D107F11C03002219461348B7
:1058B000FDF733F80346002B03D07868FFF796FE18
:1058C00016E0FB7F03F5FA639AB27B681A807A7F51
:1058D0007B689A70BA7F7B68DA703A7A7B681A7153
:1058E0007A7A7B685A71BA7A7B689A7100E000BF55
:1058F0002037BD4680BD00BFA801002088010020E0
:1059000080B588B000AF78600023FB6107F1080321
:1059100000221A605A609A60DA601A617B68002B74
:105920002AD0354B1B78002B26D07B681B88B3F51B
:10593000FA6F21D37B681B8840F6330293421BD851
:105940007B689B78002B17D07B689B780C2B13D837
:105950007B68DB78002B0FD07B68DB781F2B0BD8A4
:105960007B681B79172B07D87B685B793B2B03D8A7
:105970007B689B793B2B01D9002339E07B681B882E
:10598000DBB23033DBB2FB777B689B787B777B685D
:10599000DB78BB7701233B777B681B793B727B68A5
:1059A0005B797B727B689B79BB7200237B610023F0
:1059B000BB6107F10803002219461048FCF7EBFD14
:1059C0000346002B01D0002312E007F11C03002244
:1059D00019460A48FCF7FAFE0346002B01D00023C3
:1059E00006E04AF25A5200210448FDF775F80123F7
:1059F00018462037BD4680BDA80100208801002040
:105A000080B483B000AF00237B6003E000BF7B68FD
:105A100001337B607B683B2BF8D900BF00BF0C379C
:105A2000BD465DF8047B704780B586B000AF3B1D76
:105A300000221A605A609A60DA601A614FF40073AB
:105A40007B601123BB600123FB6003233B613B1D93
:105A500019460348FBF73AFF00BF1837BD4680BD23
:105A60000004024080B586B000AF3B1D00221A60E2
:105A70005A609A60DA601A614FF400737B60002309
:105A8000BB600123FB6003233B613B1D19460348B8
:105A9000FBF71CFF00BF1837BD4680BD0004024065
:105AA00080B586B000AF3B1D00221A605A609A6034
:105AB000DA601A6100233B60144B1B6B134A43F0FE
:105AC00002031363114B1B6B03F002033B603B6843
:105AD0004FF440737B601123BB600123FB60032301
