:020000040800F2
:100000000000022065380008553400085D340008FF
:10001000653400086D3400087534000800000000E5
:100020000000000000000000000000007D34000817
:100030008B3400080000000099340008A734000841
:10004000B5380008B5380008B5380008B5380008DC
:10005000B5380008B5380008B5380008B5380008CC
:10006000B5380008B5380008B5380008B5380008BC
:10007000B5380008B5380008B5380008B5380008AC
:10008000B5380008B5380008B5380008B53800089C
:10009000B5380008B5380008B5380008B53800088C
:1000A000B5380008B5340008B5380008C934000870
:1000B000B5380008DD340008B5380008B538000848
:1000C000B5380008B5380008B5380008B53800085C
:1000D000B5380008B5380008B5380008B53800084C
:1000E000B5380008B5380008B5380008B53800083C
:1000F000B5380008B5380008B5380008B53800082C
:10010000B5380008B5380008B5380008B53800081B
:10011000B5380008B5380008B5380008B53800080B
:10012000B5380008B5380008B5380008B5380008FB
:10013000B5380008B5380008B5380008B5380008EB
:10014000B5380008B5380008B5380008B5380008DB
:10015000B5380008B5380008B5380008B5380008CB
:10016000B5380008B5380008B5380008B5380008BB
:10017000B5380008B5380008B538000800000000A0
:08018000B5380008B53800088D
:1001900010B5054C237833B9044B13B10448AFF3C1
:1001A00000800123237010BD6800002000000000C3
:1001B0008093000808B5034B1BB103490348AFF314
:1001C000008008BD000000006C0000208093000843
:1001D00070B54FF0FF0C4CF4E06C1CEA11541DBFDD
:1001E0001CEA135594EA0C0F95EA0C0F00F0DEF8A8
:1001F0002C4481EA030621EA4C5123EA4C5350EA8D
:10020000013518BF52EA033541F4801143F48013DD
:1002100038D0A0FB02CE4FF00005E1FB02E506F06E
:100220000042E0FB03E54FF00006E1FB03569CF0C3
:10023000000F18BF4EF0010EA4F1FF04B6F5007FC9
:1002400064F5407404D25FEA4E0E6D4146EB06063B
:1002500042EAC62141EA55514FEAC52040EA5E50C4
:100260004FEACE2EB4F1FD0C88BFBCF5E06F1ED86E
:10027000BEF1004F08BF5FEA500E50F1000041EBA5
:10028000045170BD06F0004646EA010140EA020052
:1002900081EA0301B4EB5C04C2BFD4EB0C0541EA74
:1002A000045170BD41F480114FF0000E013C00F389
:1002B000AB8014F1360FDEBF002001F0004170BDAD
:1002C000C4F10004203C35DA0C341BDC04F11404C6
:1002D000C4F1200500FA05F320FA04F001FA05F252
:1002E00040EA020001F0004221F0004110EBD3701F
:1002F00021FA04F642EB06015EEA430E08BF20EA4B
:10030000D37070BDC4F10C04C4F1200500FA04F3ED
:1003100020FA05F001FA04F240EA020001F000417F
:1003200010EBD37041F100015EEA430E08BF20EAF2
:10033000D37070BDC4F1200500FA05F24EEA020E3A
:1003400020FA04F301FA05F243EA020321FA04F069
:1003500001F0004121FA04F220EA020000EBD37020
:100360005EEA430E08BF20EAD37070BD94F0000F20
:100370000FD101F00046400041EB010111F4801F54
:1003800008BF013CF7D041EA060195F0000F18BF05
:10039000704703F00046520043EB030313F4801F41
:1003A00008BF013DF7D043EA0603704794EA0C0FFB
:1003B0000CEA135518BF95EA0C0F0CD050EA410611
:1003C00018BF52EA4306D1D181EA030101F000418E
:1003D0004FF0000070BD50EA410606BF10461946B6
:1003E00052EA430619D094EA0C0F02D150EA0136C2
:1003F00013D195EA0C0F05D152EA03361CBF104603
:1004000019460AD181EA030101F0004141F0FE41A1
:1004100041F470014FF0000070BD41F0FE4141F425
:10042000780170BD81F0004102E000BF83F000431D
:1004300030B54FEA41044FEA430594EA050F08BF7F
:1004400090EA020F1FBF54EA000C55EA020C7FEA43
:10045000645C7FEA655C00F0E2804FEA5454D4EBC0
:100460005555B8BF6D420CDD2C4480EA020281EA8A
:10047000030382EA000083EA010180EA020281EAC2
:100480000303362D88BF30BD11F0004F4FEA013114
:100490004FF4801C4CEA113102D0404261EB410123
:1004A00013F0004F4FEA03334CEA133302D05242A9
:1004B00063EB430394EA050F00F0A780A4F1010465
:1004C000D5F1200E0DDB02FA0EFC22FA05F280189F
:1004D00041F1000103FA0EF2801843FA05F3594185
:1004E0000EE0A5F120050EF1200E012A03FA0EFC04
:1004F00028BF4CF0020C43FA05F3C01851EBE3712E
:1005000001F0004507D54FF0000EDCF1000C7EEB4A
:1005100000006EEB0101B1F5801F1BD3B1F5001F88
:100520000CD349085FEA30004FEA3C0C04F10104A7
:100530004FEA445212F5800F80F09A80BCF1004FD0
:1005400008BF5FEA500C50F1000041EB045141EA52
:10055000050130BD5FEA4C0C404141EB0101013C1B
:1005600028BFB1F5801FE9D291F0000F04BF01460A
:100570000020B1FA81F308BF2033A3F10B03B3F1DC
:1005800020020CDA0C3208DD02F1140CC2F10C026C
:1005900001FA0CF021FA02F10CE002F11402D8BFCA
:1005A000C2F1200C01FA02F120FA0CFCDCBF41EA96
:1005B0000C019040E41AA2BF01EB0451294330BD65
:1005C0006FEA04041F3C1CDA0C340EDC04F1140442
:1005D000C4F1200220FA04F001FA02F340EA030019
:1005E00021FA04F345EA030130BDC4F10C04C4F15F
:1005F000200220FA02F001FA04F340EA030029463F
:1006000030BD21FA04F0294630BD94F0000F83F488
:10061000801306BF81F480110134013D4EE77FEA6B
:10062000645C18BF7FEA655C29D094EA050F08BFB7
:1006300090EA020F05D054EA000C04BF1946104698
:1006400030BD91EA030F1EBF0021002030BD5FEADC
:10065000545C05D14000494128BF41F0004130BD04
:1006600014F580043CBF01F5801130BD01F0004558
:1006700045F0FE4141F470014FF0000030BD7FEACB
:10068000645C1ABF194610467FEA655C1CBF0B46C6
:10069000024650EA013406BF52EA033591EA030FDD
:1006A00041F4002130BD00BF90F0000F04BF0021D5
:1006B000704730B54FF4806404F132044FF0000508
:1006C0004FF0000150E700BF90F0000F04BF002181
:1006D000704730B54FF4806404F1320410F00045E7
:1006E00048BF40424FF000013EE700BF42004FEAE2
:1006F000E2014FEA31014FEA02701FBF12F07F435F
:1007000093F07F4F81F06051704732F07F4208BF15
:10071000704793F07F4F04BF41F40021704730B51C
:100720004FF4607401F0004521F000411CE700BF68
:1007300050EA010208BF704730B54FF000050AE0EB
:1007400050EA010208BF704730B511F0004502D5EC
:10075000404261EB41014FF4806404F132045FEAEE
:10076000915C3FF4D8AE4FF003025FEADC0C18BF97
:1007700003325FEADC0C18BF033202EBDC02C2F189
:10078000200300FA03FC20FA02F001FA03FE40EA1B
:100790000E0021FA02F11444BDE600BF4A0011D256
:1007A00012F5001211D20DD56FF47873B3EB6252CB
:1007B0000ED44FEAC12343F0004343EA505323FAD7
:1007C00002F070474FF00000704750EA013002D14C
:1007D0004FF0FF3070474FF00000704753B94AB9EF
:1007E000002908BF00281CBF4FF0FF314FF0FF3039
:1007F00000F088B9ADF1080C6DE904CE00F006F800
:10080000DDF804E0DDE9022304B070472DE9F0478C
:10081000089D0F4604468C46002B48D18A42164656
:1008200061D9B2FA82F34BB1C3F1200201FA03FCA1
:1008300020FA02F29E4042EA0C0C9C404FEA164E0F
:10084000B7B2BCFBFEF1220C0EFB11CC42EA0C420B
:1008500001FB07F0904209D9B21801F1FF3C80F08A
:10086000EE80904240F2EB8002393244121AA4B278
:10087000B2FBFEF00EFB102244EA024400FB07F735
:10088000A74209D9341900F1FF3280F0DA80A7427B
:1008900040F2D7803444023840EA0140E41B002192
:1008A0001DB1DC400023C5E90043BDE8F0878B4261
:1008B00006D90DB1C5E9000100210846BDE8F08761
:1008C000B3FA83F1002948D1BB4202D3824200F23D
:1008D0000781841A67EB030201209446002DE4D0BF
:1008E000C5E9004CE1E7002A00F09280B2FA82F3F9
:1008F000002B40F0A8808A1A4FEA164E1FFA86FC99
:100900000121200CB2FBFEF70EFB172240EA024247
:100910000CFB07F0904207D9B21807F1FF3802D25A
:10092000904200F2E2804746121AA4B2B2FBFEF0F7
:100930000EFB102244EA02440CFB00FCA44507D93C
:10094000341900F1FF3202D2A44500F2CB801046E8
:10095000A4EB0C0440EA0740A2E7C1F120068B405B
:1009600022FA06FC4CEA030C07FA01F420FA06F31B
:10097000F7404FEA1C49234300FA01F81FFA8CFEA6
:10098000B7FBF9F01C0C09FB107744EA074400FBA5
:100990000EF7A74202FA01F20AD91CEB040400F197
:1009A000FF3A80F09B80A74240F29880023864446E
:1009B000E41B9FB2B4FBF9F309FB134447EA044478
:1009C00003FB0EFEA64509D91CEB040403F1FF3717
:1009D00080F08280A6457FD9023B644443EA004010
:1009E000A4EB0E04A0FB02E7BC427346B94663D3F6
:1009F00060D05DB1B8EB030264EB090404FA06F6BB
:100A000022FA01F31E43CC40C5E9006400214CE703
:100A10006208480842EAC1710B0C43EA00438AB2FB
:100A200042EA0342B3FBF6F1E407B4463746B64662
:100A30001F23B0FBF6F0D21B41EA004161E761469B
:100A400014E7104628E7C3F1200120FA01F29E4086
:100A500027FA01F19F403A434FEA164E1FFA86FCEF
:100A6000B1FBFEF70EFB1710110C41EA004107FB2A
:100A70000CF8884504FA03F43AD9711807F1FF30ED
:100A800001D288451FD8A1EB0801B1FBFEF808FB95
:100A90000CF70EFB181192B242EA0142BA422FD271
:100AA000B21808F1FF31C6D2BA42C4D2A8F102018D
:100AB0003244C0E7F0459CD2BEEB020367EB0C0763
:100AC0000138B94695E7A6EB08084144B81EB1FBCA
:100AD000FEF808FB0CF7DCE73B467FE7504667E78C
:100AE0000846FBE63444023832E7023F32441BE753
:100AF000A1EB08013846B1FBFEF808FB0CF7C8E78C
:100B0000414698E7704700BF000000000000000069
:100B100001F0FF01102A2BDB10F0070F08D010F8AE
:100B2000013B013A8B422DD010F0070F42B3F6D1B2
:100B3000F0B441EA012141EA014122F007047FF0CB
:100B400000070023F0E80256083C85EA010586EA22
:100B5000010685FA47F5A3FA87F586FA47F6A5FA5E
:100B600087F68EB9EED1F0BC01F0FF0102F007026A
:100B700032B110F8013B013A83EA010313B1F8D115
:100B80000020704701387047002D06BF35460338F6
:100B9000073815F0010F07D1013015F4807F02BF2F
:100BA000013015F4C03F0130F0BC0138704700BF80
:100BB00080B400AF064BD3F88830054A43F4700385
:100BC000C2F8883000BFBD465DF8047B704700BFA7
:100BD00000ED00E080B487B000AF786039603B681A
:100BE0001A687B6853F822303A68126823F00101D2
:100BF0007B6843F822103B689B68082B02D1402396
:100C00007B6101E000237B613B685A687B691A4382
:100C10003B689B681A433B68DB681A433B681B6967
:100C20001A433B685B691A433B68DB691A433B68BC
:100C30001B6A1A433B685B6A1A433B689B6A1A4308
:100C40003B68DB6A1A433B681B6B13433B613B68A1
:100C50009B693A6913433B613B68DB6B3A69134319
:100C60003B61104BFB60FB6843F48063FB60FB68F7
:100C700043F4E023FB603B681A687B6853F822204A
:100C8000FB68DB4302EA03013B681A683B691943CE
:100C90007B6843F82210002318461C37BD465DF8D8
:100CA000047B70477FFB080080B485B000AFF8601C
:100CB000B9607A60BB681A68BB685B681B011A433D
:100CC000BB689B681B021A43BB68DB681B041A43A2
:100CD000BB681B69013B1B051A43BB685B69023B90
:100CE0001B0642EA0301BB689B697A68013219431B
:100CF000FB6843F82210002318461437BD465DF800
:100D0000047B704780B485B000AFF860B9607A604A
:100D10003B603B68B3F5804F1DD1FB687A6853F8A0
:100D20002220134B1340BA681168BA685268120146
:100D30001143BA68926812021143BA68926911436A
:100D4000BA68D26812040A4343EA0201FB687A686F
:100D500043F8221005E0FB687A686FF0704143F8B1
:100D60002210002318461437BD465DF8047B7047F7
:100D70000000F0CF80B584B000AFF860B9607A6051
:100D8000FB68002B01D1012338E0FB6893F8493060
:100D9000DBB2002B06D1FB68002283F84820F868FC
:100DA00002F016FAFB681A68FB6808331946104609
:100DB000FFF710FFFB681868FB689B681A46B96864
:100DC000FFF772FFFB685868FB689A68FB681B6B4B
:100DD0007968FFF797FFFB681B68FA68926853F819
:100DE0002210FB681B68FA68926841F0010143F821
:100DF0002210FB68012283F849200023184610378F
:100E0000BD4680BD80B586B000AF78607B68002BA2
:100E100001D1012367E27B681B6803F00103002B0B
:100E200075D0884B9B6803F00C03042B0CD0854BCA
:100E30009B6803F00C03082B12D1824B5B6803F410
:100E40008003B3F5800F0BD17E4B1B6803F4003396
:100E5000002B5BD07B685B68002B57D1012342E2FB
:100E60007B685B68B3F5803F06D1764B1B68754A9B
:100E700043F4803313601DE07B685B68B3F5A02FFB
:100E80000CD1704B1B686F4A43F4802313606D4B89
:100E90001B686C4A43F4803313600BE0694B1B689A
:100EA000684A23F480331360664B1B68654A23F459
:100EB000802313607B685B68002B13D000F00AFF6F
:100EC000386108E000F006FF02463B69D31A642B44
:100ED00001D9032307E25B4B1B6803F40033002BAB
:100EE000F0D014E000F0F6FE386108E000F0F2FE09
:100EF00002463B69D31A642B01D90323F3E1514B1A
:100F00001B6803F40033002BF0D100E000BF7B68C6
:100F10001B6803F00203002B63D04A4B9B6803F06D
:100F20000C03002B0BD0474B9B6803F00C03082BE2
:100F30001CD1444B5B6803F48003002B16D1414B5A
:100F40001B6803F00203002B05D07B68DB68012BD4
:100F500001D00123C7E13B4B1B6823F0F8027B68FB
:100F60001B69DB00374913430B603AE07B68DB68A1
:100F7000002B20D0344B01221A6000F0ABFE386108
:100F800008E000F0A7FE02463B69D31A022B01D904
:100F90000323A8E12B4B1B6803F00203002BF0D0C6
:100FA000284B1B6823F0F8027B681B69DB0025498E
:100FB00013430B6015E0244B00221A6000F08AFEF8
:100FC000386108E000F086FE02463B69D31A022B26
:100FD00001D9032387E11B4B1B6803F00203002B9D
:100FE000F0D17B681B6803F00803002B36D07B68C8
:100FF0005B69002B16D0154B01221A6000F06AFEC7
:10100000386108E000F066FE02463B69D31A022B05
:1010100001D9032367E10B4B5B6F03F00203002B45
:10102000F0D01BE0094B00221A6000F053FE38613B
:101030000EE000F04FFE02463B69D31A022B07D99F
:10104000032350E10038024000004742800E47422F
:10105000884B5B6F03F00203002BEAD17B681B68AF
:1010600003F00403002B00F097800023FB75814BF5
:101070001B6C03F08053002B0FD10023BB607D4B12
:101080001B6C7C4A43F0805313647A4B1B6C03F057
:101090008053BB60BB680123FB75774B1B6803F46F
:1010A0008073002B18D1744B1B68734A43F4807310
:1010B000136000F00FFE386108E000F00BFE0246FE
:1010C0003B69D31A022B01D903230CE16A4B1B683D
:1010D00003F48073002BF0D07B689B68012B06D152
:1010E000644B1B6F634A43F0010313671CE07B688A
:1010F0009B68052B0CD15F4B1B6F5E4A43F00403CA
:1011000013675C4B1B6F5B4A43F0010313670BE0F3
:10111000584B1B6F574A23F001031367554B1B6F46
:10112000544A23F0040313677B689B68002B15D097
:1011300000F0D0FD38610AE000F0CCFD02463B69CA
:10114000D31A41F28832934201D90323CBE0494BB1
:101150001B6F03F00203002BEED014E000F0BAFD89
:1011600038610AE000F0B6FD02463B69D31A41F24D
:101170008832934201D90323B5E03E4B1B6F03F045
:101180000203002BEED1FB7D012B05D1394B1B6CEB
:10119000384A23F0805313647B689B69002B00F06E
:1011A000A180344B9B6803F00C03082B5CD07B6858
:1011B0009B69022B41D1314B00221A6000F08AFD5D
:1011C000386108E000F086FD02463B69D31A022B25
:1011D00001D9032387E0274B1B6803F00073002B22
:1011E000F0D17B68DA697B681B6A1A437B685B6AAB
:1011F0009B011A437B689B6A5B08013B1B041A43F3
:101200007B68DB6A1B061B4913434B601B4B0122A7
:101210001A6000F05FFD386108E000F05BFD0246F7
:101220003B69D31A022B01D903235CE0114B1B68E5
:1012300003F00073002BF0D054E0104B00221A6032
:1012400000F048FD386108E000F044FD02463B69CB
:10125000D31A022B01D9032345E0064B1B6803F088
:101260000073002BF0D13DE07B689B69012B07D117
:10127000012338E00038024000700040600047421F
:101280001B4B5B68FB607B689B69012B28D0FB686C
:1012900003F480027B68DB699A4221D1FB6803F08A
:1012A0003F027B681B6A9A421AD1FA6847F6C073FC
:1012B00013407A68526A9201934211D1FB6803F499
:1012C00040327B689B6A5B08013B1B049A4207D152
:1012D000FB6803F070627B68DB6A1B069A4201D0F0
:1012E000012300E0002318461837BD4680BD00BF2B
:1012F0000038024080B584B000AF786039607B6808
:10130000002B01D10123CCE0684B1B6803F00703DD
:101310003A689A420CD9654B3A68D2B21A70634B5C
:101320001B6803F007033A689A4201D00123B8E032
:101330007B681B6803F00203002B20D07B681B68CE
:1013400003F00403002B05D0594B9B68584A43F423
:10135000E05393607B681B6803F00803002B05D003
:10136000534B9B68524A43F460439360504B9B68D5
:1013700023F0F0027B689B684D4913438B607B68C8
:101380001B6803F00103002B44D07B685B68012BD2
:1013900007D1474B1B6803F40033002B19D10123FD
:1013A0007FE07B685B68022B03D07B685B68032B64
:1013B00007D13F4B1B6803F00073002B09D10123B9
:1013C0006FE03B4B1B6803F00203002B01D10123AC
:1013D00067E0374B9B6823F003027B685B68344906
:1013E00013438B6000F076FCF8600AE000F072FCBA
:1013F0000246FB68D31A41F28832934201D9032393
:101400004FE02B4B9B6803F00C027B685B689B00F2
:101410009A42EBD1254B1B6803F007033A689A42C6
:101420000CD2224B3A68D2B21A70204B1B6803F0E0
:1014300007033A689A4201D0012332E07B681B68B7
:1014400003F00403002B08D0194B9B6823F4E052EF
:101450007B68DB68164913438B607B681B6803F06D
:101460000803002B09D0124B9B6823F460427B6871
:101470001B69DB000E4913438B6000F021F8024624
:101480000B4B9B681B0903F00F030A49CB5C22FA44
:1014900003F3094A1360094B1B68184600F0D6FB9A
:1014A000002318461037BD4680BD00BF003C0240F7
:1014B000003802408C940008000000200400002046
:1014C0002DE9B04F90B000AF00237B630023FB6396
:1014D00000233B630023BB63584B9B6803F00C0362
:1014E000082B0DD0082B00F2A080002B02D0042B7B
:1014F00003D09AE0524BBB639AE0524BBB6397E038
:101500004E4B5B6803F03F037B634C4B5B6803F41B
:101510008003002B27D0494B5B689B0900223B626C
:101520007A623B6AC3F308000021464B03FB01F2D9
:10153000002300FB03F31344424AA0FB0221F9629B
:10154000BA62FA6A1344FB627B6B0022BB61FA61E8
:10155000D7E90623D7E90A01FFF740F902460B460F
:101560001346FB6353E0354B5B689B0900223B61EC
:101570007A613B69C3F3080A4FF0000B52465B46A1
:101580004FF000004FF00001590141EAD2615001D3
:1015900002460B46B2EB0A0863EB0B094FF0000260
:1015A0004FF000034FEA891343EA98634FEA881229
:1015B000B2EB080463EB09054FF000024FF00003A3
:1015C000EB0043EA5473E20014461D4614EB0A0391
:1015D0003B6045EB0B037B604FF000024FF00003D4
:1015E000D7E9004529468B02214643EA915321461B
:1015F0008A02104619467B6B0022BB60FA60D7E96D
:101600000223FFF7EBF802460B461346FB630B4B36
:101610005B681B0C03F0030301335B003B63FA6B55
:101620003B6BB2FBF3F3BB6302E0054BBB6300BF54
:10163000BB6B18464037BD46BDE8B08F003802404E
:101640000024F40040787D0180B489B000AF786058
:10165000396000237B6100233B610023BB610023D1
:10166000FB616BE10122FB6902FA03F37B613B68DA
:101670001B687A6913403B613A697B699A4240F082
:101680005A813B685B6803F00303012B05D03B687C
:101690005B6803F00303022B30D17B689B68BB615E
:1016A000FB695B00032202FA03F3DB43BA691340D0
:1016B000BB613B68DA68FB695B0002FA03F3BA6955
:1016C0001343BB617B68BA699A607B685B68BB61E6
:1016D0000122FB6902FA03F3DB43BA691340BB61E1
:1016E0003B685B681B0903F00102FB6902FA03F324
:1016F000BA691343BB617B68BA695A603B685B682F
:1017000003F00303032B17D07B68DB68BB61FB6925
:101710005B00032202FA03F3DB43BA691340BB61A7
:101720003B689A68FB695B0002FA03F3BA691343EA
:10173000BB617B68BA69DA603B685B6803F00303EE
:10174000022B23D1FB69DA087B68083253F8223078
:10175000BB61FB6903F007039B000F2202FA03F34E
:10176000DB43BA691340BB613B681A69FB6903F04C
:1017700007039B0002FA03F3BA691343BB61FB69D9
:10178000DA087B680832B96943F822107B681B6865
:10179000BB61FB695B00032202FA03F3DB43BA6916
:1017A0001340BB613B685B6803F00302FB695B00AD
:1017B00002FA03F3BA691343BB617B68BA691A6022
:1017C0003B685B6803F44033002B00F0B4800023D7
:1017D000FB60604B5B6C5F4A43F4804353645D4B3A
:1017E0005B6C03F48043FB60FB685B4AFB699B080E
:1017F000023352F82330BB61FB6903F003039B0003
:101800000F2202FA03F3DB43BA691340BB617B6822
:10181000524A93422BD07B68514A934225D07B6831
:10182000504A93421FD07B684F4A934219D07B683D
:101830004E4A934213D07B684D4A93420DD07B6849
:101840004C4A934207D07B684B4A934201D107230D
:101850000EE008230CE006230AE0052308E0042339
:1018600006E0032304E0022302E0012300E000235A
:10187000FA6902F0030292009340BA691343BB6114
:101880003549FB699B080233BA6941F823203B4B79
:101890009B68BB613B69DB43BA691340BB613B6832
:1018A0005B6803F48013002B03D0BA693B691343D0
:1018B000BB61324ABB699360304BDB68BB613B69FB
:1018C000DB43BA691340BB613B685B6803F40013F8
:1018D000002B03D0BA693B691343BB61274ABB693C
:1018E000D360264B5B68BB613B69DB43BA6913403D
:1018F000BB613B685B6803F40033002B03D0BA691B
:101900003B691343BB611D4ABB6953601B4B1B689A
:10191000BB613B69DB43BA691340BB613B685B68F1
:1019200003F48033002B03D0BA693B691343BB61D6
:10193000124ABB691360FB690133FB61FB690F2B22
:101940007FF690AE00BF00BF2437BD465DF8047B34
:10195000704700BF003802400038014000000240DC
:101960000004024000080240000C02400010024047
:101970000014024000180240001C0240003C0140DC
:1019800080B485B000AF78600B467B807B681A69B5
:101990007B881340002B02D00123FB7301E000235E
:1019A000FB73FB7B18461437BD465DF8047B70471C
:1019B00080B483B000AF78600B467B8013467B70A9
:1019C0007B78002B03D07A887B689A6103E07B8860
:1019D0001A047B689A6100BF0C37BD465DF8047B32
:1019E0007047000080B485B000AF78607B6803F07A
:1019F0000703FB600C4BDB68BB60BA684FF6FF0364
:101A00001340BB60FB681A02BB68134343F0BF631B
:101A100043F40033BB60044ABB68D36000BF143793
:101A2000BD465DF8047B704700ED00E080B400AF78
:101A3000044BDB681B0A03F007031846BD465DF83C
:101A4000047B704700ED00E080B483B000AF034634
:101A5000FB7197F90730002B0BDBFB7903F01F02BA
:101A6000074997F907305B09012000FA02F241F8B3
:101A7000232000BF0C37BD465DF8047B704700BFD4
:101A800000E100E080B483B000AF03463960FB7131
:101A900097F90730002B0ADB3B68DAB20C4997F95B
:101AA00007301201D2B20B4483F800230AE03B68EE
:101AB000DAB20849FB7903F00F03043B1201D2B2FA
:101AC0000B441A7600BF0C37BD465DF8047B7047A7
:101AD00000E100E000ED00E080B489B000AFF86004
:101AE000B9607A60FB6803F00703FB61FB69C3F12F
:101AF0000703042B28BF0423BB61FB690433062BB7
:101B000002D9FB69033B00E000237B614FF0FF3209
:101B1000BB6902FA03F3DA43BB681A407B699A4057
:101B20004FF0FF317B6901FA03F3D9437B680B4027
:101B3000134318462437BD465DF8047B7047000008
:101B400080B582B000AF78607B68013BB3F1807FE5
:101B500001D301230FE00A4A7B68013B53600F2148
:101B60004FF0FF30FFF78EFF054B00229A60044BC9
:101B700007221A60002318460837BD4680BD00BF03
:101B800010E000E080B582B000AF78607868FFF7C1
:101B900029FF00BF0837BD4680BD80B586B000AFC5
:101BA0000346B9607A60FB7300237B61FFF73EFF59
:101BB00078617A68B9687869FFF78EFF024697F90D
:101BC0000F3011461846FFF75DFF00BF1837BD46BE
:101BD00080BD80B582B000AF0346FB7197F9073036
:101BE0001846FFF731FF00BF0837BD4680BD80B5FE
:101BF00082B000AF78607868FFF7A2FF034618460E
:101C00000837BD4680BD000080B500AF0E4B1B6895
:101C10000D4A43F4007313600B4B1B680A4A43F4EC
:101C200080631360084B1B68074A43F4807313609A
:101C30000320FFF7A7FF0F2000F008F801F024FDB4
:101C40000023184680BD00BF003C024080B582B032
:101C500000AF7860124B1A68124B1B7819464FF48C
:101C60007A73B3FBF1F3B2FBF3F31846FFF7BFFF50
:101C70000346002B01D001230EE07B680F2B0AD80E
:101C8000002279684FF0FF30FFF787FF064A7B6834
:101C90001360002300E0012318460837BD4680BDCD
:101CA00000000020080000200400002080B400AFE5
:101CB000064B1B781A46064B1B681344044A1360F4
:101CC00000BFBD465DF8047B704700BF08000020E0
:101CD0008400002080B400AF034B1B681846BD464B
:101CE0005DF8047B704700BF8400002080B584B09D
:101CF00000AF7860FFF7EEFFB8607B68FB60FB68C1
:101D0000B3F1FF3F05D00A4B1B781A46FB6813441A
:101D1000FB6000BFFFF7DEFF0246BB68D31AFA681C
:101D20009A42F7D800BF00BF1037BD4680BD00BF44
:101D30000800002080B582B000AF78607B68002B7F
:101D400001D1012341E07B6893F83D30DBB2002BE9
:101D500006D17B68002283F83C20786801F004FB00
:101D60007B68022283F83D207B681A687B68043315
:101D70001946104600F0CEFC7B68012283F846200D
:101D80007B68012283F83E207B68012283F83F2094
:101D90007B68012283F840207B68012283F8412080
:101DA0007B68012283F842207B68012283F843206C
:101DB0007B68012283F844207B68012283F8452058
:101DC0007B68012283F83D20002318460837BD4672
:101DD00080BD000080B485B000AF78607B6893F868
:101DE0003D30DBB2012B01D0012346E07B680222AB
:101DF00083F83D207B681B68234A934222D07B688E
:101E00001B68B3F1804F1DD07B681B681F4A93424B
:101E100018D07B681B681E4A934213D07B681B68EE
:101E20001C4A93420ED07B681B681B4A934209D020
:101E30007B681B68194A934204D07B681B68184A68
:101E4000934211D17B681B689B6803F00703FB601A
:101E5000FB68062B10D07B681B681A687B681B68C0
:101E600042F001021A6007E07B681B681A687B6811
:101E70001B6842F001021A60002318461437BD4661
:101E80005DF8047B704700BF000001400004004083
:101E900000080040000C00400004014000400140E8
:101EA0000018004080B582B000AF78607B68002BDE
:101EB00001D1012341E07B6893F83D30DBB2002B78
:101EC00006D17B68002283F83C20786800F039F85E
:101ED0007B68022283F83D207B681A687B680433A4
:101EE0001946104600F016FC7B68012283F8462054
:101EF0007B68012283F83E207B68012283F83F2023
:101F00007B68012283F840207B68012283F841200E
:101F10007B68012283F842207B68012283F84320FA
:101F20007B68012283F844207B68012283F84520E6
:101F30007B68012283F83D20002318460837BD4600
:101F400080BD80B483B000AF786000BF0C37BD4661
:101F50005DF8047B7047000080B584B000AF786006
:101F600039600023FB733B68002B04D17B6893F836
:101F70003E30DBB213E03B68042B04D17B6893F85E
:101F80003F30DBB20BE03B68082B04D17B6893F851
:101F90004030DBB203E07B6893F84130DBB2BB73C7
:101FA0003B68002B04D17B6893F84230DBB213E02E
:101FB0003B68042B04D17B6893F84330DBB20BE021
:101FC0003B68082B04D17B6893F84430DBB203E014
:101FD0007B6893F84530DBB27B73BB7B012B02D16E
:101FE0007B7B012B01D00123CCE03B68002B04D18B
:101FF0007B68022283F83E2013E03B68042B04D167
:102000007B68022283F83F200BE03B68082B04D159
:102010007B68022283F8402003E07B68022283F879
:1020200041203B68002B04D17B68022283F84220C8
:1020300013E03B68042B04D17B68022283F8432021
:102040000BE03B68082B04D17B68022283F8442014
:1020500003E07B68022283F845203B680C2B41D8C3
:1020600001A252F823F000BF9D200008E5200008DF
:10207000E5200008E5200008AF200008E520000862
:10208000E5200008E5200008C1200008E520000840
:10209000E5200008E5200008D32000087B681B68C5
:1020A000DA687B681B6842F00202DA601DE07B6838
:1020B0001B68DA687B681B6842F00402DA6014E08F
:1020C0007B681B68DA687B681B6842F00802DA608C
:1020D0000BE07B681B68DA687B681B6842F01002C3
:1020E000DA6002E00123FB7300BFFB7B002B48D1C9
:1020F0007B681B6801223968184600F075FD7B6813
:102100001B68224A934222D07B681B68B3F1804F40
:102110001DD07B681B681E4A934218D07B681B68E1
:102120001C4A934213D07B681B681B4A93420ED013
:102130007B681B68194A934209D07B681B68184A60
:10214000934204D07B681B68164A934211D17B6886
:102150001B689B6803F00703BB60BB68062B10D0AD
:102160007B681B681A687B681B6842F001021A6072
:1021700007E07B681B681A687B681B6842F00102F5
:102180001A60FB7B18461037BD4680BD0000014039
:102190000004004000080040000C00400004014022
:1021A000004001400018004080B584B000AF786066
:1021B0007B681B68DB68FB607B681B681B69BB6016
:1021C000BB6803F00203002B20D0FB6803F002037E
:1021D000002B1BD07B681B686FF002021A617B68C2
:1021E00001221A777B681B689B6903F00303002BAD
:1021F00003D0786801F07CF905E0786800F06CFAAB
:10220000786800F073FA7B6800221A77BB6803F0E5
:102210000403002B20D0FB6803F00403002B1BD029
:102220007B681B686FF004021A617B6802221A77D0
:102230007B681B689B6903F44073002B03D07868AC
:1022400001F056F905E0786800F046FA786800F089
:102250004DFA7B6800221A77BB6803F00803002B55
:1022600020D0FB6803F00803002B1BD07B681B68A1
:102270006FF008021A617B6804221A777B681B687A
:10228000DB6903F00303002B03D0786801F030F919
:1022900005E0786800F020FA786800F027FA7B689B
:1022A00000221A77BB6803F01003002B20D0FB68D4
:1022B00003F01003002B1BD07B681B686FF010022B
:1022C0001A617B6808221A777B681B68DB6903F454
:1022D0004073002B03D0786801F00AF905E07868B4
:1022E00000F0FAF9786800F001FA7B6800221A77AA
:1022F000BB6803F00103002B0CD0FB6803F0010363
:10230000002B07D07B681B686FF001021A617868A8
:1023100001F096F9BB6803F08003002B0CD0FB683A
:1023200003F08003002B07D07B681B686FF08002EE
:102330001A61786800F004FDBB6803F04003002BCD
:102340000CD0FB6803F04003002B07D07B681B68B0
:102350006FF040021A61786800F0D2F9BB6803F0B0
:102360002003002B0CD0FB6803F02003002B07D0C8
:102370007B681B686FF020021A61786800F0D6FC59
:1023800000BF1037BD4680BD80B586B000AFF86095
:10239000B9607A600023FB75FB6893F83C30012B31
:1023A00001D1022388E0FB68012283F83C207B688E
:1023B000002B1BD1FB681868BB681968BB685A689A
:1023C000BB68DB6800F04CFAFB681B689A69FB6825
:1023D0001B6822F00C029A61FB681B689969BB6854
:1023E0009A68FB681B680A439A6160E07B68042B6B
:1023F0001CD1FB681868BB681968BB685A68BB6861
:10240000DB6800F0D0FAFB681B689A69FB681B6800
:1024100022F440629A61FB681B689969BB689B68FB
:102420001A02FB681B680A439A6140E07B68082B2C
:102430001BD1FB681868BB681968BB685A68BB6821
:10244000DB6800F01DFBFB681B68DA69FB681B6832
:1024500022F00C02DA61FB681B68D969BB689A68D4
:10246000FB681B680A43DA6121E07B680C2B1CD1F6
:10247000FB681868BB681968BB685A68BB68DB688A
:1024800000F03AFBFB681B68DA69FB681B6822F402
:102490004062DA61FB681B68D969BB689B681A02F5
:1024A000FB681B680A43DA6101E00123FB75FB68E6
:1024B000002283F83C20FB7D18461837BD4680BDBE
:1024C00080B584B000AF786039600023FB737B680F
:1024D00093F83C30012B01D10223B4E07B68012248
:1024E00083F83C207B68022283F83D207B681B68D0
:1024F0009B68BB60BB6823F07703BB60BB6823F4B9
:102500007F43BB607B681B68BA689A603B681B6846
:10251000B3F5005F3ED0B3F5005F00F28780B3F5FE
:10252000805F00F08680B3F5805F7FD8702B1AD073
:10253000702B7BD8602B50D0602B77D8502B3CD0A1
:10254000502B73D8402B58D0402B6FD8302B64D0F1
:10255000302B6BD8202B60D0202B67D8002B5CD081
:10256000102B5AD062E07B6818683B6899683B681A
:102570005A683B68DB6800F017FB7B681B689B6848
:10258000BB60BB6843F07703BB607B681B68BA68BD
:102590009A604FE07B6818683B6899683B685A68A6
:1025A0003B68DB6800F000FB7B681B689A687B680F
:1025B0001B6842F480429A603CE07B6818683B6884
:1025C00059683B68DB681A4600F0BEF97B681B68F7
:1025D0005021184600F0CDFA2CE07B6818683B6863
:1025E00059683B68DB681A4600F01AFA7B681B687A
:1025F0006021184600F0BDFA1CE07B6818683B6853
:1026000059683B68DB681A4600F09EF97B681B68D6
:102610004021184600F0ADFA0CE07B681A683B6870
:102620001B681946104600F0A4FA03E00123FB736F
:1026300000E000BF7B68012283F83D207B68002218
:1026400083F83C20FB7B18461037BD4680BD000058
:1026500080B485B000AF786039600023FB603B68D0
:102660000C2B31D801A252F823F000BFA12600089C
:10267000C9260008C9260008C9260008AB2600089C
:10268000C9260008C9260008C9260008B526000882
:10269000C9260008C9260008C9260008BF26000868
:1026A0007B681B685B6BFB600FE07B681B689B6B48
:1026B000FB600AE07B681B68DB6BFB6005E07B6806
:1026C0001B681B6CFB6000E000BFFB6818461437FA
:1026D000BD465DF8047B704780B483B000AF78607E
:1026E00000BF0C37BD465DF8047B704780B483B0F3
:1026F00000AF786000BF0C37BD465DF8047B7047C3
:1027000080B483B000AF786000BF0C37BD465DF881
:10271000047B704780B485B000AF786039607B6817
:102720001B68FB607B68434A934213D07B68B3F11C
:10273000804F0FD07B68404A93420BD07B683F4A62
:10274000934207D07B683E4A934203D07B683D4A60
:10275000934208D1FB6823F07003FB603B685B6821
:10276000FA681343FB607B68324A93422BD07B6844
:10277000B3F1804F27D07B682F4A934223D07B68E8
:102780002E4A93421FD07B682D4A93421BD07B6810
:102790002C4A934217D07B682B4A934213D07B6814
:1027A0002A4A93420FD07B68294A93420BD07B6818
:1027B000284A934207D07B68274A934203D07B681C
:1027C000264A934208D1FB6823F44073FB603B68C0
:1027D000DB68FA681343FB60FB6823F080023B6808
:1027E0005B691343FB603B689A687B68DA623B680D
:1027F0001A687B689A627B680E4A934203D07B68B2
:10280000104A934203D13B681A697B681A637B685C
:102810001B6843F004027B681A607B6801225A61DE
:102820007B68FA681A6000BF1437BD465DF8047B08
:10283000704700BF00000140000400400008004055
:10284000000C0040000401400040014000440140F1
:102850000048014000180040001C004000200040DB
:1028600080B487B000AFF860B9607A603B60FB6805
:102870001B6A3B61FB681B6A23F00102FB681A625A
:10288000FB689B697B61FB68284A93421BD0FB680D
:10289000B3F1804F17D0FB68254A934213D0FB68F1
:1028A000244A93420FD0FB68234A93420BD0FB6823
:1028B000224A934207D0FB68214A934203D0FB6827
:1028C000204A934201D1012300E00023002B08D0CD
:1028D0007B6923F003037B617A697B6813437B6127
:1028E00003E07B6943F001037B617B6923F0F00324
:1028F0007B613B681B01DBB27A6913437B613B69F7
:1029000023F00A033B61BB6803F00A033A691343EF
:102910003B61FB687A699A61FB683A691A6200BF99
:102920001C37BD465DF8047B704700BF00000140C6
:102930000004004000080040000C0040000401407A
:10294000004001400018004080B487B000AFF8603C
:10295000B9607A60FB681B6A7B61FB681B6A23F0C5
:102960000102FB681A62FB689B693B613B6923F0CB
:10297000F0033B617B681B013A6913433B617B6950
:1029800023F00A037B617A69BB6813437B61FB68B0
:102990003A699A61FB687A691A6200BF1C37BD46C2
:1029A0005DF8047B704780B487B000AFF860B96011
:1029B0007A603B60FB681B6A7B61FB681B6A23F0E3
:1029C0001002FB681A62FB689B693B613B6923F458
:1029D00040733B617B681B023A6913433B613B696F
:1029E00023F470433B613B681B039BB23A6913437A
:1029F0003B617B6923F0A0037B61BB681B0103F093
:102A0000A0037A6913437B61FB683A699A61FB68AA
:102A10007A691A6200BF1C37BD465DF8047B7047B7
:102A200080B487B000AFF860B9607A60FB681B6A59
:102A30007B61FB681B6A23F01002FB681A62FB686B
:102A40009B693B613B6923F470433B617B681B03DB
:102A50003A6913433B617B6923F0A0037B61BB6848
:102A60001B017A6913437B61FB683A699A61FB68D1
:102A70007A691A6200BF1C37BD465DF8047B704757
:102A800080B487B000AFF860B9607A603B60FB68E3
:102A90001B6A7B61FB681B6A23F48072FB681A6205
:102AA000FB68DB693B613B6923F003033B613A69E7
:102AB0007B6813433B613B6923F0F0033B613B6858
:102AC0001B01DBB23A6913433B617B6923F420634A
:102AD0007B61BB681B0203F420637A6913437B614B
:102AE000FB683A69DA61FB687A691A6200BF1C37D1
:102AF000BD465DF8047B704780B487B000AFF860D6
:102B0000B9607A603B60FB681B6A7B61FB681B6A8B
:102B100023F48052FB681A62FB68DB693B613B6906
:102B200023F440733B617B681B023A6913433B61AA
:102B30003B6923F470433B613B681B039BB23A69DA
:102B400013433B617B6923F420437B61BB681B0318
:102B500003F420437A6913437B61FB683A69DA61C5
:102B6000FB687A691A6200BF1C37BD465DF8047BBA
:102B7000704780B485B000AF786039607B689B682F
:102B8000FB60FB6823F07003FB603A68FB6813434B
:102B900043F00703FB607B68FA689A6000BF143754
:102BA000BD465DF8047B704780B487B000AFF86025
:102BB000B9607A603B60FB689B687B617B6923F44A
:102BC0007F437B613B681A027B681A43BB681343EF
:102BD0007A6913437B61FB687A699A6000BF1C378E
:102BE000BD465DF8047B704780B487B000AFF860E5
:102BF000B9607A60BB6803F01F03012202FA03F395
:102C00007B61FB681A6A7B69DB431A40FB681A62C6
:102C1000FB681A6ABB6803F01F03796801FA03F3C3
:102C20001A43FB681A6200BF1C37BD465DF8047B7F
:102C30007047000080B485B000AF786039607B6871
:102C400093F83C30012B01D102235AE07B6801222A
:102C500083F83C207B68022283F83D207B681B6858
:102C60005B68FB607B681B689B68BB60FB6823F04C
:102C70007003FB603B681B68FA681343FB607B686A
:102C80001B68FA685A607B681B68214A934222D00D
:102C90007B681B68B3F1804F1DD07B681B681D4AA1
:102CA000934218D07B681B681B4A934213D07B6801
:102CB0001B681A4A93420ED07B681B68184A9342DD
:102CC00009D07B681B68174A934204D07B681B6855
:102CD000154A93420CD1BB6823F08003BB603B686C
:102CE0005B68BA681343BB607B681B68BA689A600C
:102CF0007B68012283F83D207B68002283F83C201A
:102D0000002318461437BD465DF8047B704700BFAA
:102D1000000001400004004000080040000C00409A
:102D200000040140004001400018004080B483B01E
:102D300000AF786000BF0C37BD465DF8047B70477C
:102D400080B483B000AF786000BF0C37BD465DF83B
:102D5000047B704780B500AFFEF756FF00F020F807
:102D600000F08EF800F04AF900F0B0FA00F03AFAFC
:102D70000948FFF72FF800210848FFF7EDF8074B47
:102D80001B68DA68054B1B6842F00102DA6005F047
:102D900011FA05F023FAFCE724010020DC000020F2
:102DA00080B594B000AF07F120033022002118460F
:102DB00005F044FC07F10C0300221A605A609A6087
:102DC000DA601A610023BB60284B1B6C274A43F072
:102DD00080531364254B1B6C03F08053BB60BB68AE
:102DE00000237B60224B1B68214A43F4804313601D
:102DF0001F4B1B6803F480437B607B6802233B62AC
:102E00000123FB6210233B630223BB630023FB63AC
:102E100008233B64A8237B640223BB640423FB6474
:102E200007F120031846FDF7EDFF0346002B01D004
:102E300000F020F80F23FB6002233B6100237B613D
:102E40004FF4A053BB614FF48053FB6107F10C03B7
:102E500005211846FEF74EFA0346002B01D000F07C
:102E600009F800BF5037BD4680BD00BF00380240A2
:102E70000070004080B400AF72B600BF00BFFDE735
:102E800080B58CB000AF07F11C0300221A605A60B5
:102E90009A60DA601A610023BB61534B1B6B524A84
:102EA00043F010031363504B1B6B03F01003BB6123
:102EB000BB6900237B614C4B1B6B4B4A43F02003E7
:102EC0001363494B1B6B03F020037B617B69002379
:102ED0003B61454B1B6B444A43F080031363424BF9
:102EE0001B6B03F080033B613B690023FB603E4B9F
:102EF0001B6B3D4A43F0010313633B4B1B6B03F019
:102F00000103FB60FB680023BB60374B1B6B364A39
:102F100043F040031363344B1B6B03F04003BB606F
:102F2000BB6800237B60304B1B6B2F4A43F00203CE
:102F300013632D4B1B6B03F002037B607B68002344
:102F40003B60294B1B6B284A43F008031363264B55
:102F50001B6B03F008033B603B6800224FF4E06109
:102F60002248FEF725FD01224FF400412048FEF7DC
:102F70001FFD1C23FB6100233B6201237B6207F1E1
:102F80001C0319461B48FEF75FFB4FF4E063FB612F
:102F900001233B6200237B620023BB6207F11C0319
:102FA00019461248FEF750FB0123FB6100233B62E8
:102FB00002237B6207F11C0319460F48FEF744FB0E
:102FC0004FF40043FB6101233B6200237B6200233B
:102FD000BB6207F11C0319460548FEF735FB00BF2D
:102FE0003037BD4680BD00BF0038024000140240AB
:102FF00000040240001002400000024080B58EB084
:1030000000AF07F11C0300221A605A609A60DA6070
:103010001A615A619A613B4600221A605A609A60AE
:10302000DA601A615A619A612F4B4FF020421A60A0
:103030002D4B2E4A5A602C4B06229A602A4B0022B6
:10304000DA60294B00221A61274B10225A61264B65
:1030500000229A61244B0022DA61234B00221A627B
:10306000214B00225A62204B4FF480529A621E4B31
:103070000022DA621C4B4FF480421A631A4B002282
:103080005A63194B00229A63174B00225A640F238C
:10309000FB610F233B623C237B620023BB62102356
:1030A000FB6211233B6300237B6303233B600F23FD
:1030B0007B600323BB600F23FB6010233B61112364
:1030C0007B610023BB613A4607F11C0319460648A1
:1030D000FDF750FE0346002B01D0FFF7CBFE00BFEB
:1030E0003837BD4680BD00BF88000020040100A025
:1030F00080B586B000AF3B1D00221A605A609A600E
:10310000DA601A612C4B1B68002B51D12A4B01222B
:103110001A6000233B60294B9B6B284A43F0010354
:103120009363264B9B6B03F001033B603B684FF2BC
:103130003F037B600223BB600023FB6003233B61F2
:103140000C237B613B1D19461D48FEF77DFA41F2B9
:103150003F037B600223BB600023FB6003233B61D2
:103160000C237B613B1D19461648FEF76DFA4FF69E
:1031700080737B600223BB600023FB6003233B6101
:103180000C237B613B1D19460F48FEF75DFA4CF29C
:1031900033737B600223BB600023FB6003233B612E
:1031A0000C237B613B1D19460848FEF74DFA00E0F1
:1031B00000BF1837BD4680BDD8000020003802404F
:1031C000001402400018024000100240000C0240AF
:1031D00080B582B000AF7860FFF78AFF00BF083784
:1031E000BD4680BD80B58AB000AF07F1180300224C
:1031F0001A605A609A60DA6007F1100300221A60C0
:103200005A603B4600221A605A609A60DA602D4B81
:103210002D4A1A602B4BA7225A602A4B00229A6033
:10322000284B42F21072DA60264B00221A61254BBD
:1032300000225A61234B00229A612248FEF77AFD50
:103240000346002B01D0FFF715FE4FF48053BB61FE
:1032500007F1180319461B48FFF732F90346002B04
:1032600001D0FFF707FE1748FEF71CFE0346002BB0
:1032700001D0FFF7FFFD00233B6100237B6107F1D5
:10328000100319460F48FFF7D5FC0346002B01D069
:10329000FFF7F0FD00233B6001237B600023BB6050
:1032A0000023FB603B46002219460648FFF76CF8F6
:1032B0000346002B01D0FFF7DDFD00BF2837BD46D8
:1032C00080BD00BFDC0000200000014080B586B05A
:1032D00000AF07F1080300221A605A609A60DA60B2
:1032E0003B4600221A605A601D4B1E4A1A601C4B56
:1032F00053225A601A4B00229A60194B4FF6FF7204
:10330000DA60174B00221A61154B00229A611448AB
:10331000FEF710FD0346002B01D0FFF7ABFD4FF485
:103320008053BB6007F1080319460D48FFF7C8F842
:103330000346002B01D0FFF79DFD00233B600023D7
:103340007B603B4619460648FFF774FC0346002B9A
:1033500001D0FFF78FFD00BF1837BD4680BD00BF0D
:10336000240100200004004080B58AB000AF7860DE
:1033700007F1140300221A605A609A60DA601A6139
:103380007B681B682F4A93423DD100233B612E4B43
:103390005B6C2D4A43F0010353642B4B5B6C03F0D1
:1033A00001033B613B690023FB60274B1B6B264AF3
:1033B00043F001031363244B1B6B03F00103FB6019
:1033C000FB684FF480737B610223BB610023FB61C8
:1033D00000233B6201237B6207F1140319461B485B
:1033E000FEF732F9002201211920FEF7D6FB192041
:1033F000FEF7EFFB002201211B20FEF7CEFB1B2076
:10340000FEF7E7FB1AE07B681B68114A934215D16F
:103410000023BB600C4B1B6C0B4A43F0020313648C
:10342000094B1B6C03F00203BB60BB680022002148
:103430001D20FEF7B2FB1D20FEF7CBFB00BF283797
:10344000BD4680BD0000014000380240000002403F
:103450000004004080B400AF00BFFDE780B400AFBF
:1034600000BFFDE780B400AF00BFFDE780B400AF50
:1034700000BFFDE780B400AF00BFFDE780B400AF40
:1034800000BFBD465DF8047B704780B400AF00BF4D
:10349000BD465DF8047B704780B400AF00BFBD46F9
:1034A0005DF8047B704780B500AFFEF7FFFB00BFFF
:1034B00080BD000080B500AF0248FEF775FE00BF7A
:1034C00080BD00BFDC00002080B500AF0248FEF7E1
:1034D0006BFE00BF80BD00BFDC00002080B500AFE8
:1034E0000248FEF761FE00BF80BD00BF240100203E
:1034F00080B582B000AF78607B681B68494A934210
:1035000040F08B807B681B7F012B40F08680464B10
:103510001B78DBB2002B17D17B681B6800225A6234
:103520007B681B681A6A7B681B6822F00A021A62B1
:103530007B681B681A6A7B681B6842F002021A6289
:10354000394B01221A7068E000217868FFF780F893
:103550000346364A13607B681B681A6A7B681B68DF
:1035600022F00A021A627B681A687B681B68126A7A
:103570001A622D4B00221A702C4B1B68B3F57A6F20
:103580000CD92A4B1B6841F28732934206D8284B4C
:1035900000221A60274B00221A702FE0234B1B6871
:1035A00040F21452934213D9204B1B68B3F5FA6FC3
:1035B0000ED21F4B1B685B0043F001031C4A1360D3
:1035C0001C4B1B78DBB20133DAB21A4B1A7015E0D0
:1035D000164B1B68B3F5967F10D9144B1B68B3F5D7
:1035E000487F0BD2124B1B685B00114A1360114BD2
:1035F0001B78DBB20133DAB20E4B1A700D4B1B781D
:10360000DBB21F2B09D90A4B1B680B4A13600B4B0B
:1036100001221A70074B00221A7000BF0837BD46FE
:1036200080BD00BF000001406C010020700100203F
:1036300074010020780100207C0100207901002025
:1036400080B483B000AF78607B681B680C4A9342FB
:1036500010D10C4B00221A707B681B681A6A7B68B9
:103660001B6822F00A021A627B681A687B681B6872
:10367000126A1A6200BF0C37BD465DF8047B7047C2
:10368000000001406C01002080B483B000AF002333
:103690007B60104B5B6C0F4A43F4804353640D4BCB
:1036A0005B6C03F480437B607B6800233B60094BC9
:1036B0001B6C084A43F080531364064B1B6C03F0E9
:1036C00080533B603B6800BF0C37BD465DF8047B10
:1036D000704700BF0038024080B586B000AF786008
:1036E000144A154BD31A7B617B693B61134B1B68F2
:1036F000002B02D1114B124A1A60104B1A687B68DA
:1037000013443A699A4207D204F0E6FF03460C22BA
:103710001A604FF0FF3309E0084B1B68FB60074B52
:103720001A687B681344054A1360FB68184618370B
:10373000BD4680BD00000220000400008001002082
:10374000D803002080B400AF01231846BD465DF8C1
:10375000047B704780B582B000AF7860396004F0B8
:10376000BBFF034616221A604FF0FF331846083796
:10377000BD4680BD80B582B000AF78604FF0FF31AC
:103780007868FFF7E7FF00BFFDE780B586B000AFC0
:10379000F860B9607A6000237B610AE0AFF30080D3
:1037A0000146BB685A1CBA60CAB21A707B69013301
:1037B0007B617A697B689A42F0DB7B681846183730
:1037C000BD4680BD80B586B000AFF860B9607A6054
:1037D00000237B6109E0BB685A1CBA601B7818465D
:1037E000AFF300807B6901337B617A697B689A4221
:1037F000F1DB7B6818461837BD4680BD80B483B0C6
:1038000000AF78604FF0FF3318460C37BD465DF8C7
:10381000047B704780B483B000AF786039603B6848
:103820004FF400525A60002318460C37BD465DF82D
:10383000047B704780B483B000AF786001231846E2
:103840000C37BD465DF8047B704780B485B000AF8F
:10385000F860B9607A60002318461437BD465DF8F9
:10386000047B7047DFF834D0FDF7A2F90C480D490E
:103870000D4A002302E0D458C4500433C4188C42CB
:10388000F9D30A4A0A4C002301E013600432A24231
:10389000FBD304F027FFFFF75DFA7047000002201A
:1038A0000000002068000020B8AD0008680000207B
:1038B000D4030020FEE7000080B483B000AF0346CD
:1038C000FB80FB889BB2FB80044BFA8892B21A8083
:1038D00000BF0C37BD465DF8047B70477E00006C6E
:1038E00080B483B000AF0346FB80FB889BB2FB80B3
:1038F000044BFA8892B25A8000BF0C37BD465DF87F
:10390000047B70477E00006C80B483B000AF064B30
:103910005B889BB2FB80FB889BB218460C37BD4688
:103920005DF8047B704700BF7E00006C80B483B0FC
:1039300000AF03460A46FB801346BB80054AFB885E
:103940001380044ABB88538000BF0C37BD465DF826
:10395000047B70477E00006C80B400AF044B054AC6
:1039600012891A8000BFBD465DF8047B704700BF16
:103970007E00006C8801002080B582B000AF034655
:103980000A46FB801346BB80654B9B8841F6631259
:10399000934267D1624B9B79002B1ED1604B1A88F2
:1039A000FB88D31A9BB2013BFB805D4B5B891846B9
:1039B000FFF782FF0020FFF793FF0020FFF790FF43
:1039C000FB881B0A9BB21846FFF78AFFFB88DBB215
:1039D0009BB21846FFF784FF21E0514B5B891846E4
:1039E000FFF76AFFFB881B0A9BB21846FFF778FFB8
:1039F000FB88DBB29BB21846FFF772FF484B1B886F
:103A0000013B1B129BB21846FFF76AFF444B1B8811
:103A1000013B9BB2DBB29BB21846FFF761FF404B04
:103A20009B891846FFF748FFBB881B0A9BB21846C4
:103A3000FFF756FFBB88DBB29BB21846FFF750FF7B
:103A4000374B5B88013B1B129BB21846FFF748FFC0
:103A5000334B5B88013B9BB2DBB29BB21846FFF74E
:103A60003FFF58E02E4B9B8845F21052934230D1D5
:103A70002B4B5B891846FFF71FFFFB881B0A9BB285
:103A80001846FFF72DFF264B5B8901339BB2184682
:103A9000FFF712FFFB88DBB29BB21846FFF720FF4F
:103AA0001F4B9B891846FFF707FFBB881B0A9BB279
:103AB0001846FFF715FF1A4B9B8901339BB2184636
:103AC000FFF7FAFEBB88DBB29BB21846FFF708FF90
:103AD00021E0134B5B891846FFF7EEFEFB881B0ABB
:103AE0009BB21846FFF7FCFEFB88DBB29BB2184680
:103AF000FFF7F6FE0A4B9B891846FFF7DDFEBB88F1
:103B00001B0A9BB21846FFF7EBFEBB88DBB29BB2E9
:103B10001846FFF7E5FE00BF0837BD4680BD00BF71
:103B20008801002080B584B000AF0346FB710023FC
:103B3000FB810023BB81994B9B79012B05D1974BCE
:103B40009B8841F66312934209D1944B9B79002BD9
:103B500034D1924B9B8841F6631293422ED1FB796C
:103B6000072B2BD801A252F823F000BF8D3B000891
:103B7000933B0008993B00089F3B0008A53B0008C9
:103B8000AB3B0008B13B0008B73B00080623FB71C4
:103B900014E00723FB7111E00423FB710EE0052301
:103BA000FB710BE00123FB7108E00023FB7105E0D2
:103BB0000323FB7102E00223FB7100BFFB79072B9B
:103BC00035D801A252F823F02F3C0008E93B000849
:103BD000F33B0008FD3B0008073C0008113C0008CF
:103BE0001B3C0008253C0008FB8943F08003FB8157
:103BF0001DE0FB8943F04003FB8118E0FB8943F0A3
:103C0000C003FB8113E0FB8943F02003FB810EE03E
:103C1000FB8943F06003FB8109E0FB8943F0A003CB
:103C2000FB8104E0FB8943F0E003FB8100BF5B4BB9
:103C30009B8845F21052934203D14FF45853BB81F5
:103C400001E03623BB81554B9B8849F241329342B8
:103C500005D0524B9B8847F28972934203D1FB896E
:103C600043F00803FB81FA89BB8911461846FFF728
:103C70005DFE4A4B9B8841F66312934225D0FB8937
:103C800003F02003002B10D0444B1A88434B5B8871
:103C90009A421AD2414B1B887B81404B5A883F4B3A
:103CA0001A803E4A7B8953800FE03C4B1A883B4B7D
:103CB0005B889A4209D9394B1B887B81374B5A88DC
:103CC000364B1A80354A7B895380344B9B8845F2AA
:103CD0001052934264D1314B5B891846FFF7ECFDDB
:103CE0000020FFF7FDFD2D4B5B8901339BB2184689
:103CF000FFF7E2FD0020FFF7F3FD284B5B8902335D
:103D00009BB21846FFF7D8FD244B1B88013B1B12C2
:103D10009BB21846FFF7E4FD204B5B8903339BB24F
:103D20001846FFF7C9FD1D4B1B88013B9BB2DBB258
:103D30009BB21846FFF7D4FD184B9B891846FFF736
:103D4000BBFD0020FFF7CCFD144B9B8901339BB2D8
:103D50001846FFF7B1FD0020FFF7C2FD0F4B9B890E
:103D600002339BB21846FFF7A7FD0C4B5B88013B63
:103D70001B129BB21846FFF7B3FD084B9B89033318
:103D80009BB21846FFF798FD044B5B88013B9BB242
:103D9000DBB29BB21846FFF7A3FD39E08801002093
:103DA0001D4B5B891846FFF787FD0020FFF798FD44
:103DB0000020FFF795FD184B1B88013B1B129BB29F
:103DC0001846FFF78DFD144B1B88013B9BB2DBB2FD
:103DD0009BB21846FFF784FD0F4B9B891846FFF7EF
:103DE0006BFD0020FFF77CFD0020FFF779FD0A4BFB
:103DF0005B88013B1B129BB21846FFF771FD064B17
:103E00005B88013B9BB2DBB29BB21846FFF768FDB3
:103E100000BF1037BD4680BD8801002080B582B04C
:103E200000AF03460A46FB801346BB80BA88FB8876
:103E300011461846FFF7A0FDFFF78EFD034B044A1D
:103E400012885A8000BF0837BD4680BD7E00006CD6
:103E50008401002080B582B000AF0346FB800B4692
:103E6000BB8013467B80584B9B8845F2105293428F
:103E700030D1554B5B891846FFF71EFDFB881B0AA6
:103E80009BB21846FFF72CFD4F4B5B8901339BB269
:103E90001846FFF711FDFB88DBB29BB21846FFF70F
:103EA0001FFD494B9B891846FFF706FDBB881B0A7F
:103EB0009BB21846FFF714FD434B9B8901339BB21D
:103EC0001846FFF7F9FCBB88DBB29BB21846FFF738
:103ED00007FD6DE03C4B9B8841F66312934245D150
:103EE000394B9B79002B06D1374B1A88FB88D31AA4
:103EF0009BB2013BFB80344B5B891846FFF7DCFC2F
:103F0000FB881B0A9BB21846FFF7EAFCFB88DBB272
:103F10009BB21846FFF7E4FCFB881B0A9BB21846CD
:103F2000FFF7DEFCFB88DBB29BB21846FFF7D8FC3C
:103F3000254B9B891846FFF7BFFCBB881B0A9BB229
:103F40001846FFF7CDFCBB88DBB29BB21846FFF7E3
:103F5000C7FCBB881B0A9BB21846FFF7C1FCBB8895
:103F6000DBB29BB21846FFF7BBFC21E0164B5B8926
:103F70001846FFF7A1FCFB881B0A9BB21846FFF707
:103F8000AFFCFB88DBB29BB21846FFF7A9FC0E4BD7
:103F90009B891846FFF790FCBB881B0A9BB218460A
:103FA000FFF79EFCBB88DBB29BB21846FFF798FC7C
:103FB000064B054A12891A80044A7B88538000BF49
:103FC0000837BD4680BD00BF880100207E00006C20
:103FD00080B582B000AF0346FB71BE20FFF76CFCDA
:103FE0000520FFF77DFCFB791846FCF76DFB10A35D
:103FF000D3E90023FCF7ECF802460B4610461946BD
:10400000FCF7CCFB03469BB21846FFF769FC012086
:10401000FFF766FCFF20FFF763FC0020FFF760FC62
:104020000020FFF75DFC00BF0837BD4680BD00BF24
:10403000666666666666044080B582B000AF034679
:10404000FB71584AFB799371FB79002B51D1554B89
:10405000F0221A80534B4FF4A0725A80514B9B8828
:1040600045F21052934214D14E4B4FF430521A8104
:104070004C4B4FF428525A814A4B4FF42C529A81A0
:10408000484B4FF4F0721A80464B4FF448725A80F6
:1040900020E0444B9B8841F66312934211D1414B7F
:1040A0002C221A813F4B2B225A813E4B2A229A8185
:1040B0003C4B4FF4F0721A803A4B4FF448725A80DE
:1040C00008E0384B2C221A81364B2A225A81354B74
:1040D0002B229A81334B9B8845F21032934259D15F
:1040E000304B4FF4A0721A802E4B4FF4F0725A806E
:1040F00050E02C4B4FF4A0721A802A4BF0225A80C9
:10410000284B9B8845F21052934214D1254B4FF413
:1041100030521A81234B4FF428525A81214B4FF4CD
:104120002C529A811F4B4FF448721A801D4B4FF44A
:10413000F0725A8020E01B4B9B8841F66312934239
:1041400011D1184B2C221A81164B2A225A81154B59
:104150002B229A81134B4FF448721A80114B4FF463
:10416000F0725A8008E00F4B2C221A810D4B2A2244
:104170005A810C4B2B229A810A4B9B8845F21032B4
:10418000934207D1074B4FF4F0721A80054B4FF45E
:10419000A0725A800020FFF7C5FC00BF0837BD465B
:1041A00080BD00BF8801002080B500AF3220FDF740
:1041B0009DFDD320FFF780FBFFF7A6FB03461A46C1
:1041C0009A4B9A80FFF7A0FB03461A46974B9A80BA
:1041D000FFF79AFB03461A46944B9A80934B9B88B1
:1041E0001B029AB2914B9A80FFF78EFB03461A4648
:1041F0008E4B9B8813439AB28C4B9A808B4B9B8837
:1042000049F24132934200F0D3800420FFF754FB7F
:10421000FFF77AFB03461A46844B9A80FFF774FB3C
:1042200003461A46814B9A80FFF76EFB03461A46F7
:104230007E4B9A807D4B9B881B029AB27B4B9A8067
:10424000FFF762FB03461A46784B9B8813439AB2EA
:10425000764B9A80754B9B8848F25252934203D119
:10426000724B47F289729A80704B9B8847F2897231
:10427000934200F09D80D420FFF71EFBFFF744FB24
:1042800003461A46694B9A80FFF73EFB03461A46DF
:10429000664B9A80FFF738FB03461A46634B9A80B9
:1042A000624B9B881B029AB2604B9A80FFF72CFBF3
:1042B00003461A465D4B9B8813439AB25B4B9A8028
:1042C0005A4B9B8845F21032934271D055214FF4DE
:1042D0007040FFF72BFBAA214FF20100FFF726FBEE
:1042E00052214FF20200FFF721FB08214FF2030099
:1042F000FFF71CFB01214FF20400FFF717FB4FF4FF
:104300004540FFF7D9FAFFF7FFFA03461A46474B35
:104310009A80464B9B881B029AB2444B9A804CF27F
:104320000150FFF7C9FAFFF7EFFA03461A463F4B71
:104330009B8813439AB23D4B9A800520FDF7D6FC2B
:104340003A4B9B88B3F5004F03D1384B45F21052DE
:104350009A80364B9B8845F21052934228D0A12078
:10436000FFF7AAFAFFF7D0FA03461A462F4B9A80B6
:10437000FFF7CAFA03461A462C4B9A802B4B9B88B0
:104380001B029AB2294B9A80FFF7BEFA03461A46DF
:10439000264B9B8813439AB2244B9A80234B9B88CD
:1043A00045F26172934203D1204B41F663129A8029
:1043B0001E4B9B8849F24132934217D01B4B9B887E
:1043C00047F28972934211D0184B9B8845F2103204
:1043D00093420BD0154B9B8845F21052934205D067
:1043E000124B9B8841F66312934229D1104B9B6973
:1043F0000F4A23F00F0393610D4B9B690C4A23F482
:10440000706393610A4B9B69094A43F0030393610C
:10441000064B9B8847F2897293420BD1044B9B69F0
:10442000034A43F4407393610AE000BF880100200F
:10443000040100A0914B9B69904A43F4007393617F
:104440008F4B9B8849F24132934240F01B81CF2031
:10445000FFF732FA0020FFF743FAC120FFF740FAD6
:104460003020FFF73DFAED20FFF726FA6420FFF732
:1044700037FA0320FFF734FA1220FFF731FA8120D0
:10448000FFF72EFAE820FFF717FA8520FFF728FA42
:104490001020FFF725FA7A20FFF722FACB20FFF74A
:1044A0000BFA3920FFF71CFA2C20FFF719FA00202D
:1044B000FFF716FA3420FFF713FA0220FFF710FA7D
:1044C000F720FFF7F9F92020FFF70AFAEA20FFF7B3
:1044D000F3F90020FFF704FA0020FFF701FAC020EB
:1044E000FFF7EAF91B20FFF7FBF9C120FFF7E4F91A
:1044F0000120FFF7F5F9C520FFF7DEF93020FFF7BF
:10450000EFF93020FFF7ECF9C720FFF7D5F9B72016
:10451000FFF7E6F93620FFF7CFF94820FFF7E0F97B
:104520003A20FFF7C9F95520FFF7DAF9B120FFF774
:10453000C3F90020FFF7D4F91A20FFF7D1F9B6200C
:10454000FFF7BAF90A20FFF7CBF9A220FFF7C8F965
:10455000F220FFF7B1F90020FFF7C2F92620FFF79C
:10456000ABF90120FFF7BCF9E020FFF7A5F90F2018
:10457000FFF7B6F92A20FFF7B3F92820FFF7B0F9C3
:104580000820FFF7ADF90E20FFF7AAF90820FFF782
:10459000A7F95420FFF7A4F9A920FFF7A1F94320B8
:1045A000FFF79EF90A20FFF79BF90F20FFF798F914
:1045B0000020FFF795F90020FFF792F90020FFF7A0
:1045C0008FF90020FFF78CF9E120FFF775F9002043
:1045D000FFF786F91520FFF783F91720FFF780F919
:1045E0000720FFF77DF91120FFF77AF90620FFF782
:1045F00077F92B20FFF774F95620FFF771F93C206B
:10460000FFF76EF90520FFF76BF91020FFF768F947
:104610000F20FFF765F93F20FFF762F93F20FFF712
:104620005FF90F20FFF75CF92B20FFF745F9002019
:10463000FFF756F90020FFF753F90120FFF750F973
:104640003F20FFF74DF92A20FFF736F90020FFF74A
:1046500047F90020FFF744F90020FFF741F9EF2068
:10466000FFF73EF91120FFF727F97820FDF73EFB11
:104670002920FFF721F902F0ADB800BF040100A026
:10468000880100206D4B9B8847F28972934240F06D
:10469000D7801120FFF710F97820FDF727FB36208F
:1046A000FFF70AF90020FFF71BF93A20FFF704F99A
:1046B0000520FFF715F9B220FFF7FEF80C20FFF7F1
:1046C0000FF90C20FFF70CF90020FFF709F9332050
:1046D000FFF706F93320FFF703F9B720FFF7ECF8EF
:1046E0003520FFF7FDF8BB20FFF7E6F83220FFF793
:1046F000F7F8C020FFF7E0F80C20FFF7F1F8C22030
:10470000FFF7DAF80120FFF7EBF8C320FFF7D4F842
:104710001020FFF7E5F8C420FFF7CEF82020FFF7C0
:10472000DFF8C620FFF7C8F80F20FFF7D9F8D02030
:10473000FFF7C2F8A420FFF7D3F8A120FFF7D0F8C5
:10474000E020FFF7B9F8D020FFF7CAF80020FFF704
:10475000C7F80220FFF7C4F80720FFF7C1F80A20C6
:10476000FFF7BEF82820FFF7BBF83220FFF7B8F8B4
:104770004420FFF7B5F84220FFF7B2F80620FFF714
:10478000AFF80E20FFF7ACF81220FFF7A9F81420BD
:10479000FFF7A6F81720FFF7A3F8E120FFF78CF842
:1047A000D020FFF79DF80020FFF79AF80220FFF7CE
:1047B00097F80720FFF794F80A20FFF791F82820D0
:1047C000FFF78EF83120FFF78BF85420FFF788F8B9
:1047D0004720FFF785F80E20FFF782F81C20FFF72F
:1047E0007FF81720FFF77CF81B20FFF779F81E20D1
:1047F000FFF776F82A20FFF75FF80020FFF770F840
:104800000020FFF76DF80020FFF76AF8EF20FFF7B0
:1048100067F82B20FFF750F80020FFF761F8002021
:10482000FFF75EF80120FFF75BF83F20FFF758F82D
:104830002920FFF741F801F0CDBF00BF880100201B
:10484000034B9B8845F21032934240F07C8701E095
:1048500088010020ED20FFF72FF80120FFF740F836
:10486000FE20FFF73DF8EE20FFF726F8DE20FFF7E9
:1048700037F82120FFF734F8F120FFF71DF8012069
:10488000FFF72EF8DF20FFF717F81020FFF728F8C2
:10489000C420FFF711F88F20FFF722F8C620FFF79A
:1048A0000BF80020FFF71CF8E220FFF719F8E220D0
:1048B000FFF716F8E220FFF713F8BF20FEF7FCFF22
:1048C000AA20FFF70DF8B020FEF7F6FF0D20FFF746
:1048D00007F80020FFF704F80D20FFF701F800208B
:1048E000FEF7FEFF1120FEF7FBFF0020FEF7F8FFAA
:1048F0001920FEF7F5FF0020FEF7F2FF2120FEF75A
:10490000EFFF0020FEF7ECFF2D20FEF7E9FF00206F
:10491000FEF7E6FF3D20FEF7E3FF0020FEF7E0FF95
:104920005D20FEF7DDFF0020FEF7DAFF5D20FEF7D9
:10493000D7FF0020FEF7D4FFB120FEF7BDFF802097
:10494000FEF7CEFF0020FEF7CBFF8B20FEF7C8FF5F
:104950000020FEF7C5FF9620FEF7C2FF0020FEF7FD
:10496000BFFFB220FEF7A8FF0020FEF7B9FF00202E
:10497000FEF7B6FF0220FEF7B3FF0020FEF7B0FF00
:104980000320FEF7ADFF0020FEF7AAFFB320FEF7DD
:1049900093FF0020FEF7A4FF0020FEF7A1FF0020F8
:1049A000FEF79EFF0020FEF79BFF0020FEF798FF1A
:1049B0000020FEF795FF0020FEF792FF0020FEF793
:1049C0008FFF0020FEF78CFF0020FEF789FF0020FC
:1049D000FEF786FF0020FEF783FF0020FEF780FF32
:1049E0000020FEF77DFF0020FEF77AFF0020FEF793
:1049F00077FF0020FEF774FF0020FEF771FF002014
:104A0000FEF76EFF0020FEF76BFF0020FEF768FF49
:104A10000020FEF765FF0020FEF762FF0020FEF792
:104A20005FFFB420FEF748FF8B20FEF759FF002000
:104A3000FEF756FF9620FEF753FF0020FEF750FFCB
:104A4000A120FEF74DFF0020FEF74AFFB520FEF73C
:104A500033FF0220FEF744FF0020FEF741FF032052
:104A6000FEF73EFF0020FEF73BFF0420FEF738FF75
:104A70000020FEF735FFB620FEF71EFF0020FEF7F0
:104A80002FFF0020FEF72CFFB720FEF715FF0020B8
:104A9000FEF726FF0020FEF723FF3F20FEF720FF52
:104AA0000020FEF71DFF5E20FEF71AFF0020FEF734
:104AB00017FF6420FEF714FF0020FEF711FF8C2083
:104AC000FEF70EFF0020FEF70BFFAC20FEF708FFFD
:104AD0000020FEF705FFDC20FEF702FF0020FEF7B6
:104AE000FFFE7020FEF7FCFE0020FEF7F9FE90208E
:104AF000FEF7F6FE0020FEF7F3FEEB20FEF7F0FED9
:104B00000020FEF7EDFEDC20FEF7EAFE0020FEF7B7
:104B1000E7FEB820FEF7D0FE0020FEF7E1FE002001
:104B2000FEF7DEFE0020FEF7DBFE0020FEF7D8FEDB
:104B30000020FEF7D5FE0020FEF7D2FE0020FEF793
:104B4000CFFE0020FEF7CCFEBA20FEF7B5FE2420F3
:104B5000FEF7C6FE0020FEF7C3FE0020FEF7C0FEF3
:104B60000020FEF7BDFEC120FEF7A6FE2020FEF7C6
:104B7000B7FE0020FEF7B4FE5420FEF7B1FE002081
:104B8000FEF7AEFEFF20FEF7ABFE0020FEF7A8FE0C
:104B9000C220FEF791FE0A20FEF7A2FE0020FEF7DB
:104BA0009FFE0420FEF79CFE0020FEF799FEC32026
:104BB000FEF782FE3C20FEF793FE0020FEF790FEFB
:104BC0003A20FEF78DFE0020FEF78AFE3920FEF720
:104BD00087FE0020FEF784FE3720FEF781FE0020CE
:104BE000FEF77EFE3C20FEF77BFE0020FEF778FEFF
:104BF0003620FEF775FE0020FEF772FE3220FEF72B
:104C00006FFE0020FEF76CFE2F20FEF769FE0020ED
:104C1000FEF766FE2C20FEF763FE0020FEF760FE26
:104C20002920FEF75DFE0020FEF75AFE2620FEF743
:104C300057FE0020FEF754FE2420FEF751FE002010
:104C4000FEF74EFE2420FEF74BFE0020FEF748FE46
:104C50002320FEF745FE0020FEF742FE3C20FEF733
:104C60003FFE0020FEF73CFE3620FEF739FE002016
:104C7000FEF736FE3220FEF733FE0020FEF730FE50
:104C80002F20FEF72DFE0020FEF72AFE2C20FEF737
:104C900027FE0020FEF724FE2920FEF721FE00203B
:104CA000FEF71EFE2620FEF71BFE0020FEF718FE74
:104CB0002420FEF715FE0020FEF712FE2420FEF74A
:104CC0000FFE0020FEF70CFE2320FEF709FE002059
:104CD000FEF706FEC420FEF7EFFD6220FEF700FEA1
:104CE0000020FEF7FDFD0520FEF7FAFD0020FEF78F
:104CF000F7FD8420FEF7F4FD0020FEF7F1FDF02023
:104D0000FEF7EEFD0020FEF7EBFD1820FEF7E8FDB4
:104D10000020FEF7E5FDA420FEF7E2FD0020FEF7EF
:104D2000DFFD1820FEF7DCFD0020FEF7D9FD502046
:104D3000FEF7D6FD0020FEF7D3FD0C20FEF7D0FDD8
:104D40000020FEF7CDFD1720FEF7CAFD0020FEF77C
:104D5000C7FD9520FEF7C4FD0020FEF7C1FDF3203E
:104D6000FEF7BEFD0020FEF7BBFDE620FEF7B8FD16
:104D70000020FEF7B5FDC520FEF79EFD3220FEF7B0
:104D8000AFFD0020FEF7ACFD4420FEF7A9FD00209A
:104D9000FEF7A6FD6520FEF7A3FD0020FEF7A0FDAF
:104DA0007620FEF79DFD0020FEF79AFD8820FEF795
:104DB00097FD0020FEF794FDC620FEF77DFD202024
:104DC000FEF78EFD0020FEF78BFD1720FEF788FD15
:104DD0000020FEF785FD0120FEF782FD0020FEF792
:104DE0007FFDC720FEF768FD0020FEF779FD00205B
:104DF000FEF776FD0020FEF773FD0020FEF770FD44
:104E0000C820FEF759FD0020FEF76AFD0020FEF7DE
:104E100067FD0020FEF764FD0020FEF761FDC9205C
:104E2000FEF74AFD0020FEF75BFD0020FEF758FD6F
:104E30000020FEF755FD0020FEF752FD0020FEF792
:104E40004FFD0020FEF74CFD0020FEF749FD00203D
:104E5000FEF746FD0020FEF743FD0020FEF740FD73
:104E60000020FEF73DFD0020FEF73AFD0020FEF792
:104E700037FD0020FEF734FD0020FEF731FD002055
:104E8000FEF72EFDE020FEF717FD1620FEF728FDA9
:104E90000020FEF725FD1C20FEF722FD0020FEF776
:104EA0001FFD2120FEF71CFD0020FEF719FD362016
:104EB000FEF716FD0020FEF713FD4620FEF710FD5D
:104EC0000020FEF70DFD5220FEF70AFD0020FEF740
:104ED00007FD6420FEF704FD0020FEF701FD7A20A7
:104EE000FEF7FEFC0020FEF7FBFC8B20FEF7F8FC33
:104EF0000020FEF7F5FC9920FEF7F2FC0020FEF7FB
:104F0000EFFCA820FEF7ECFC0020FEF7E9FCB9203E
:104F1000FEF7E6FC0020FEF7E3FCC420FEF7E0FC11
:104F20000020FEF7DDFCCA20FEF7DAFC0020FEF7C9
:104F3000D7FCD220FEF7D4FC0020FEF7D1FCD9200C
:104F4000FEF7CEFC0020FEF7CBFCE020FEF7C8FC0D
:104F50000020FEF7C5FCF320FEF7C2FC0020FEF7A0
:104F6000BFFCE120FEF7A8FC1620FEF7B9FC0020EC
:104F7000FEF7B6FC1C20FEF7B3FC0020FEF7B0FCE9
:104F80002220FEF7ADFC0020FEF7AAFC3620FEF73B
:104F9000A7FC0020FEF7A4FC4520FEF7A1FC0020A2
:104FA000FEF79EFC5220FEF79BFC0020FEF798FCCB
:104FB0006420FEF795FC0020FEF792FC7A20FEF7B5
:104FC0008FFC0020FEF78CFC8B20FEF789FC002074
:104FD000FEF786FC9920FEF783FC0020FEF780FC9C
:104FE000A820FEF77DFC0020FEF77AFCB920FEF732
:104FF00077FC0020FEF774FCC420FEF771FC002053
:10500000FEF76EFCCA20FEF76BFC0020FEF768FC82
:10501000D220FEF765FC0020FEF762FCD820FEF7E8
:105020005FFC0020FEF75CFCE020FEF759FC00204E
:10503000FEF756FCF320FEF753FC0020FEF750FC71
:10504000E220FEF739FC0520FEF74AFC0020FEF7BF
:1050500047FC0B20FEF744FC0020FEF741FC1B2020
:10506000FEF73EFC0020FEF73BFC3420FEF738FC48
:105070000020FEF735FC4420FEF732FC0020FEF74E
:105080002FFC4F20FEF72CFC0020FEF729FC6120AE
:10509000FEF726FC0020FEF723FC7920FEF720FC1B
:1050A0000020FEF71DFC8820FEF71AFC0020FEF70A
:1050B00017FC9720FEF714FC0020FEF711FCA62039
:1050C000FEF70EFC0020FEF70BFCB720FEF708FCF5
:1050D0000020FEF705FCC220FEF702FC0020FEF7D0
:1050E000FFFBC720FEF7FCFB0020FEF7F9FBD120F9
:1050F000FEF7F6FB0020FEF7F3FBD620FEF7F0FBF1
:105100000020FEF7EDFBDD20FEF7EAFB0020FEF7B6
:10511000E7FBF320FEF7E4FB0020FEF7E1FBE320D2
:10512000FEF7CAFB0520FEF7DBFB0020FEF7D8FBED
:105130000A20FEF7D5FB0020FEF7D2FB1C20FEF76D
:10514000CFFB0020FEF7CCFB3320FEF7C9FB00208D
:10515000FEF7C6FB4420FEF7C3FB0020FEF7C0FBB2
:105160005020FEF7BDFB0020FEF7BAFB6220FEF7E1
:10517000B7FB0020FEF7B4FB7820FEF7B1FB002060
:10518000FEF7AEFB8820FEF7ABFB0020FEF7A8FB86
:105190009720FEF7A5FB0020FEF7A2FBA620FEF756
:1051A0009FFB0020FEF79CFBB720FEF799FB002039
:1051B000FEF796FBC220FEF793FB0020FEF790FB64
:1051C000C720FEF78DFB0020FEF78AFBD120FEF7FB
:1051D00087FB0020FEF784FBD520FEF781FB002033
:1051E000FEF77EFBDD20FEF77BFB0020FEF778FB61
:1051F000F320FEF775FB0020FEF772FBE420FEF7BC
:105200005BFB0120FEF76CFB0020FEF769FB012031
:10521000FEF766FB0020FEF763FB0220FEF760FB53
:105220000020FEF75DFB2A20FEF75AFB0020FEF768
:1052300057FB3C20FEF754FB0020FEF751FB4B20B0
:10524000FEF74EFB0020FEF74BFB5D20FEF748FB10
:105250000020FEF745FB7420FEF742FB0020FEF71E
:105260003FFB8420FEF73CFB0020FEF739FB932038
:10527000FEF736FB0020FEF733FBA220FEF730FBE3
:105280000020FEF72DFBB320FEF72AFB0020FEF7DF
:1052900027FBBE20FEF724FB0020FEF721FBC420E5
:1052A000FEF71EFB0020FEF71BFBCD20FEF718FBD0
:1052B0000020FEF715FBD320FEF712FB0020FEF7BF
:1052C0000FFBDD20FEF70CFB0020FEF709FBF320AF
:1052D000FEF706FB0020FEF703FBE520FEF7ECFAE5
:1052E0000020FEF7FDFA0020FEF7FAFA0020FEF794
:1052F000F7FA0020FEF7F4FA0220FEF7F1FA002098
:10530000FEF7EEFA2920FEF7EBFA0020FEF7E8FAA6
:105310003C20FEF7E5FA0020FEF7E2FA4B20FEF70C
:10532000DFFA0020FEF7DCFA5D20FEF7D9FA002054
:10533000FEF7D6FA7420FEF7D3FA0020FEF7D0FA73
:105340008420FEF7CDFA0020FEF7CAFA9320FEF77C
:10535000C7FA0020FEF7C4FAA220FEF7C1FA002027
:10536000FEF7BEFAB320FEF7BBFA0020FEF7B8FA4C
:10537000BE20FEF7B5FA0020FEF7B2FAC420FEF711
:10538000AFFA0020FEF7ACFACD20FEF7A9FA002014
:10539000FEF7A6FAD320FEF7A3FA0020FEF7A0FA44
:1053A000DC20FEF79DFA0020FEF79AFAF320FEF7C4
:1053B00097FA0020FEF794FAE620FEF77DFA112016
:1053C000FEF78EFA0020FEF78BFA3420FEF788FAFB
:1053D0000020FEF785FA5620FEF782FA0020FEF73D
:1053E0007FFA7620FEF77CFA0020FEF779FA772024
:1053F000FEF776FA0020FEF773FA6620FEF770FAE1
:105400000020FEF76DFA8820FEF76AFA0020FEF70A
:1054100067FA9920FEF764FA0020FEF761FABB20D4
:10542000FEF75EFA0020FEF75BFA9920FEF758FAC5
:105430000020FEF755FA6620FEF752FA0020FEF72C
:105440004FFA5520FEF74CFA0020FEF749FA552096
:10545000FEF746FA0020FEF743FA4520FEF740FA31
:105460000020FEF73DFA4320FEF73AFA0020FEF74F
:1054700037FA4420FEF734FA0020FEF731FAE7202D
:10548000FEF71AFA3220FEF72BFA0020FEF728FA70
:105490005520FEF725FA0020FEF722FA7620FEF7C7
:1054A0001FFA0020FEF71CFA6620FEF719FA00200A
:1054B000FEF716FA6720FEF713FA0020FEF710FA3F
:1054C0006720FEF70DFA0020FEF70AFA8720FEF7A4
:1054D00007FA0020FEF704FA9920FEF701FA0020EF
:1054E000FEF7FEF9BB20FEF7FBF90020FEF7F8F906
:1054F0009920FEF7F5F90020FEF7F2F97720FEF784
:10550000EFF90020FEF7ECF94420FEF7E9F900205E
:10551000FEF7E6F95620FEF7E3F90020FEF7E0F982
:105520002320FEF7DDF90020FEF7DAF93320FEF73D
:10553000D7F90020FEF7D4F94520FEF7D1F9002075
:10554000FEF7CEF9E820FEF7B7F90020FEF7C8F91C
:105550000020FEF7C5F99920FEF7C2F90020FEF7FA
:10556000BFF98720FEF7BCF90020FEF7B9F98820C3
:10557000FEF7B6F90020FEF7B3F97720FEF7B0F991
:105580000020FEF7ADF96620FEF7AAF90020FEF72D
:10559000A7F98820FEF7A4F90020FEF7A1F9AA20B8
:1055A000FEF79EF90020FEF79BF9BB20FEF798F965
:1055B0000020FEF795F99920FEF792F90020FEF7FA
:1055C0008FF96620FEF78CF90020FEF789F9552047
:1055D000FEF786F90020FEF783F95520FEF780F9E3
:1055E0000020FEF77DF94420FEF77AF90020FEF74F
:1055F00077F94420FEF774F90020FEF771F9552081
:10560000FEF76EF90020FEF76BF9E920FEF754F97A
:10561000AA20FEF765F90020FEF762F90020FEF7E8
:105620005FF90020FEF75CF90020FEF745F9AA209B
:10563000FEF756F9CF20FEF73FF90020FEF750F9AC
:105640000020FEF74DF90020FEF74AF90020FEF792
:1056500047F90020FEF744F90020FEF741F9002049
:10566000FEF73EF90020FEF73BF90020FEF738F97F
:105670000020FEF735F90020FEF732F90020FEF792
:105680002FF90020FEF72CF90020FEF729F9002061
:10569000FEF726F90020FEF723F90020FEF720F997
:1056A000F020FEF709F90020FEF71AF95020FEF766
:1056B00017F90020FEF714F90020FEF711F9002079
:1056C000FEF70EF9F320FEF7F7F80020FEF708F9D1
:1056D000F920FEF7F1F80620FEF702F91020FEF798
:1056E000FFF82920FEF7FCF80020FEF7F9F83A2031
:1056F000FEF7E2F85520FEF7F3F81120FEF7DCF88C
:105700006420FCF7F3FA2920FEF7D6F83520FEF7DF
:10571000D3F80020FEF7E4F85120FEF7CDF8FF2083
:10572000FEF7DEF85320FEF7C7F82C20FEF7D8F876
:105730005520FEF7C1F88220FEF7D2F82C20FEF7A4
:10574000BBF801F047B8044B9B8845F210529342D6
:1057500040F0818702E000BF8801002055214FF40E
:105760007040FEF7E3F8AA214FF20100FEF7DEF8E1
:1057700052214FF20200FEF7D9F808214FF2030040
:10578000FEF7D4F801214FF20400FEF7CFF80D2107
:105790004FF43040FEF7CAF80D214BF20100FEF73E
:1057A000C5F80D214BF20200FEF7C0F834214FF48A
:1057B0003640FEF7BBF834214BF20160FEF7B6F835
:1057C00034214BF20260FEF7B1F80D214FF4314065
:1057D000FEF7ACF80D214BF20110FEF7A7F80D21F2
:1057E0004BF20210FEF7A2F834214FF43740FEF7D7
:1057F0009DF834214BF20170FEF798F834214BF2FA
:105800000270FEF793F800214FF43240FEF78EF855
:1058100000214BF20120FEF789F800214BF2022013
:10582000FEF784F824214FF43840FEF77FF8242156
:105830004BF60100FEF77AF824214BF60200FEF742
:1058400075F801214FF43F40FEF770F80F214FF437
:105850003340FEF76BF80F214BF20130FEF766F88C
:105860000F214BF20230FEF761F834214FF439403A
:10587000FEF75CF834214BF60110FEF757F834219F
:105880004BF60210FEF752F808214FF43540FEF7B0
:105890004DF808214BF20150FEF748F808214BF271
:1058A0000250FEF743F803214FF44240FEF73EF862
:1058B00024214FF43A40FEF739F824214BF6012019
:1058C000FEF734F824214BF60220FEF72FF80021D2
:1058D0004FF43C40FEF72AF878214BF60140FEF7E2
:1058E00025F800214BF60240FEF720F800214FF486
:1058F0003D40FEF71BF878214BF60150FEF716F8F5
:1059000000214BF60250FEF711F800214FF43E4003
:10591000FEF70CF864214BF60160FEF707F8002152
:105920004FF45140FEF702F833214DF20110FDF71C
:10593000FDFF00214DF20210FDF7F8FF34214DF27A
:105940000310FDF7F3FF00214DF20410FDF7EEFF09
:105950003A214DF20510FDF7E9FF00214DF2061046
:10596000FDF7E4FF4A214DF20710FDF7DFFF0021AC
:105970004DF20810FDF7DAFF5C214DF20910FDF73A
:10598000D5FF00214DF20A10FDF7D0FF81214DF225
:105990000B10FDF7CBFF00214DF20C10FDF7C6FFF9
:1059A000A6214DF20D10FDF7C1FF00214DF20E10A2
:1059B000FDF7BCFFE5214DF20F10FDF7B7FF012108
:1059C0004DF21010FDF7B2FF13214DF21110FDF74B
:1059D000ADFF01214DF21210FDF7A8FF54214DF249
:1059E0001310FDF7A3FF01214DF21410FDF79EFFE8
:1059F00082214DF21510FDF799FF01214DF216108D
:105A0000FDF794FFCA214DF21710FDF78FFF022119
:105A10004DF21810FDF78AFF00214DF21910FDF725
:105A200085FF02214DF21A10FDF780FF01214DF292
:105A30001B10FDF77BFF02214DF21C10FDF776FFD6
:105A400034214DF21D10FDF771FF02214DF21E10A1
:105A5000FDF76CFF67214DF21F10FDF767FF022174
:105A60004DF22010FDF762FF84214DF22110FDF769
:105A70005DFF02214DF22210FDF758FFA4214DF2E7
:105A80002310FDF753FF02214DF22410FDF74EFFC6
:105A9000B7214DF22510FDF749FF02214DF22610E6
:105AA000FDF744FFCF214DF22710FDF73FFF022104
:105AB0004DF22810FDF73AFFDE214DF22910FDF7D7
:105AC00035FF02214DF22A10FDF730FFF2214DF291
:105AD0002B10FDF72BFF02214DF22C10FDF726FFB6
